:020000040800F2
:1000000060060020B1010008B9010008BB0100082A
:10001000BD010008BF010008C10100080000000088
:10002000000000000000000000000000C301000804
:10003000C501000800000000C7010008C901000850
:10004000CB010008CB010008CB010008CB01000860
:10005000CB010008CB010008CB010008CB01000850
:10006000CB010008CB010008CB010008CB01000840
:10007000CB010008CB010008CB010008CB01000830
:10008000CB010008CB010008CB010008CB01000820
:10009000CB010008CB010008CB010008CB01000810
:1000A000CB010008CB010008CB010008CB01000800
:1000B000CB010008CB010008CB010008CB010008F0
:1000C000CB010008CB010008CB010008CB010008E0
:1000D000CB010008CB010008CB010008CB010008D0
:1000E000CB010008CB010008CB010008CB010008C0
:1000F000CB010008CB010008CB010008CB010008B0
:10010000CB010008CB010008CB010008CB0100089F
:10011000CB010008CB010008CB010008CB0100088F
:10012000CB010008CB010008CB010008CB0100087F
:1001300000F002F800F02CF80AA090E8000C8244CD
:100140008344AAF10107DA4501D100F021F8AFF2AA
:10015000090EBAE80F0013F0010F18BFFB1A43F0A5
:10016000010318474005000050050000002300244B
:1001700000250026103A28BF78C1FBD8520728BFB7
:1001800030C148BF0B6070471FB51FBD10B510BD13
:1001900000F031F81146FFF7F7FF00F051FA00F0D8
:1001A0004FF803B4FFF7F2FF03BC00F057F800006C
:1001B0000948804709480047FEE7FEE7FEE7FEE7FB
:1001C000FEE7FEE7FEE7FEE7FEE7FEE70448054937
:1001D000054A064B70470000E105000831010008A0
:1001E0006000002060060020600200206002002005
:1001F000704770477047754600F02CF8AE46050012
:100200006946534620F00700854618B020B5FFF731
:10021000DDFFBDE820404FF000064FF000074FF033
:1002200000084FF0000B21F00701AC46ACE8C00914
:10023000ACE8C009ACE8C009ACE8C0098D4670471D
:1002400010B50446AFF300802046BDE81040FFF72C
:10025000A8BF000000487047000000200149182096
:10026000ABBEFEE7260002007047000001490860AF
:100270007047000000860D42014607E0722201E04F
:10028000531E9AB2002AFBDC4B1E99B20029F5DC02
:1002900070472DE9F041024600250026002000238A
:1002A0000024002791F803C00CF00F0591F803C05B
:1002B0000CF0100CBCF1000F03D091F802C04CEA16
:1002C000050591F800C0BCF1000F31D01468002082
:1002D0002BE04FF0010C0CFA00F3B1F800C00CEA6F
:1002E00003069E4220D183004FF00F0C0CFA03F757
:1002F000BC4305FA03FC4CEA040491F803C0BCF1CA
:10030000280F06D14FF0010C0CFA00FCC2F814C003
:100310000AE091F803C0BCF1480F05D14FF0010C81
:100320000CFA00FCC2F810C0401C0828D1D314609D
:10033000B1F800C0BCF1FF0F34DD546800202EE09E
:1003400000F1080C4FF0010808FA0CF3B1F800C0F6
:100350000CEA03069E4221D183004FF00F0C0CFAE9
:1003600003F7BC4305FA03FC4CEA040491F803C00C
:10037000BCF1280F05D100F1080C08FA0CF8C2F8FE
:10038000148091F803C0BCF1480F07D100F1080CAC
:100390004FF0010808FA0CF8C2F81080401C082839
:1003A000CED35460BDE8F081F0B50A4600230024A6
:1003B0000021002500F00046B6F1004F02D11D4E8D
:1003C000F16901E01B4E7168C0F3034583B200F48C
:1003D0004016B6F5401F08D121F07061154E7668C1
:1003E00026F07066134F7E6012E000F48016B6F5BA
:1003F000801F06D1032606FA05F4A14341F070617F
:1004000006E0460D360103FA06F6B14341F070618D
:1004100022B1460D360103FA06F6314300F00046DC
:10042000B6F1004F02D1034EF16101E0014E71605F
:10043000F0BD000000000140C160704708B5012117
:10044000152000F02FF8012000F026F8002000F021
:1004500039F80020FFF70AFF01210C48FFF7A4FF3D
:100460004FF46040ADF8000003208DF8020010202A
:100470008DF8030069460648FFF70BFF69460548FB
:10048000FFF707FF002000F007F808BD0004300068
:100490000010014000080140014908627047000057
:1004A00000000E4229B1064A92690243044B9A6148
:1004B00004E0034A92698243014B9A61704700004D
:1004C0000010024000210B4A11700A4A203A82F8BB
:1004D0002010012802D0042808D103E00121054A98
:1004E000117004E00521034A117000E000BF00BF55
:1004F000704700002010024010B500F001F810BD58
:100500000CB50020019000903348006840F4803022
:100510003149086000BF3048006800F400300090A6
:100520000198401C0190009818B90198B0F5A06F8F
:10053000F1D12948006800F4003010B1012000908A
:1005400001E0002000900098012843D12348006872
:1005500040F01000214908600846006820F00300C0
:1005600008600846006840F0020008601A484068C9
:10057000194948600846406848600846406840F4A9
:10058000806048600846406820F47C104860084657
:10059000406840F4E81048600846006840F0807009
:1005A000086000BF0C48006800F000700028F9D017
:1005B0000948406820F00300074948600846406841
:1005C00040F00200486000BF0348406800F00C00A3
:1005D0000828F9D10CBD00000010024000200240A4
:1005E00010B51348006840F0010011490860084642
:1005F0004068104908400E494860084600680E49A6
:1006000008400B4908600846006820F48020086014
:100610000846406820F4FE0048604FF41F008860E0
:10062000FFF76AFF4FF000600449086010BD00004A
:10063000001002400000FFF8FFFFF6FE08ED00E0AA
:1006400008B5FFF7FBFE01210C20FFF72BFF01216E
:100650001248FFF7A9FE4FF6FF70ADF8000010201A
:100660008DF8030003208DF8020069460C48FFF75F
:1006700010FE11E04FF2F0010948FFF7DDFE4EF6E3
:100680006020FFF7F9FD4FF6FF710548FFF7D4FE34
:100690004EF66020FFF7F0FDECE7000000043000AC
:1006A00000080140B40600080000002060060000B9
:0406B0006C010008D1
:0400000508000131BD
:00000001FF
