:020000040800F2
:1000000068060020CD010008D5010008D7010008CE
:10001000D9010008DB010008DD0100080000000034
:10002000000000000000000000000000DF010008E8
:10003000E101000800000000E3010008E5010008FC
:10004000E7010008E7010008E7010008E7010008F0
:10005000E7010008E7010008E7010008E7010008E0
:10006000E7010008E7010008E7010008E7010008D0
:10007000E7010008E7010008E7010008E7010008C0
:10008000E7010008E7010008E7010008E7010008B0
:10009000E7010008E7010008E7010008E7010008A0
:1000A000E7010008E7010008E7010008E701000890
:1000B000E7010008E7010008E7010008E701000880
:1000C000E7010008E7010008E7010008E701000870
:1000D000E7010008E7010008E7010008E701000860
:1000E000E7010008E7010008E7010008E701000850
:1000F000E7010008E7010008E7010008E701000840
:10010000E7010008E7010008E7010008E70100082F
:10011000E7010008E7010008E7010008E70100081F
:10012000E7010008E7010008E7010008E70100080F
:1001300000F002F800F03AF80AA090E8000C8244BF
:100140008344AAF10107DA4501D100F02FF8AFF29C
:10015000090EBAE80F0013F0010F18BFFB1A43F0A5
:1001600001031847C8030000E8030000103A24BF49
:1001700078C878C1FAD8520724BF30C830C144BF0C
:1001800004680C607047000000230024002500264E
:10019000103A28BF78C1FBD8520728BF30C148BFEA
:1001A0000B6070471FB51FBD10B510BD00F031F8D2
:1001B0001146FFF7F7FF00F01BF900F04FF803B40A
:1001C000FFF7F2FF03BC00F057F800000948804732
:1001D00009480047FEE7FEE7FEE7FEE7FEE7FEE729
:1001E000FEE7FEE7FEE7FEE704480549054A064B41
:1001F000704700007103000831010008680000200A
:1002000068060020680200206802002070477047DE
:100210007047754600F02CF8AE4605006946534617
:1002200020F00700854618B020B5FFF7DDFFBDE8D8
:1002300020404FF000064FF000074FF000084FF04D
:10024000000B21F00701AC46ACE8C009ACE8C009DE
:10025000ACE8C009ACE8C0098D46704710B504464B
:10026000AFF300802046BDE81040FFF7A8BF0000B4
:10027000004870470400002001491820ABBEFEE78B
:1002800026000200704710B500F002F810BD000013
:100290000CB50020019000903348006840F4803095
:1002A0003149086000BF3048006800F40030009019
:1002B0000198401C0190009818B90198B0F5A06F02
:1002C000F1D12948006800F4003010B101200090FD
:1002D00001E0002000900098012843D123480068E5
:1002E00040F01000214908600846006820F0030033
:1002F00008600846006840F0020008601A4840683C
:10030000194948600846406848600846406840F41B
:10031000806048600846406820F47C1048600846C9
:10032000406840F4E81048600846006840F080707B
:10033000086000BF0C48006800F000700028F9D089
:100340000948406820F003000749486008464068B3
:1003500040F00200486000BF0348406800F00C0015
:100360000828F9D10CBD0000001002400020024016
:1003700010B51348006840F00100114908600846B4
:100380004068104908400E494860084600680E4918
:1003900008400B4908600846006820F48020086087
:1003A0000846406820F4FE0048604FF41F00886053
:1003B000FFF769FF4FF000600449086010BD0000BE
:1003C000001002400000FFF8FFFFF6FE08ED00E01D
:1003D000002109E0002201E0531C9AB241F63B7370
:1003E0009A42F9DB4A1C91B28142F3DB704700006C
:1003F0004948806940F001004749886147484068A2
:1004000020F0E060454948600846406840F0806060
:1004100048604148806940F004003F4988614FF0DE
:1004200033303F490860091D08604FF0FF303C49F8
:10043000103108603848806940F010003649886102
:100440003848006820F07040364908600846006867
:1004500040F0E04008600846406940F08000486194
:100460000846006840F6080108432E49086008461F
:10047000006840F2077188432A4908600846C0684E
:1004800040F00500C86045E02648806800F00100A3
:10049000C8B90A20FFF79CFF2248806800F00100DD
:1004A00088B900BF1F48806800F001000028F9D01B
:1004B0001D480078401C1C490870084600780F2829
:1004C00001DD002008701748806800F00400C8B9FA
:1004D0000A20FFF77DFF1348806800F0040088B908
:1004E00000BF1048806800F004000028F9D00E48D2
:1004F0000078401E0C490870084600780F2801DD7E
:100500000F2008700848017801208840C043044942
:100510000C310860B8E70000001002400000014004
:100520000008014000100140000000204C050008B8
:1005300000000020040000006C01000850050008C5
:10054000040000206406000088010008000000008C
:0400000508000131BD
:00000001FF
