:020000040800F2
:1000000080060020CD0100088F0600086504000866
:100010008D06000887020008850A0008000000001D
:10002000000000000000000000000000B106000811
:100030008902000800000000910600086907000816
:10004000E7010008E7010008E7010008E7010008F0
:10005000E7010008E7010008E7010008E7010008E0
:10006000E7010008E7010008E7010008E7010008D0
:10007000E7010008E7010008E7010008E7010008C0
:10008000E7010008E7010008E7010008E7010008B0
:10009000E7010008E7010008E7010008E7010008A0
:1000A000E7010008E7010008E7010008E701000890
:1000B000E7010008E7010008E7010008E701000880
:1000C000E7010008E7010008E7010008E701000870
:1000D000E7010008E7010008E7010008E701000860
:1000E000E7010008E7010008E7010008E701000850
:1000F000E7010008E7010008E7010008E701000840
:10010000E7010008E7010008E7010008E70100082F
:10011000E7010008E7010008E7010008E70100081F
:10012000E7010008E7010008E7010008E70100080F
:1001300000F002F800F03AF80AA090E8000C8244BF
:100140008344AAF10107DA4501D100F02FF8AFF29C
:10015000090EBAE80F0013F0010F18BFFB1A43F0A5
:10016000010318474C0C00006C0C0000103A24BF2F
:1001700078C878C1FAD8520724BF30C830C144BF0C
:1001800004680C607047000000230024002500264E
:10019000103A28BF78C1FBD8520728BF30C148BFEA
:1001A0000B6070471FB51FBD10B510BD00F031F8D2
:1001B0001146FFF7F7FF00F07FFC00F04FF803B4A3
:1001C000FFF7F2FF03BC00F057F800000948804732
:1001D00009480047FEE7FEE7FEE7FEE7FEE7FEE729
:1001E000FEE7FEE7FEE7FEE704480549054A064B41
:1001F000704700006D0700083101000880000020F2
:100200008006002080020020800200207047704796
:100210007047754600F02CF8AE4605006946534617
:1002200020F00700854618B020B5FFF7DDFFBDE8D8
:1002300020404FF000064FF000074FF000084FF04D
:10024000000B21F00701AC46ACE8C009ACE8C009DE
:10025000ACE8C009ACE8C0098D46704710B504464B
:10026000AFF300802046BDE81040FFF7A8BF0000B4
:10027000004870471C00002001491820ABBEFEE773
:10028000260002007047FEE7704700000149C86081
:10029000704700000020024070B505464FF430263C
:1002A000304600F059F8042811D1094C206940F07B
:1002B000020020616561206940F040002061304605
:1002C00000F04AF8216941F6FD721140216170BDCC
:1002D0000020024004200849CA68D20701D001204A
:1002E0007047CA68520701D502207047C968C9061D
:1002F000FBD503207047000000200240024801693E
:1003000041F080010161704700200240F0B50646CF
:100310000D464FF40057384600F01EF804280CD163
:10032000064C206940F0010020613580384600F01D
:1003300013F82169BA1E11402161F0BD002002406E
:100340000348024941600349416070472301674502
:1003500000200240AB89EFCD00B50346FFF7BAFF9E
:1003600002E0FFF7B7FF5B1E012801D1002BF8D197
:10037000002B00D1052000BD70B504460D46FFF7E7
:10038000DFFF3520FFF782FF2046FFF785FF294674
:100390002046FFF7BBFF3520FFF778FFBDE8704030
:1003A000FFF7ACBF2DE9F0410022CC7804F00F0339
:1003B000E40601D58C7823430C784FF00F0714F036
:1003C000FF0F4FF0010C1CD005680CFA02F40E88E8
:1003D0002640A64211D1960007FA06F825EA08053C
:1003E00003FA06F848EA0505CE78282E02D0482EF2
:1003F00002D002E0446100E00461521C082AE4D308
:1004000005600A88FF2A1ED94568002202F1080605
:100410000CFA06F40E882640A64210D1960007FA80
:1004200006F825EA080503FA06F848EA0505CE7835
:10043000282E00D14461CE78482E00D10461521C90
:10044000082AE3D34560BDE8F081806880B2704738
:100450004161704701617047002A01D00161704716
:1004600041617047FEE7000038B50121102000F01F
:1004700011F90F20ADF8000010208DF803000320C3
:100480008DF80200074C69462046FFF78BFFF021EC
:10049000ADF8001048218DF8031069462046FFF79B
:1004A00081FF38BD001001402DE9F04100240025F6
:1004B000754F0F213846FFF7CDFF01213846FFF772
:1004C000C7FF3846FFF7C1FFC0B2FE2829D00F2072
:1004D00000F0E3FA3846FFF7B8FFC0B2FE2820D09C
:1004E0003846FFF7B2FFC6B204E00A2000F0D5FAA2
:1004F000641CE4B23846FFF7A8FFC0B2FE2801D062
:10050000322CF2D97E2E0BD0BE2E07D0DE2E03D099
:10051000EE2E06D1012504E0022502E0032500E0CD
:1005200004250F213846FFF795FF02213846FFF7D3
:100530008FFF3846FFF789FFC0B2FD2829D00A2077
:1005400000F0ABFA3846FFF780FFC0B2FD2820D09C
:100550003846FFF77AFFC6B204E00A2000F09DFAA1
:10056000641CE4B23846FFF770FFC0B2FD2801D02A
:10057000322CF2D97D2E0BD0BD2E07D0DD2E03D02C
:10058000ED2E06D1052504E0062502E0072500E052
:1005900008250F213846FFF75DFF04213846FFF795
:1005A00057FF3846FFF751FFC0B2FB2829D00A2079
:1005B00000F073FA3846FFF748FFC0B2FB2820D09E
:1005C0003846FFF742FFC6B204E00A2000F065FAA1
:1005D000641CE4B23846FFF738FFC0B2FB2801D0F4
:1005E000322CF2D97B2E0BD0BB2E07D0DB2E03D0C2
:1005F000EB2E06D1092504E00A2502E00B2500E0D8
:100600000C250F213846FFF725FF08213846FFF754
:100610001FFF3846FFF719FFC0B2F72829D00A207C
:1006200000F03BFA3846FFF710FFC0B2F72820D0A1
:100630003846FFF70AFFC6B204E00A2000F02DFAA0
:10064000641CE4B23846FFF700FFC0B2F72801D0BF
:10065000322CF2D9772E0BD0B72E07D0D72E03D05D
:10066000E72E06D10D2504E00E2502E00F2500E05F
:100670001025322C01D945F080050F213846FFF7AF
:10068000E7FE2846BDE8F08100100140FEE7704714
:1006900070470000054A002903D091690143916128
:1006A00070479169814391617047000000100240DA
:1006B000704700F001B800000CB5002201920092D2
:1006C0002748016841F4803101604FF4A06301685C
:1006D00001F4003100910199491C0191009911B96F
:1006E00001999942F3D10168890302D50121009152
:1006F00000E000920099012930D11A490A6842F0BD
:1007000010020A600A6822F003020A600A6842F0D6
:1007100002020A604168416041684160416841F4F9
:1007200080614160416821F47C114160416841F47D
:10073000E8114160016841F0807101600168890140
:10074000FCD5416821F003014160416841F002019C
:1007500041604168C1F381010229FAD10CBD00005A
:1007600000100240002002407047000010B50F4802
:10077000016841F00101016041680D4A114041608A
:1007800001680C4A11400160016821F48021016078
:10079000416821F4FE0141604FF41F018160FFF7C1
:1007A00088FF05494FF00060086010BD001002404E
:1007B0000000FFF8FFFFF6FE08ED00E010B500F0C6
:1007C0002BF9402000F006F900F0B6F800F024F90B
:1007D000C02000F0FFF80024002000F0FBF8641CAB
:1007E000E4B2122CF8D3BDE8104000F0A5B870B503
:1007F00004460D461646A019401E082819DC00F0D4
:100800000BF9402000F0E6F800F096F800F004F94B
:10081000BF34E0B200F0DEF8002404E0285D00F010
:10082000D9F8641CE4B2B442F8D3BDE8704000F0DB
:1008300083B870BD2DE9F04180460E46174600F0A2
:10084000EBF8402000F0C6F800F076F800F0E4F88D
:10085000C02000F0BFF80A24B8FBF4F0164D285C65
:1008600000F0B8F8B8FBF4F004FB1080285C00F04E
:10087000B1F8402000F0AEF8B6FBF4F0285C00F0D0
:10088000A9F8B6FBF4F004FB1060285C00F0A2F8B5
:10089000402000F09FF8B7FBF4F0285C00F09AF8D5
:1008A000B7FBF4F004FB1070285C00F093F8BDE88F
:1008B000F04100F041B800000800002010B500F041
:1008C000ABF8402000F086F800F036F800F0A4F80D
:1008D000C02000F07FF80024FF2000F07BF8641CAB
:1008E000E4B2122CF8D300F027F84FF4FA7000F0BD
:1008F000D4F800F091F8402000F06CF800F01CF8FB
:1009000000F08AF8C02000F065F80024002000F014
:1009100061F8641CE4B2122CF8D300F00DF800F07A
:100920007BF88C2000F056F800F006F8BDE8104087
:10093000012000F0A8B8000010B50B4C0022802167
:100940002046FFF789FD002240212046FFF784FD65
:10095000012280212046FFF77FFD20460122BDE8CD
:1009600010404021FFF778BD0020014038B501213B
:100970000802FFF78FFEC020ADF8000010208DF8B0
:10098000030003208DF802000A4C69462046FFF759
:1009900009FD012240212046FFF75EFD0122802152
:1009A0002046FFF759FD012000F06DF8FFF786FFA4
:1009B00038BD00000020014010B5044600F02CF8BE
:1009C000204600F007F8FFF7B7FFBDE81040012010
:1009D00000F059B870B5054600240E4EE80705D062
:1009E000012240213046FFF737FD04E0002240217C
:1009F0003046FFF731FD012280213046FFF72CFD04
:100A0000002280213046FFF727FD6D08641C082C6A
:100A1000E4DB70BD0020014010B50B4C01224021E9
:100A20002046FFF719FD012280212046FFF714FD23
:100A3000002240212046FFF70FFD20460022BDE89E
:100A400010408021FFF708BD0020014010B5064B83
:100A50001B68C3F3C4240470C3F34510087003F08B
:100A60003F00107010BD000000F80708044BC002E2
:100A700040EA4110104381B21846FFF77DBC0000E8
:100A800000F80708FEE70021491CC9B25F29FBD323
:100A9000521C92B28242F6D37047002241F63B7359
:100AA00006E00021491C89B29942FBD3521C92B244
:100AB0008242F6D37047000008B5FFF7D5FCFFF778
:100AC00055FFFFF7FBFEB94F0025BD70FD703D716E
:100AD0003A1D511E481EFFF7B9FF3A79F978B878E8
:100AE000FFF7A8FE009500244FF001094FF0020A1D
:100AF00047F230584EF660267878A0BBF888401C44
:100B000080B2F880B0422ED33879401CC2B23A711C
:100B1000F978B878FFF7AAFFFD8038793C281DD115
:100B20002A463D71F878401CC1B2F970B878FFF7D9
:100B30009DFFF8783C2811D12946FD70B878401CFB
:100B4000C0B2B8703A79FFF791FFB878182805D18C
:100B50002846BD703A79F978FFF788FF3A79F97835
:100B6000B878FFF767FEFFF79FFC0D2802D187F8E2
:100B70000190002000F07F000E283FD10520787002
:100B80003CE0FFF791FC8346BBF10D0F09D0012C2F
:100B900009D044450DD1022269460720FFF727FE00
:100BA0000AE07D7070E03A79F978B878FFF742FE94
:100BB00002E0B44200D10024641CA4B2BBF1040FD3
:100BC00009D13879401CC2B23A714FF0000BF97864
:100BD000B878FFF72FFEBBF10C0F09D13879401E12
:100BE000C2B23A714FF0000BF978B878FFF722FEE5
:100BF000BBF1080F06D0BBF1100F06D078780128A2
:100C0000BFD041E087F801A03EE07D703CE0FFF7F7
:100C10004BFC8346BBF10D0F09D0012C09D0444594
:100C20000DD1022269460420FFF7E1FD0AE07D7044
:100C300071E03A79F978B878FFF7FCFD02E0B44248
:100C400000D10024641CA4B2BBF1040F09D1F878D0
:100C5000401CC1B2F9704FF0000B3A79B878FFF739
:100C6000E9FDBBF10C0F09D1F878401EC1B2F97053
:100C70004FF0000B3A79B878FFF7DCFDBBF1080FB5
:100C800006D0BBF1100F06D078780228BFD042E022
:100C9000032179703FE087F801903CE0FFF704FC06
:100CA0008346BBF10D0F09D0012C09D044450DD16D
:100CB000022269460120FFF79AFD0AE07D7071E08B
:100CC0003A79F978B878FFF7B5FD02E0B44200D17F
:100CD0000024641CA4B2BBF1040F09D1B878401CF5
:100CE000C0B2B8704FF0000B3A79F978FFF7A2FD67
:100CF000BBF10C0F09D1B878401EC0B2B8704FF0EC
:100D0000000B3A79F978FFF795FDBBF1080F06D093
:100D1000BBF1100F05D078780328BFD042E07D707A
:100D200040E087F801A03DE0FFF7BEFB8346BBF142
:100D30000D0F06D0012C06D044450AD1FFF73EFD29
:100D40000AE07D70D8E63A79F978B878FFF772FD55
:100D500002E0B44200D10024641CA4B2BBF1040F31
:100D60000FD13878401C38704FF0000B00F00700AE
:100D70008830C0B2FFF720FE3A79F978B878FFF7EB
:100D800059FDBBF10C0F0DD13878401E387000F0C2
:100D900007008830C0B2FFF70FFE3A79F978B878CB
:100DA000FFF748FD78780528CCD1BDE7000000208A
:100DB000D00D0008000000201C0000006C0100089D
:100DC000EC0D00081C0000206406000088010008EB
:100DD00005000000000000003F065B4F666D7D07C8
:0C0DE0007F6F777C395E7971760000002F
:0400000508000131BD
:00000001FF
