:020000040800F2
:10000000182000200D020008150200081702000841
:10001000190200081B0200081D0200080000000071
:100020000000000000000000000000001F020008A7
:100030002102000800000000230200082502000839
:100040002702000827020008270200087510000890
:100050002702000827020008DD0200082702000826
:1000600027020008270200081103000827020008E1
:1000700027020008270200082702000827020008BC
:1000800027020008270200082702000827020008AC
:100090002702000827020008270200080D040008B4
:1000A000270200082702000827020008270200088C
:1000B000E5110008270200082702000827020008AF
:1000C000270200082702000827020008270200086C
:1000D000270200082D120008270200082702000846
:1000E000270200082D100008270200082702000838
:1000F000270200082702000827020008270200083C
:10010000270200082702000827020008270200082B
:10011000270200082702000827020008270200081B
:10012000270200082702000827020008270200080B
:1001300000F002F800F05AF80AA090E8000C82449F
:100140008344AAF10107DA4501D100F04FF8AFF27C
:10015000090EBAE80F0013F0010F18BFFB1A43F0A5
:100160000103184750120000701200000A444FF0BB
:10017000000C10F8013B13F0070408BF10F8014B06
:100180001D1108BF10F8015B641E05D010F8016B4B
:10019000641E01F8016BF9D113F0080F1EBF10F8AF
:1001A000014BAD1C0C1B09D16D1E58BF01F801CBD2
:1001B000FAD505E014F8016B01F8016B6D1EF9D555
:1001C0009142D6D37047000000230024002500266A
:1001D000103A28BF78C1FBD8520728BF30C148BFAA
:1001E0000B6070471FB51FBD10B510BD00F033F890
:1001F0001146FFF7F7FF01F0C1F800F051F803B422
:10020000FFF7F2FF03BC01F0B7F800000948804790
:1002100009480047FEE7FEE7FEE7FEE7FEE7FEE7E8
:10022000FEE7FEE7FEE7FEE704480549054A064B00
:10023000704700008511000831010008181A0020DD
:1002400018200020181C0020181C00207047704740
:10025000704770477047754600F02CF8AE460500B1
:100260006946534620F00700854618B020B5FFF7D1
:10027000DBFFBDE820404FF000064FF000074FF0D5
:1002800000084FF0000B21F00701AC46ACE8C009B4
:10029000ACE8C009ACE8C009ACE8C0098D467047BD
:1002A00010B50446AFF300802046BDE81040FFF7CC
:1002B000A6BF000000487047B4190020002109E0E3
:1002C000002201E0531C9AB241F63B739A42F9DBDB
:1002D0004A1C91B28142F3DB7047000010B5012047
:1002E00000F01AFA80B14FF40051084800F0DAFA31
:1002F000C0F10100C4B222464FF40051034800F09F
:10030000E0FA012000F002FA10BD000000100140E8
:1003100038B5002500241020ADF8000014208DF819
:10032000030003208DF802006946364800F022FAE7
:100330000F20ADF8000048208DF8030003208DF851
:10034000020069462F4800F015FA4FF6EF712D486C
:1003500000F0B5FA0A20FFF7B1FF2A4800F095FA3D
:1003600000F00F000F282CD0264800F08EFA00F085
:100370000F0504E00A20FFF7A1FF601CC4B221486A
:1003800000F083FA00F00F000F2801D0322CF1DDCD
:10039000072D11D00B2D0BD00D2D05D00E2D0FD10B
:1003A0000120194908700BE005201749087007E083
:1003B00009201549087003E00D201349087000BF9B
:1003C00000BF0F20ADF8000014208DF803000320BB
:1003D0008DF8020069460B4800F0CCF9F020ADF82A
:1003E000000048208DF803006946064800F0C2F975
:1003F0004FF6F071034800F062FA102000F086F921
:1004000038BD0000001001400000002038B5202059
:1004100000F082F9002878D02020ADF800001420E8
:100420008DF8030003208DF802006946B54800F0FE
:10043000A1F90F20ADF8000048208DF8030003203B
:100440008DF802006946AF4800F094F94FF6DF716D
:10045000AC4800F034FA0A20FFF730FFA94800F05A
:1004600014FA00F00F000F282FD000250024A54813
:1004700000F00BFA00F00F0504E00A20FFF71EFF62
:10048000601CC4B29F4800F000FA00F00F000F2873
:1004900001D0322CF1DD072D11D00B2D0BD00D2DFD
:1004A00005D00E2D0FD10220974908700BE00620D1
:1004B0009549087007E00A209349087003E00E2070
:1004C0009149087000BF00BF00BF0F20ADF80000C9
:1004D00014208DF8030003208DF802006946894836
:1004E00000F048F9F020ADF8000048208DF8030036
:1004F0006946844800F03EF94FF6F071814800F0FB
:10050000DEF9202000F002F900BF402000F004F9DD
:10051000002878D04020ADF8000014208DF80300AA
:1005200003208DF802006946764800F023F90F2079
:10053000ADF8000048208DF8030003208DF802007C
:100540006946704800F016F94FF6BF716D4800F02B
:10055000B6F90A20FFF7B2FE6A4800F096F900F0FB
:100560000F000F282FD000250024664800F08DF9D9
:1005700000F00F0504E00A20FFF7A0FE601CC4B2E3
:10058000604800F082F900F00F000F2801D0322CF3
:10059000F1DD072D11D00B2D0BD00D2D05D00E2D1B
:1005A0000FD10320584908700BE007205649087006
:1005B00007E00B205449087003E00F2052490870EF
:1005C00000BF00BF00BF0F20ADF8000014208DF861
:1005D000030003208DF8020069464A4800F0CAF87B
:1005E000F020ADF8000048208DF80300694645482A
:1005F00000F0C0F84FF6F071424800F060F940207A
:1006000000F084F800BF802000F086F8002878D041
:100610008020ADF8000014208DF8030003208DF831
:1006200002006946374800F0A5F80F20ADF8000039
:1006300048208DF8030003208DF8020069463148F8
:1006400000F098F84FF67F712E4800F038F90A2034
:10065000FFF734FE2B4800F018F900F00F000F28C8
:100660002FD000250024274800F00FF900F00F05D7
:1006700004E00A20FFF722FE601CC4B2214800F00B
:1006800004F900F00F000F2801D0322CF1DD072D06
:1006900011D00B2D0BD00D2D05D00E2D0FD1042018
:1006A000194908700BE008201749087007E00C2072
:1006B0001549087003E010201349087000BF00BFFF
:1006C00000BF0F20ADF8000014208DF803000320B8
:1006D0008DF8020069460B4800F04CF8F020ADF8A8
:1006E000000048208DF803006946064800F042F8F3
:1006F0004FF6F071034800F0E2F8802000F006F8B1
:1007000000BF38BD00100140000000200149086012
:100710007047000014040140014600200022074BEE
:100720001B6803EA0102054B14331B680B4013B12D
:100730000AB1012000E000207047000000040140E1
:100740000549096821F01001034A11601146096842
:100750000143116070470000002002400146002064
:10076000034A106800F0380008431060704700002A
:10077000002002402DE9F04102460025002600201D
:1007800000230024002791F803C00CF00F0591F816
:1007900003C00CF0100CBCF1000F03D091F802C0A4
:1007A0004CEA050591F800C0BCF1000F31D0146887
:1007B00000202BE04FF0010C0CFA00F3B1F800C060
:1007C0000CEA03069E4220D183004FF00F0C0CFA76
:1007D00003F7BC4305FA03FC4CEA040491F803C098
:1007E000BCF1280F06D14FF0010C0CFA00FCC2F846
:1007F00014C00AE091F803C0BCF1480F05D14FF0D6
:10080000010C0CFA00FCC2F810C0401C0828D1D31F
:100810001460B1F800C0BCF1FF0F34DD5468002053
:100820002EE000F1080C4FF0010808FA0CF3B1F8C3
:1008300000C00CEA03069E4221D183004FF00F0C4A
:100840000CFA03F7BC4305FA03FC4CEA040491F8E4
:1008500003C0BCF1280F05D100F1080C08FA0CF810
:10086000C2F8148091F803C0BCF1480F07D100F121
:10087000080C4FF0010808FA0CF8C2F81080401C70
:100880000828CED35460BDE8F0810146886880B264
:1008900070470246002093680B400BB1012000E036
:1008A0000020704702460020D3680B400BB10120A6
:1008B00000E0002070474161704701617047C160EE
:1008C00070470AB1016100E04161704738B54820C6
:1008D0008DF80300FF20ADF8000069461648FFF7C9
:1008E00049FFFF211448FFF7E8FF01201349086082
:1008F00000201349C1F8A40101201249086000BF7B
:1009000001201049086080210B48FFF7C2FF044610
:1009100000200D49C1F88401002CF1D114208DF87C
:100920000300FF20ADF8000003208DF802006946A7
:100930000148FFF71FFF38BD00200140A881234276
:1009400000802342848121420080214208B5012198
:100950004FF4C47000F050FA4FF40070ADF800008E
:1009600010208DF8030003208DF802006946164818
:10097000FFF700FF4FF48060ADF8000010208DF805
:10098000030003208DF8020069460F48FFF7F2FECE
:1009900010208DF803000220ADF8000003208DF830
:1009A000020069460948FFF7E5FE14208DF80300B0
:1009B000FF20ADF8000003208DF8020069460448CE
:1009C000FFF7D8FE08BD0000001C0140000C0140EC
:1009D0000020014010B5FFF7B9FF382000F0A2FC5D
:1009E000082000F09FFC012000F09CFC062000F095
:1009F00099FC0C2000F096FC10BD000070B500249E
:100A00000CE0002506E00020074901EBC501085570
:100A1000681CC5B2802DF6DB601CC4B2082CF0DB6C
:100A200000F010F970BD00003415002070B50B46C1
:100A3000CE1701EB5676C6F3C702CE1701EB5676FA
:100A4000F610A1EBC606F4B20123A340DDB20E4BB3
:100A500003EBC0039B5CDB430B4E06EBC006B354B9
:100A6000094B03EBC0039B5C2B43074E06EBC00610
:100A7000B354054B03EBC0039B5CDB43024E06EB18
:100A8000C006B35470BD00003415002010B50446F4
:100A90001CB90021A62000F07FF9012C03D1002110
:100AA000A72000F079F910BD10B504463CB900212B
:100AB000C82000F071F90021A12000F06DF9012C8F
:100AC00007D10021C02000F067F90021A02000F02C
:100AD00063F910BD70B50A46CE1701EB5676C6F322
:100AE000C703CE1701EB5676F610A1EBC606F4B29B
:100AF0000122A240D5B2054A02EBC002D25C2A43D1
:100B0000024E06EBC006F25470BD00003415002002
:100B100008B50121042000F06FF90F20ADF80000A6
:100B200010208DF8030003208DF802006946434829
:100B3000FFF720FE4FF480514048FFF7BEFE022130
:100B40003F48FFF7B8FEC820FFF7B8FB02213C483A
:100B5000FFF7B3FE0021AE2000F01EF90021084689
:100B600000F01AF90021102000F016F900214020B1
:100B700000F012F90021812000F00EF90021CF20B1
:100B800000F00AF90021A12000F006F90021C82098
:100B900000F002F90021A62000F0FEF80021A820B4
:100BA00000F0FAF800213F2000F0F6F80021D320F1
:100BB00000F0F2F80021084600F0EEF80021D52000
:100BC00000F0EAF80021802000F0E6F80021D920AA
:100BD00000F0E2F80021F12000F0DEF80021DA2038
:100BE00000F0DAF80021122000F0D6F80021DB2016
:100BF00000F0D2F80021402000F0CEF800212020A3
:100C000000F0CAF80021022000F0C6F800218D2073
:100C100000F0C2F80021142000F0BEF80021A4204A
:100C200000F0BAF80021A62000F0B6F80021AF20AD
:100C300000F0B2F8FFF7E2FE08BD0000002001401E
:100C40000008014070B500241CE004F1B001C8B2F6
:100C5000002100F0A1F80021084600F09DF80021D5
:100C6000102000F099F8002508E0084901EBC501C3
:100C7000085D012100F090F8681CC5B2802DF4DBFE
:100C8000601CC4B2082CE0DB70BD000034150020ED
:100C90002DE9FF4F0746884691461C464FF0000B52
:100CA0000297CDF804802046E11704EB5171C1F39F
:100CB000C701009160E009FB04F0C11700EB51711E
:100CC0000BEBE101CEB20BF1010000F0FF0B0025B0
:100CD00050E0102C05D12C4800EB0610405D03902D
:100CE0001BE0182C07D106EBC600284901EBC00019
:100CF000405D039011E0202C05D1254800EBC61083
:100D0000405D039009E0402C05D1224800EB4620CD
:100D1000405D039001E0BDE8FF8F4FF0000A17E04F
:100D2000039800F0010020B141463846FFF7D2FE9B
:100D300003E041463846FFF779FE039840100390E0
:100D400008F1010000F0FF080AF1010000F0FF0ABD
:100D5000BAF1080FE4DB781CC7B20298381AA04237
:100D600004D1029F01980830C0B20190DDF80480E0
:100D7000681CC5B2A542ACDB0098411EC9B2009107
:100D8000002898D100BFC6E714000020740100209D
:100D90004C0200204C04002070B504460E4626B1DB
:100DA00001211448FFF789FD03E001211148FFF7F5
:100DB00082FD002517E008210E48FFF77CFD04F0B6
:100DC000800020B104210B48FFF777FD03E00421E8
:100DD0000848FFF770FD08210648FFF76EFD600622
:100DE000040E681CC5B2082DE5DB01210148FFF7A0
:100DF00064FD70BD0008014029B1064A92690243B2
:100E0000044B9A6104E0034A92698243014B9A6160
:100E1000704700000010024010B500F035F84FF4A4
:100E2000803000F089F800F0E5F80446012C24D168
:100E30004FF4E011000400F0C3F8002000F070F857
:100E4000A00200F09FF8002000F0A8F80220FFF7B1
:100E500085FC1020FFF774FC012000F0ABF800BF08
:100E6000392000F037F80028FAD0022000F0B6F858
:100E700000BF00F04DF80828FBD1012144F27D00AD
:100E8000FFF7BAFF10BD00000F48006840F00100F6
:100E90000D490860084640680C4908400A49486006
:100EA000084600680A490840074908600846006883
:100EB00020F4802008600846406820F4FE00486066
:100EC0004FF41F0088607047001002400000FFF8D8
:100ED000FFFFF6FE10B501460022002300204A1154
:100EE000012A02D1094C236806E0022A02D1074CEC
:100EF000236A01E0054C636A01F01F02012494405B
:100F00001C400CB1012000E0002010BD0010024088
:100F10000248406800F00C007047000000100240DA
:100F200001460020034A506820F0F000084350605A
:100F300070470000001002401149096821F4803117
:100F40000F4A11601146096821F480211160B0F543
:100F5000803F03D0B0F5802F0ED106E00849096824
:100F600041F48031064A116007E00549096841F4FF
:100F7000A021034A116000E000BF00BF70470000DD
:100F80000010024001460020034A506820F4E0604F
:100F900008435060704700000010024001460020E6
:100FA000034A506820F4605040EAC1005060704726
:100FB00000100240014908667047000000004242EC
:100FC00002460020044B586820F47C1042EA0103DA
:100FD0001843014B58607047001002400146002042
:100FE000034A506820F00300084350607047000037
:100FF0000010024038B5002000900024002500BFFA
:101000003120FFF767FF05460098401C00900098CC
:10101000B0F5A06F01D0002DF2D03120FFF75AFFBC
:1010200008B1012400E00024204638BD10B502209C
:1010300000F00EF8022000F003F800F025F810BDD3
:10104000024909888143014A118070470428004001
:1010500001460020064A12880A40D0B2044A121FF4
:1010600012880A4012B108B1012000E00020704748
:101070000428004010B50120FFF7EAFF0120FFF728
:10108000DFFF00F001F810BD00BF0348008800F04A
:1010900020000028F9D070470428004010B500F067
:1010A00001F810BD0CB50020019000903348006895
:1010B00040F480303149086000BF3048006800F4D7
:1010C000003000900198401C0190009818B90198D8
:1010D000B0F5A06FF1D12948006800F4003010B1DC
:1010E0000120009001E0002000900098012843D1E9
:1010F0002348006840F01000214908600846006855
:1011000020F0030008600846006840F00200086014
:101110001A484068194948600846406848600846CF
:10112000406840F4806048600846406820F47C10C5
:1011300048600846406840F4E81048600846006887
:1011400040F08070086000BF0C48006800F000703C
:101150000028F9D00948406820F00300074948609A
:101160000846406840F00200486000BF03484068FD
:1011700000F00C000828F9D10CBD0000001002405E
:101180000020024010B51348006840F001001149EA
:10119000086008464068104908400E494860084603
:1011A00000680E4908400B4908600846006820F4B2
:1011B000802008600846406820F4FE0048604FF434
:1011C0001F008860FFF76AFF4FF000600449086065
:1011D00010BD0000001002400000FFF8FFFFF6FE07
:1011E00008ED00E010B50121880700F00EF830B1DD
:1011F0000120034908700121800700F003F810BDA9
:101200000F000020CA430282704730B5024600201A
:1012100000230024158A05EA0103958905EA0104E3
:1012200013B10CB1012000E0002030BD10B540F238
:1012300025511D4800F046F8002833D01A4800F028
:101240006BF81A490870012019490870174800788E
:101250000D2803D101201749087023E013480078B6
:101260000A2810D11348007868B100201249134AA7
:101270001278885401201249087000200F49087024
:101280000C4908700EE00D4800781F280ADA07485C
:1012900000780949094A1278885408480078401CA7
:1012A0000649087010BD000000380140070000200A
:1012B000060000200E0000204C1400200400002036
:1012C0000500002070B50246002400230025002000
:1012D00040F66A16B14200D100BFC1F3421501F0D9
:1012E0001F03012606FA03F3012D02D1968933402C
:1012F00006E0022D02D1168A334001E0968A33407F
:101300000C12012606FA04F41688344013B10CB10D
:10131000012000E0002070BD01468888C0F308006D
:101320007047000010B50446FFF7D0FA00200D49C1
:1013300008600D49C1F8A8010C49086021460C4815
:10134000FFF7BDFA01200B49C1F884010A20FEF71E
:10135000B5FF0020034908604FF6FF710448FFF70E
:10136000AEFA10BD8481214200802342A481234231
:10137000002001400080214200BF7047FFF74CFD74
:10138000FFF728FBFFF7C4FB0020FFF77FFB0020DF
:10139000FFF78AFB06E004A0C2B21023194608201A
:1013A000FFF776FCF7E700006466646666666473C0
:1013B00066000000D4130008000000204C14000058
:1013C0006C0100088C1500084C140020CC0B0000A8
:1013D000C801000801161BF010012AFF0552F01B7E
:1013E0000F04012AFF05320F18094040405F555590
:1013F0005575041A5F0C1911180C200F09498979C9
:101400000909090F200F112FFE02424ACA4A03346C
:101410004202FE400EFF40504C4340404F50505C53
:1014200040FF1BF888012AFF0552F81B1F08012AFC
:101430007F10149F80F03B8082016009E2A2928AB3
:10144000868280808440807F172424A4FEA3221BF0
:1014500022CC5A4115080601FF2A019E1604FF02FC
:10146000020239BC5B900863120810100444827FAA
:1014700001808040432C102846818019281E84E476
:101480003C2724011AE40C11140402011AFFBD19AF
:10149000C4496415FE225A862BFE920129BF111DF4
:1014A000FF040807C51F20030C142241E1178040E8
:1014B000201806802D071820409E1201100B207066
:1014C00028262120202438602301013B10123C3DB6
:1014D0009212120240211A3F948B103FC54BC080DC
:1014E000014BFC84080336C0C03CFF7F40014AFF2B
:1014F000075B40FF600138034A7F700373FCF86CA0
:10150000FFFE02018BFFFF0B0268036C1F1F04012B
:101510007BFFFF0B02741F038C7F3F07FFF8F8F07F
:10152000F0702001E60214801AFF0109122C091341
:101530002D01FF01C0EDFFFFFE06011AFF01F915A5
:10154000391603FF070201D10C12FFFFFF14091027
:101550001509151601FF01C1EDFFFFFF1801191450
:10156000091015391601FF01D204120201011AFFF8
:1015700001011209122A01FF01D71AFF0101FF011F
:0C158000FD05FF1F1F0F0F01E000000021
:0400000508000131BD
:00000001FF
