:020000040800F2
:1000000070070020E1010008E9010008EB01000889
:10001000ED010008EF010008F101000800000000F8
:10002000000000000000000000000000F3010008D4
:10003000F501000800000000F7010008F9010008C0
:10004000FB010008FB010008FB0100086912000821
:10005000FB010008FB010008ED060008FB01000899
:10006000FB010008FB01000821070008FB01000854
:10007000FB010008FB010008FB010008FB01000870
:10008000FB010008FB010008FB010008FB01000860
:10009000FB010008FB010008FB0100081D08000827
:1000A000FB010008FB010008FB010008FB01000840
:1000B000FB010008FB010008FB010008FB01000830
:1000C000FB010008FB010008FB010008FB01000820
:1000D000FB010008D9130008FB010008FB01000820
:1000E000FB01000821120008FB010008FB010008C9
:1000F000FB010008FB010008FB010008FB010008F0
:10010000FB010008FB010008FB010008FB010008DF
:10011000FB010008FB010008FB010008FB010008CF
:10012000FB010008FB010008FB010008FB010008BF
:1001300000F002F800F045F80AA090E8000C8244B4
:100140008344AAF10107DA4501D100F03AF8AFF291
:10015000090EBAE80F0013F0010F18BFFB1A43F0A5
:100160000103184784160000A4160000103A24BFAB
:1001700078C878C1FAD8520724BF30C830C144BF0C
:1001800004680C607047000000230024002500264E
:10019000103A28BF78C1FBD8520728BF30C148BFEA
:1001A0000B607047642900F07380782900F0D780D5
:1001B000732900F03F82002070471FB51FBD10B5A6
:1001C00010BD00F051FA1146FFF7F7FF01F084FA75
:1001D00000F06FFA03B4FFF7F2FF03BC01F06CFA12
:1001E0000948804709480047FEE7FEE7FEE7FEE7CB
:1001F000FEE7FEE7FEE7FEE7FEE7FEE70448054907
:10020000054A064B704700007913000831010008C9
:100210007001002070070020700300207003002090
:10022000704700000FB4044910B503AA029800F00B
:1002300005FA10BC5DF814FB1C00002070B50C46DC
:100240000546012A05D02878800600D5EA690023F2
:1002500002E0012305E05B1C934202D2E05C00282F
:10026000F9D1A869E618C01AA861286A184428625A
:100270002846AFF3008004E0D5E9012114F8010B12
:100280009047B442F8D32846AFF3008070BD000019
:100290002DE9F0410646002410687529314616A55F
:1002A00010D0AFF30080002802DA404213A507E027
:1002B00031688A0701D512A502E0490704D511A5C6
:1002C000012401E0AFF3008000210A2206F1240797
:1002D00009E0B0FBF2FCB0FBF2F302FB1C00303093
:1002E00078541846491C0028F3D123462A46304644
:1002F000BDE8F04100F01AB9000000002D00000038
:100300002B00000020000000F0B40D460188090514
:1003100002D5214C7C4402E01F4C7C440E34002169
:1003200000F1240608E002F00F071209E75D42EA37
:1003300003721B097754491C52EA0307F3D1027870
:100340000023120704D5702D06D009B10223113401
:100350002246F0BC00F0EAB801231034F8E770B58B
:1003600004460D4621461068AFF300800246294638
:100370002046BDE870400023C6E7D21D22F00703E7
:10038000D3E90023C0E70368126843F02003036049
:100390000823C3610023B7E7941400002DE9F05F40
:1003A000894604464FF0000ADFF874B1FB44C0F8F8
:1003B00020A02046E1688847002874D0252806D070
:1003C000D4E901219047206A401C2062F1E7002611
:1003D0005F462046E16888472028054607DB312D27
:1003E00005D2781910F8200C08B10643F1E7B007E0
:1003F00001D526F00406C4F81CA00027C4F818A0F4
:100400002A2D09D0284601F050F938B304EB8708AB
:10041000303DC8F8185019E059F8041B204604EB89
:1004200087029161E1688847012F054618D1E0698C
:10043000002820DA26F020061DE0D8F8180000EB8E
:10044000800005EB40003038C8F818002046E1680D
:100450008847054601F029F90028EED1012F0AD07E
:100460002E2D08D12046E16888477F1C0546022FC3
:1004700046F02006C4DBA069002803DA404246F0BB
:100480000106A061F00701D026F010066C2D0BD0FC
:10049000682D09D04C2D39D06A2D35D0742D35D02A
:1004A0007A2D33D016E038E0E1682F4620468847A1
:1004B000B842054609D16C2F26D04FF48060E16820
:1004C000064320468847054604E06C2F1AD04FF4B7
:1004D000807006430DB3A5F14100192802D82035DC
:1004E00046F400664A462946204626604E46FFF7F7
:1004F00059FE80B101280BD0F61D26F0070000F14F
:10050000080956E74020E4E78020D8E70020D6E736
:1005100006F104094DE7284652E7206ABDE8F09F3E
:100520002414000070477047704770472DE9F0476A
:100530000D4699469246044600F124080168880653
:1005400004D5E06921F01001216000E00120A842FB
:1005500001DD471B00E00027A1697A1902EB0900C1
:10056000081AA0612078C00602D42046AFF30080AC
:10057000002608E0D4E901211AF806009047206A15
:10058000401C761C20624E45F4DB2078C0060AD55C
:100590002046AFF3008006E0D4E9012130209047E7
:1005A000206A401C2062381EA7F10107F4DC07E036
:1005B000D4E9012118F805009047206A401C206208
:1005C000281EA5F10105F3DC2046AFF3008020785A
:1005D000000602D50220BDE8F0870120FBE70000FD
:1005E00001694A1C02610878704700B58FB0CDE9F7
:1005F00001310021059105497944CDE903101146E7
:100600006846FFF7CBFE0FB000BD0000E5FFFFFF1F
:1006100010B5436913B1AFF3008001E0FFF70EFEA0
:10062000012010BD127800F124010A7000224A70E6
:100630000122EDE711684FF0FF32E9E7074B70B593
:100640000D467B44FFF7D1FF0446284600F008F82A
:1006500010B14FF0FF3070BD204670BD7710000024
:10066000007B00F080007047754600F02BF8AE4626
:1006700005006946534620F00700854618B020B5AE
:10068000FFF7BCFDBDE820404FF000064FF000072B
:100690004FF000084FF0000B21F00701AC46ACE82A
:1006A000C009ACE8C009ACE8C009ACE8C0098D4697
:1006B000704710B50446AFF300802046BDE81040F7
:1006C000FFF788BD004870470C010020002109E0B9
:1006D000002201E0531C9AB241F63B739A42F9DBC7
:1006E0004A1C91B28142F3DB7047000010B5012033
:1006F00000F01AFA80B14FF40051084800F03BFBBB
:10070000C0F10100C4B222464FF40051034800F08A
:100710003DFB012000F002FA10BD00000010014076
:1007200038B5002500241020ADF8000014208DF805
:10073000030003208DF802006946364800F08CFA69
:100740000F20ADF8000048208DF8030003208DF83D
:10075000020069462F4800F07FFA4FF6EF712D48EE
:1007600000F012FB0A20FFF7B1FF2A4800F0FFFA61
:1007700000F00F000F282CD0264800F0F8FA00F007
:100780000F0504E00A20FFF7A1FF601CC4B2214856
:1007900000F0EDFA00F00F000F2801D0322CF1DD4F
:1007A000072D11D00B2D0BD00D2D05D00E2D0FD1F7
:1007B0000120194908700BE005201749087007E06F
:1007C00009201549087003E00D201349087000BF87
:1007D00000BF0F20ADF8000014208DF803000320A7
:1007E0008DF8020069460B4800F036FAF020ADF8AB
:1007F000000048208DF803006946064800F02CFAF6
:100800004FF6F071034800F0BFFA102000F086F9AF
:1008100038BD0000001001401400002038B5202031
:1008200000F082F9002878D02020ADF800001420D4
:100830008DF8030003208DF802006946B54800F0EA
:100840000BFA0F20ADF8000048208DF803000320BC
:100850008DF802006946AF4800F0FEF94FF6DF71EF
:10086000AC4800F091FA0A20FFF730FFA94800F0E9
:100870007EFA00F00F000F282FD000250024A54895
:1008800000F075FA00F00F0504E00A20FFF71EFFE4
:10089000601CC4B29F4800F06AFA00F00F000F28F5
:1008A00001D0322CF1DD072D11D00B2D0BD00D2DE9
:1008B00005D00E2D0FD10220974908700BE00620BD
:1008C0009549087007E00A209349087003E00E205C
:1008D0009149087000BF00BF00BF0F20ADF80000B5
:1008E00014208DF8030003208DF802006946894822
:1008F00000F0B2F9F020ADF8000048208DF80300B8
:100900006946844800F0A8F94FF6F071814800F07C
:100910003BFA202000F002F900BF402000F004F96B
:10092000002878D04020ADF8000014208DF8030096
:1009300003208DF802006946764800F08DF90F20FB
:10094000ADF8000048208DF8030003208DF8020068
:100950006946704800F080F94FF6BF716D4800F0AD
:1009600013FA0A20FFF7B2FE6A4800F000FA00F01E
:100970000F000F282FD000250024664800F0F7F95B
:1009800000F00F0504E00A20FFF7A0FE601CC4B2CF
:10099000604800F0ECF900F00F000F2801D0322C75
:1009A000F1DD072D11D00B2D0BD00D2D05D00E2D07
:1009B0000FD10320584908700BE0072056490870F2
:1009C00007E00B205449087003E00F2052490870DB
:1009D00000BF00BF00BF0F20ADF8000014208DF84D
:1009E000030003208DF8020069464A4800F034F9FC
:1009F000F020ADF8000048208DF803006946454816
:100A000000F02AF94FF6F071424800F0BDF940209D
:100A100000F084F800BF802000F086F8002878D02D
:100A20008020ADF8000014208DF8030003208DF81D
:100A300002006946374800F00FF90F20ADF80000BA
:100A400048208DF8030003208DF8020069463148E4
:100A500000F002F94FF67F712E4800F095F90A2058
:100A6000FFF734FE2B4800F082F900F00F000F284A
:100A70002FD000250024274800F079F900F00F0559
:100A800004E00A20FFF722FE601CC4B2214800F0F7
:100A90006EF900F00F000F2801D0322CF1DD072D88
:100AA00011D00B2D0BD00D2D05D00E2D0FD1042004
:100AB000194908700BE008201749087007E00C205E
:100AC0001549087003E010201349087000BF00BFEB
:100AD00000BF0F20ADF8000014208DF803000320A4
:100AE0008DF8020069460B4800F0B6F8F020ADF82A
:100AF000000048208DF803006946064800F0ACF875
:100B00004FF6F071034800F03FF9802000F006F83E
:100B100000BF38BD001001401400002001490860EA
:100B20007047000014040140014600200022074BDA
:100B30001B6803EA0102054B14331B680B4013B119
:100B40000AB1012000E000207047000000040140CD
:100B5000002123498279002A3AD00A4612680368A4
:100B60009A430B461A600A1D126803689A430B1DCC
:100B70001A60027911440A6803681A430A60184A25
:100B80000832126803689A43154B08331A601A1D1D
:100B9000126803689A43124B0C331A604279102A88
:100BA0000ED11A1F126803681A430D4B08331A60DE
:100BB0001A1D126803681A43094B0C331A600DE0C2
:100BC0000749427911440A6803681A430A6005E03C
:100BD000027911440A6803689A430A60704700006A
:100BE000000401400549096821F01001034A116021
:100BF000114609680143116070470000002002405F
:100C000001460020034A106800F0380008431060D5
:100C1000704700000020024030B500228B071C0FF7
:100C20000F2303FA04F20B4B8C1053F82430934338
:100C3000084C8D1044F8253023468C1053F824308E
:100C40008C07240F00FA04F42343024C8D1044F85F
:100C5000253030BD080001402DE9F0410246002555
:100C60000026002000230024002791F803C00CF088
:100C70000F0591F803C00CF0100CBCF1000F03D06D
:100C800091F802C04CEA050591F800C0BCF1000FD4
:100C900031D0146800202BE04FF0010C0CFA00F367
:100CA000B1F800C00CEA03069E4220D183004FF049
:100CB0000F0C0CFA03F7BC4305FA03FC4CEA0404DE
:100CC00091F803C0BCF1280F06D14FF0010C0CFACB
:100CD00000FCC2F814C00AE091F803C0BCF1480F50
:100CE00005D14FF0010C0CFA00FCC2F810C0401CFA
:100CF0000828D1D31460B1F800C0BCF1FF0F34DD77
:100D0000546800202EE000F1080C4FF0010808FAAA
:100D10000CF3B1F800C00CEA03069E4221D1830017
:100D20004FF00F0C0CFA03F7BC4305FA03FC4CEA36
:100D3000040491F803C0BCF1280F05D100F1080CA0
:100D400008FA0CF8C2F8148091F803C0BCF1480FFF
:100D500007D100F1080C4FF0010808FA0CF8C2F8AE
:100D60001080401C0828CED35460BDE8F0810146B5
:100D7000886880B2704702460020D3680B400BB1F0
:100D8000012000E000207047C16070470AB1016196
:100D900000E04161704708B54FF4A06000F0B2F880
:100DA0000A208DF8000001208DF8010000208DF848
:100DB000020001208DF80300684600F06BF8172050
:100DC0008DF8000001208DF8010000208DF8020050
:100DD00001208DF80300684600F05CF808BD0000B3
:100DE0000EB50121112000F097F80F20ADF8080092
:100DF00014208DF80B0003208DF80A0002A9244866
:100E0000FFF72AFF00212248FFF7BEFFF020ADF8D0
:100E1000080003208DF80A0048208DF80B0002A975
:100E20001B48FFF719FF4FF6F0711948FFF7ACFFA9
:100E300004210220FFF7F0FE05210220FFF7ECFE5F
:100E400006210220FFF7E8FE07210220FFF7E4FE5B
:100E50001020009000208DF804000C208DF8050073
:100E600001208DF806006846FFF772FEE020009032
:100E700000208DF804000C208DF8050001208DF86D
:100E800006006846FFF764FEFFF785FF0EBD000011
:100E90000010014070B5002100230F22C47804B374
:100EA000154C246804F4E064C4F5E064210AC1F13F
:100EB0000403CA40447804FA03F1847814402143BF
:100EC00009010E4C0678A155047804F01F05012491
:100ED000AC4005786D11AD0005F1E025C5F8004185
:100EE00009E0047804F01F050124AC40044D0678A5
:100EF000761145F8264070BD0CED00E000E400E0FE
:100F000080E100E002490143024A1160704700009D
:100F10000000FA050CED00E029B1064A926902438F
:100F2000044B9A6104E0034A92698243014B9A613F
:100F3000704700000010024010B500F035F84FF483
:100F4000803000F0F3F800F04FF90446012C24D172
:100F50004FF4E011000400F02DF9002000F0DAF861
:100F6000A00200F009F9002000F012F90220FFF7BA
:100F700047FE1020FFF736FE012000F015F900BFF4
:100F8000392000F0A1F80028FAD0022000F020F962
:100F900000BF00F0B7F80828FBD1012144F27D0022
:100FA000FFF7BAFF10BD00000F48006840F00100D5
:100FB0000D490860084640680C4908400A494860E5
:100FC000084600680A490840074908600846006862
:100FD00020F4802008600846406820F4FE00486045
:100FE0004FF41F0088607047001002400000FFF8B7
:100FF000FFFFF6FE30B500210022002400232D4D16
:101000006D6805F00C0121B1042905D0082923D110
:1010100005E0294D056022E0274D05601FE0254DC4
:101020006D6805F47012234D6D6805F48034022557
:1010300005EB92421CB9214D554305600BE01D4D57
:101040006D6805F400351DB11C4D5543056002E087
:10105000194D5543056002E0174D056000BF00BF04
:10106000144D6D6805F0F0010909154D6B5C0568BC
:10107000DD4045600F4D6D6805F4E061090A104DD3
:101080006B5C4568DD4085600A4D6D6805F4605114
:10109000C90A0B4D6B5C4568DD40C560054D6D6848
:1010A00005F44041890B074D6B5CC568B5FBF3F552
:1010B000056130BD0010024000127A0000093D00B9
:1010C000000000201000002010B50146002200237F
:1010D00000204A11012A02D1094C236806E0022AA5
:1010E00002D1074C236A01E0054C636A01F01F023C
:1010F000012494401C400CB1012000E0002010BDF0
:10110000001002400248406800F00C0070470000E8
:101110000010024001460020034A506820F0F00011
:1011200008435060704700000010024011490968F0
:1011300021F480310F4A11601146096821F48021A1
:101140001160B0F5803F03D0B0F5802F0ED106E0DE
:101150000849096841F48031064A116007E00549F1
:10116000096841F4A021034A116000E000BF00BFFC
:10117000704700000010024001460020034A5068FA
:1011800020F4E06008435060704700000010024007
:1011900001460020034A506820F4605040EAC10034
:1011A0005060704700100240014908667047000017
:1011B0000000424202460020044B586820F47C1094
:1011C00042EA01031843014B586070470010024087
:1011D00001460020034A506820F003000843506095
:1011E000704700000010024038B500200090002435
:1011F000002500BF3120FFF767FF05460098401C1F
:1012000000900098B0F5A06F01D0002DF2D03120F1
:10121000FFF75AFF08B1012400E00024204638BD42
:1012200010B5022000F00EF8022000F003F800F0E4
:1012300025F810BD024909888143014A1180704791
:101240000428004001460020064A12880A40D0B215
:10125000044A121F12880A4012B108B1012000E0AE
:10126000002070470428004010B50120FFF7EAFF76
:101270000120FFF7DFFF00F001F810BD00BF0348B9
:10128000008800F020000028F9D0704704280040B2
:1012900010B500F001F810BD0CB5002001900090D1
:1012A0003348006840F480303149086000BF30485E
:1012B000006800F4003000900198401C01900098F4
:1012C00018B90198B0F5A06FF1D12948006800F471
:1012D000003010B10120009001E000200090009843
:1012E000012843D12348006840F0100021490860DC
:1012F0000846006820F0030008600846006840F0D7
:10130000020008601A484068194948600846406869
:1013100048600846406840F480604860084640687D
:1013200020F47C1048600846406840F4E8104860AB
:101330000846006840F08070086000BF0C480068F4
:1013400000F000700028F9D00948406820F0030040
:10135000074948600846406840F00200486000BF06
:101360000348406800F00C000828F9D10CBD0000CB
:10137000001002400020024010B51348006840F001
:1013800001001149086008464068104908400E49AC
:101390004860084600680E4908400B490860084646
:1013A000006820F4802008600846406820F4FE00B1
:1013B00048604FF41F008860FFF76AFF4FF000603D
:1013C0000449086010BD0000001002400000FFF852
:1013D000FFFFF6FE08ED00E010B540F225511D4874
:1013E00000F0A2F8002833D01A4800F059F91A4941
:1013F0000870012019490870174800780D2803D19A
:1014000001201749087023E0134800780A2810D1FA
:101410001348007868B100201249134A12788854A2
:1014200001201249087000200F4908700C4908700B
:101430000EE00D4800781F280ADA074800780949AD
:10144000094A1278885408480078401C06490870F8
:1014500010BD0000003801401B0000201A000020D1
:101460002200002024000020180000201900002085
:1014700010B586B00446012144F20400FFF74CFD8C
:101480004FF40070ADF8140003208DF816001820FA
:101490008DF8170005A91C48FFF7DEFB4FF48060AC
:1014A000ADF8140004208DF8170005A91648FFF7C1
:1014B000D3FB25208DF8000001208DF801008DF868
:1014C00002008DF803006846FFF7E4FC0194002059
:1014D000ADF80800ADF80A00ADF80C00ADF810004A
:1014E0000C20ADF80E0001A9084800F06DF80122AB
:1014F00040F22551054800F041F80121034800F071
:1015000007F806B010BD0000000801400038014097
:1015100021B1828942F40052828104E082894DF631
:10152000FF731A408281704770B502460024002381
:101530000025002040F66A16B14200D100BFC1F379
:10154000421501F01F03012606FA03F3012D02D113
:101550009689334006E0022D02D1168A334001E01D
:10156000968A33400C12012606FA04F41688344099
:1015700013B10CB1012000E0002070BDF0B50346AE
:10158000002400260025002040F66A17B94200D149
:1015900000BF1846C1F3421401F01F06012707FAE5
:1015A00006F5012C01D10C3004E0022C01D11030E1
:1015B00000E014301AB107682F43076002E00768A3
:1015C000AF430760F0BD00002DE9F04786B0054647
:1015D0000E460024A24600BFA1460027B08900B1F4
:1015E00000BF2F462C8A4CF6FF700440F08804435D
:1015F0002C82AC894EF6F3100440B0883189084340
:10160000718908430443AC81AC8A4FF6FF40044023
:10161000B0890443AC8201A8FFF7ECFC1F48874265
:1016200002D1DDF810A001E0DDF80CA0A88900F4DB
:10163000004040B10AEBCA0000EB0A1031684900D3
:10164000B0FBF1F807E00AEBCA0000EB0A103168C2
:101650008900B0FBF1F86420B8FBF0F00401200928
:10166000642101FB1089A88900F4004040B13220B8
:1016700000EBC900B0FBF1F000F00700044308E004
:10168000322000EB09106421B0FBF1F000F00F00F4
:1016900004432C8106B0BDE8F0870000003801400B
:1016A00001468888C0F30800704730380A2801D204
:1016B000012070470020704700BF704700BF054AF7
:1016C000128802F04002002AF9D0C2B2014B1B1D61
:1016D0001A80704700380140FFF72EFCFFF780FBAF
:1016E0004FF41650FFF7C4FE24E013480078012899
:1016F00020D11248007801281CD1114911A0FEF711
:1017000091FD0F4800F03CF80446214611A0FEF779
:1017100089FD002008490870094914A0FEF782FDE0
:101720000748164A1278811810A0FEF77BFD0020AA
:1017300002490870D9E700001A00002019000020B3
:101740002400002066697273745F74696D65203AC5
:1017500025730A00746865206D61785F7265706535
:1017600061745F6C6973743A25640A007365636F12
:101770006E645F74696D653A25780A001800002070
:1017800010B50146002000220B780BE00C789C423B
:1017900005D1541CE2B2824203DD104601E00B7811
:1017A0000122491C0C78002CF0D110BD30313233AD
:1017B0003435363738394142434445464030580085
:1017C00030313233343536373839616263646566B7
:1017D0004030780004000008000000000000000213
:1017E00000010000100000000818000800000020A0
:1017F000240000006C0100082C18000824000020C0
:101800004C070000880100080000000001020304EA
:10181000010203040607080902040608000000008C
:0C182000000000000000000000000000BC
:0400000508000131BD
:00000001FF
