:020000040800F2
:1000000088070020CD010008D5010008D7010008AD
:10001000D9010008DB010008DD0100080000000034
:10002000000000000000000000000000DF010008E8
:10003000E101000800000000E3010008E5010008FC
:10004000E7010008E7010008E70100088111000846
:10005000E7010008E7010008C1030008E701000804
:10006000E7010008E7010008F5030008E7010008C0
:10007000E7010008E7010008E7010008E7010008C0
:10008000E7010008E7010008E7010008E7010008B0
:10009000E7010008E7010008E7010008F104000893
:1000A000E7010008E7010008E7010008E701000890
:1000B00031150008E7010008C9150008E70100082C
:1000C000E7010008E7010008E7010008E701000870
:1000D000E7010008D1190008E7010008E70100085E
:1000E000E701000839110008E7010008E7010008EE
:1000F000E7010008E7010008E7010008E701000840
:10010000E7010008E7010008E7010008E70100082F
:10011000E7010008E7010008E7010008E70100081F
:10012000E7010008E7010008E7010008E70100080F
:1001300000F002F800F03AF80AA090E8000C8244BF
:100140008344AAF10107DA4501D100F02FF8AFF29C
:10015000090EBAE80F0013F0010F18BFFB1A43F0A5
:1001600001031847AC1C0000CC1C0000103A24BF4F
:1001700078C878C1FAD8520724BF30C830C144BF0C
:1001800004680C607047000000230024002500264E
:10019000103A28BF78C1FBD8520728BF30C148BFEA
:1001A0000B6070471FB51FBD10B510BD00F033F8D0
:1001B0001146FFF7F7FF01F0C5FD00F051F803B459
:1001C000FFF7F2FF03BC01F0BBFD000009488047C8
:1001D00009480047FEE7FEE7FEE7FEE7FEE7FEE729
:1001E000FEE7FEE7FEE7FEE704480549054A064B41
:1001F00070470000911200083101000888010020BA
:10020000880700208803002088030020704770477B
:10021000704770477047754600F02CF8AE460500F1
:100220006946534620F00700854618B020B5FFF711
:10023000DBFFBDE820404FF000064FF000074FF015
:1002400000084FF0000B21F00701AC46ACE8C009F4
:10025000ACE8C009ACE8C009ACE8C0098D467047FD
:1002600010B50446AFF300802046BDE81040FFF70C
:10027000A6BF00000048704728010020002109E0C7
:10028000002201E0531C9AB241F63B739A42F9DB1B
:100290004A1C91B28142F3DB704700002DE9FE4316
:1002A00080460E4614461F460A20B4FBF0F100FBC0
:1002B00011408DF804006420B4FBF0F100FB114004
:1002C0000A21B0FBF1F08DF805004FF47A70B4FB11
:1002D000F0F100FB11406421B0FBF1F0C0B28DF8E9
:1002E000060042F21070B4FBF0F100FB11404FF435
:1002F0007A71B0FBF1F0C0B28DF807002B48B4FB67
:10030000F0F100FB114042F21071B0FBF1F0C0B20D
:100310008DF808002648B4FBF0F100FB114023499A
:10032000B0FBF1F0C0B28DF809002248B4FBF0F147
:1003300000FB11401E49B0FBF1F0C0B28DF80A007D
:100340001D48B4FBF0F100FB11401A49B0FBF1F07D
:10035000C0B28DF80B00B8F1010F02D146F0800653
:1003600001E046F0C00600250EE07119491EC8B232
:1003700001F0BCFC791E491B01AA515C3031C8B2A6
:1003800001F090FC681CC5B2BD42EEDB10208DF878
:100390000300FF20ADF8000003208DF8020069463D
:1003A000064800F0C3FABDE8FE830000A086010005
:1003B00040420F008096980000E1F50500200140C2
:1003C00010B5012000F01AFA80B14FF4005108482E
:1003D00000F08DFBC0F10100C4B222464FF4005181
:1003E000034800F091FB012000F002FA10BD00006C
:1003F0000010014038B5002500241020ADF80000A1
:1004000014208DF8030003208DF802006946364859
:1004100000F08CFA0F20ADF8000048208DF80300A2
:1004200003208DF8020069462F4800F07FFA4FF64E
:10043000EF712D4800F066FB0A20FFF71FFF2A48E6
:1004400000F048FB00F00F000F282CD0264800F0E9
:1004500041FB00F00F0504E00A20FFF70FFF601CCE
:10046000C4B2214800F036FB00F00F000F2801D085
:10047000322CF1DD072D11D00B2D0BD00D2D05D019
:100480000E2D0FD10120194908700BE005201749E6
:10049000087007E009201549087003E00D20134992
:1004A000087000BF00BF0F20ADF8000014208DF8C9
:1004B000030003208DF8020069460B4800F036FA6D
:1004C000F020ADF8000048208DF80300694606488A
:1004D00000F02CFA4FF6F071034800F013FB1020E7
:1004E00000F086F938BD0000001001403C000020FB
:1004F00038B5202000F082F9002878D02020ADF80F
:10050000000014208DF8030003208DF802006946D6
:10051000B54800F00BFA0F20ADF8000048208DF828
:10052000030003208DF802006946AF4800F0FEF991
:100530004FF6DF71AC4800F0E5FA0A20FFF79EFEA7
:10054000A94800F0C7FA00F00F000F282FD00025AF
:100550000024A54800F0BEFA00F00F0504E00A20D0
:10056000FFF78CFE601CC4B29F4800F0B3FA00F0A5
:100570000F000F2801D0322CF1DD072D11D00B2DEB
:100580000BD00D2D05D00E2D0FD1022097490870EC
:100590000BE006209549087007E00A20934908708F
:1005A00003E00E209149087000BF00BF00BF0F207C
:1005B000ADF8000014208DF8030003208DF8020030
:1005C0006946894800F0B2F9F020ADF800004820F3
:1005D0008DF803006946844800F0A8F94FF6F071E1
:1005E000814800F08FFA202000F002F900BF40207F
:1005F00000F004F9002878D04020ADF80000142065
:100600008DF8030003208DF802006946764800F05B
:100610008DF90F20ADF8000048208DF8030003206D
:100620008DF802006946704800F080F94FF6BF71FE
:100630006D4800F067FA0A20FFF720FE6A4800F0D4
:1006400049FA00F00F000F282FD00025002466483B
:1006500000F040FA00F00F0504E00A20FFF70EFE5C
:10066000601CC4B2604800F035FA00F00F000F289B
:1006700001D0322CF1DD072D11D00B2D0BD00D2D1B
:1006800005D00E2D0FD10320584908700BE007202C
:100690005649087007E00B205449087003E00F200A
:1006A0005249087000BF00BF00BF0F20ADF8000026
:1006B00014208DF8030003208DF8020069464A4893
:1006C00000F034F9F020ADF8000048208DF8030068
:1006D0006946454800F02AF94FF6F071424800F0AB
:1006E00011FA402000F084F800BF802000F086F866
:1006F000002878D08020ADF8000014208DF8030089
:1007000003208DF802006946374800F00FF90F20EA
:10071000ADF8000048208DF8030003208DF802009A
:100720006946314800F002F94FF67F712E4800F01B
:10073000E9F90A20FFF7A2FD2B4800F0CBF900F001
:100740000F000F282FD000250024274800F0C2F901
:1007500000F00F0504E00A20FFF790FD601CC4B212
:10076000214800F0B7F900F00F000F2801D0322C1B
:10077000F1DD072D11D00B2D0BD00D2D05D00E2D39
:100780000FD10420194908700BE0082017490870A0
:1007900007E00C201549087003E010201349087089
:1007A00000BF00BF00BF0F20ADF8000014208DF87F
:1007B000030003208DF8020069460B4800F0B6F8EC
:1007C000F020ADF8000048208DF803006946064887
:1007D00000F0ACF84FF6F071034800F093F9802078
:1007E00000F006F800BF38BD001001403C000020BA
:1007F00001490860704700001404014001460020D0
:100800000022074B1B6803EA0102054B14331B68E7
:100810000B4013B10AB1012000E000207047000036
:1008200000040140002123498279002A3AD00A4677
:10083000126803689A430B461A600A1D126803681F
:100840009A430B1D1A60027911440A6803681A431F
:100850000A60184A0832126803689A43154B083335
:100860001A601A1D126803689A43124B0C331A60FF
:100870004279102A0ED11A1F126803681A430D4BD1
:1008800008331A601A1D126803681A43094B0C33A7
:100890001A600DE00749427911440A6803681A4357
:1008A0000A6005E0027911440A6803689A430A6005
:1008B00070470000000401400549096821F010015B
:1008C000034A116011460968014311607047000036
:1008D0000020024001460020034A106800F0380062
:1008E00008431060704700000020024030B500222D
:1008F0008B071C0F0F2303FA04F20B4B8C1053F8D9
:1009000024309343084C8D1044F8253023468C1036
:1009100053F824308C07240F00FA04F42343024CCC
:100920008D1044F8253030BD080001402DE9F0411C
:10093000024600250026002000230024002791F80D
:1009400003C00CF00F0591F803C00CF0100CBCF1C3
:10095000000F03D091F802C04CEA050591F800C0E1
:10096000BCF1000F31D0146800202BE04FF0010CD7
:100970000CFA00F3B1F800C00CEA03069E4220D145
:1009800083004FF00F0C0CFA03F7BC4305FA03FC8D
:100990004CEA040491F803C0BCF1280F06D14FF0D3
:1009A000010C0CFA00FCC2F814C00AE091F803C074
:1009B000BCF1480F05D14FF0010C0CFA00FCC2F855
:1009C00010C0401C0828D1D31460B1F800C0BCF19D
:1009D000FF0F34DD546800202EE000F1080C4FF0CA
:1009E000010808FA0CF3B1F800C00CEA03069E42B5
:1009F00021D183004FF00F0C0CFA03F7BC4305FA2A
:100A000003FC4CEA040491F803C0BCF1280F05D1A3
:100A100000F1080C08FA0CF8C2F8148091F803C031
:100A2000BCF1480F07D100F1080C4FF0010808FA9B
:100A30000CF8C2F81080401C0828CED35460BDE8E2
:100A4000F0810000F0B50A460023002400210025B3
:100A500000F00046B6F1004F02D11D4EF16901E0F1
:100A60001B4E7168C0F3034583B200F44016B6F51F
:100A7000401F08D121F07061154E766826F070662F
:100A8000134F7E6012E000F48016B6F5801F06D189
:100A9000032606FA05F4A14341F0706106E0460D15
:100AA000360103FA06F6B14341F0706122B1460DFA
:100AB000360103FA06F6314300F00046B6F1004F66
:100AC00002D1034EF16101E0014E7160F0BD000002
:100AD000000001400146886880B27047024600204D
:100AE00093680B400BB1012000E0002070470246E4
:100AF0000020D3680B400BB1012000E000207047BC
:100B000001617047C16070470AB1016100E0416155
:100B1000704708B54FF4A06000F04AF90A208DF83C
:100B2000000001208DF8010000208DF80200012056
:100B30008DF80300684600F003F917208DF80000D7
:100B400001208DF8010000208DF8020001208DF8B1
:100B50000300684600F0F4F808BD00000EB501215E
:100B6000112000F065F90F20ADF8080014208DF871
:100B70000B0003208DF80A0002A92448FFF7D6FED7
:100B800000212248FFF7BEFFF020ADF80800032047
:100B90008DF80A0048208DF80B0002A91B48FFF7CA
:100BA000C5FE4FF6F0711948FFF7ACFF0421022093
:100BB000FFF79CFE05210220FFF798FE0621022088
:100BC000FFF794FE07210220FFF790FE102000900F
:100BD00000208DF804000C208DF8050001208DF810
:100BE00006006846FFF71EFEE020009000208DF80A
:100BF00004000C208DF8050001208DF806006846E1
:100C0000FFF710FEFFF785FF0EBD0000001001404A
:100C100038B548208DF80300FF20ADF80000694684
:100C20001648FFF783FEFF211448FFF769FF0120F4
:100C30001349086000201349C1F8A401012012499A
:100C4000086000BF01201049086080210B48FFF7B1
:100C500045FF044600200D49C1F88401002CF1D164
:100C600014208DF80300FF20ADF8000003208DF85C
:100C7000020069460148FFF759FE38BD00200140D7
:100C8000A8812342008023428481214200802142A6
:100C900008B501214FF4C47000F0CAF84FF4007099
:100CA000ADF8000010208DF8030003208DF802003D
:100CB00069461648FFF73AFE4FF48060ADF8000031
:100CC00010208DF8030003208DF8020069460F48BC
:100CD000FFF72CFE10208DF803000220ADF8000075
:100CE00003208DF8020069460948FFF71FFE142013
:100CF0008DF80300FF20ADF8000003208DF80200FE
:100D000069460448FFF712FE08BD0000001C0140C0
:100D1000000C01400020014010B5FFF7B9FF38205A
:100D200000F0E4FF082000F0E1FF012000F0DEFF0A
:100D3000062000F0DBFF0C2000F0D8FF10BD000003
:100D400070B5002100230F22C47804B3154C246829
:100D500004F4E064C4F5E064210AC1F10403CA406C
:100D6000447804FA03F184781440214309010E4CBD
:100D70000678A155047804F01F050124AC400578DD
:100D80006D11AD0005F1E025C5F8004109E00478DA
:100D900004F01F050124AC40044D0678761145F897
:100DA000264070BD0CED00E000E400E080E100E0D2
:100DB00002490143024A1160704700000000FA0531
:100DC0000CED00E008B50121052000F031F801210B
:100DD000084600F01DF84FF40040ADF80000182060
:100DE0008DF8030003208DF8020069460548FFF7DF
:100DF0009DFD01210448FFF725FE01210348FFF76F
:100E000021FE08BD00080140000230000003180068
:100E100029B1064AD2690243044BDA6104E0034A6D
:100E2000D2698243014BDA61704700000010024032
:100E300029B1064A92690243044B9A6104E0034ACD
:100E400092698243014B9A61704700000010024092
:100E500010B500F035F84FF4803000F0F3F800F0F2
:100E60004FF90446012C24D14FF4E011000400F0A6
:100E70002DF9002000F0DAF8A00200F009F90020B6
:100E800000F012F90220FFF725FD1020FFF714FDF6
:100E9000012000F015F900BF392000F0A1F800286A
:100EA000FAD0022000F020F900BF00F0B7F80828BF
:100EB000FBD1012144F27D00FFF7BAFF10BD000015
:100EC0000F48006840F001000D490860084640687E
:100ED0000C4908400A494860084600680A49084029
:100EE000074908600846006820F48020086008462A
:100EF000406820F4FE0048604FF41F00886070478F
:100F0000001002400000FFF8FFFFF6FE30B50021A0
:100F10000022002400232D4D6D6805F00C0121B145
:100F2000042905D0082923D105E0294D056022E0D8
:100F3000274D05601FE0254D6D6805F47012234DA7
:100F40006D6805F48034022505EB92421CB9214DF1
:100F5000554305600BE01D4D6D6805F400351DB16E
:100F60001C4D5543056002E0194D5543056002E0F4
:100F7000174D056000BF00BF144D6D6805F0F0010E
:100F80000909154D6B5C0568DD4045600F4D6D68C6
:100F900005F4E061090A104D6B5C4568DD40856031
:100FA0000A4D6D6805F46051C90A0B4D6B5C4568CC
:100FB000DD40C560054D6D6805F44041890B074D66
:100FC0006B5CC568B5FBF3F5056130BD00100240F0
:100FD00000127A0000093D000000002010000020EF
:100FE00010B501460022002300204A11012A02D137
:100FF000094C236806E0022A02D1074C236A01E06B
:10100000054C636A01F01F02012494401C400CB19E
:10101000012000E0002010BD00100240024840689E
:1010200000F00C0070470000001002400146002054
:10103000034A506820F0F0000843506070470000F9
:10104000001002401149096821F480310F4A1160F3
:101050001146096821F480211160B0F5803F03D06A
:10106000B0F5802F0ED106E00849096841F48031BF
:10107000064A116007E00549096841F4A021034AC6
:10108000116000E000BF00BF704700000010024088
:1010900001460020034A506820F4E0600843506095
:1010A000704700000010024001460020034A5068CB
:1010B00020F4605040EAC1005060704700100240C8
:1010C00001490866704700000000424202460020C5
:1010D000044B586820F47C1042EA01031843014B8A
:1010E000586070470010024001460020034A5068D3
:1010F00020F00300084350607047000000100240D9
:1011000038B5002000900024002500BF3120FFF7F3
:1011100067FF05460098401C00900098B0F5A06F4E
:1011200001D0002DF2D03120FFF75AFF08B1012481
:1011300000E00024204638BD10B5022000F00EF873
:10114000022000F003F800F025F810BD02490988DC
:101150008143014A11807047042800400146002065
:10116000064A12880A40D0B2044A121F12880A4066
:1011700012B108B1012000E00020704704280040AF
:1011800010B50120FFF7EAFF0120FFF7DFFF00F0B5
:1011900001F810BD00BF0348008800F020000028BF
:1011A000F9D070470428004010B500F001F810BDD8
:1011B0000CB50020019000903348006840F4803066
:1011C0003149086000BF3048006800F400300090EA
:1011D0000198401C0190009818B90198B0F5A06FD3
:1011E000F1D12948006800F4003010B101200090CE
:1011F00001E0002000900098012843D123480068B6
:1012000040F01000214908600846006820F0030003
:1012100008600846006840F0020008601A4840680C
:10122000194948600846406848600846406840F4EC
:10123000806048600846406820F47C10486008469A
:10124000406840F4E81048600846006840F080704C
:10125000086000BF0C48006800F000700028F9D05A
:101260000948406820F00300074948600846406884
:1012700040F00200486000BF0348406800F00C00E6
:101280000828F9D10CBD00000010024000200240E7
:1012900010B51348006840F0010011490860084685
:1012A0004068104908400E494860084600680E49E9
:1012B00008400B4908600846006820F48020086058
:1012C0000846406820F4FE0048604FF41F00886024
:1012D000FFF76AFF4FF000600449086010BD00008E
:1012E000001002400000FFF8FFFFF6FE08ED00E0EE
:1012F000F0B50C46154600220021068C4FF6FE770D
:101300003E400684028B018C4FF60C7632407E1CE8
:1013100006EA03162E433243104EB0420ED0104E52
:10132000B0420BD0B0F1804F08D00E4EB04205D085
:101330000D4EB04202D00D4EB04206D14FF6FD76B2
:10134000314044F00106314305E04FF6F576314077
:1013500044F00106314302830184F0BD002C0140BA
:10136000003401400004004000080040000C004030
:10137000F0B50C461546002200210026078C4FF6DA
:10138000EF7C07EA0C070784028B018C4FF6FF778E
:1013900007EA041640F6FF473A404FF6FF7707EAA0
:1013A00003373A434FF6FF7707EA05273A43114FD1
:1013B000B8420ED0104FB8420BD0B0F1804F08D0D9
:1013C0000E4FB84205D00E4FB84202D00D4FB84272
:1013D00006D14FF6DF77394046F01007394305E074
:1013E0004FF65F77394044F0100739430283018498
:1013F000F0BD0000002C014000340140000400401A
:1014000000080040000C0040F0B50C4615460022D4
:1014100000210026078C4FF6FF6C07EA0C070784B3
:10142000828B018C4FF6FF7707EA04264FF60C7784
:101430003A404FF6FF7707EA03172F433A43114F1D
:10144000B8420ED0104FB8420BD0B0F1804F08D048
:101450000E4FB84205D00E4FB84202D00D4FB842E1
:1014600006D14FF6FF57394046F48077394305E0FF
:101470004FF2FF57394044F4807739438283018427
:10148000F0BD0000002C0140003401400004004089
:1014900000080040000C0040F0B50C461546002244
:1014A00000210026078C4EF6FF7C07EA0C07078414
:1014B000828B018C4FF6FF7707EA043640F6FF4730
:1014C0003A404FF6FF7707EA05273A434FF6FF7792
:1014D00007EA03373A43114FB8420ED0104FB842D3
:1014E0000BD0B0F1804F08D00E4FB84205D00E4F50
:1014F000B84202D00D4FB84206D14DF6FF773940C1
:1015000046F48057394305E047F6FF57394044F425
:101510008057394382830184F0BD0000002C0140D4
:10152000003401400004004000080040000C00406E
:1015300010B50121880700F0FCF830B10120034903
:1015400008700121800700F0DFF810BD280000209E
:1015500070B588B004460D461646FFF733FC601E92
:1015600080B2ADF81800681E80B2ADF814000020FB
:10157000ADF81A00ADF8160005A94FF0804000F054
:10158000D5F96020ADF804000120ADF80600642014
:1015900094FBF0F0704380B2ADF80A000020ADF883
:1015A0000C0001A94FF0804000F034F90821C80672
:1015B00000F07CF90121880700F09AF801218807E2
:1015C00000F0A5F808B070BD10B502210F4800F07A
:1015D000B0F840B10D4800F0A6F80D4908600221AE
:1015E0000A4800F091F80421084800F0A2F860B120
:1015F000064800F09BF8074908600846006806495D
:1016000008600421014800F07FF810BD0008004088
:1016100030000020340000203800002000B58BB0DE
:1016200001210420FFF7F4FB01210920FFF700FC52
:101630004020ADF8280028208DF82B0003208DF8DD
:101640002A000AA92848FFF771F91E208DF8240006
:1016500001208DF825008DF826008DF8270009A8B7
:10166000FFF76EFB4FF6FF70ADF81C004720ADF89A
:1016700018000020ADF81E00ADF81A0006A91B489E
:1016800000F054F90020ADF80C00ADF80E00012078
:10169000ADF810000020ADF81200ADF8140003A959
:1016A000124800F057F80420ADF800000220ADF811
:1016B0000200ADF804000020ADF80600ADF8080007
:1016C00069460A4800F046F85021084800F0F7F84B
:1016D00001220621054800F093F80121034800F09B
:1016E00016F80BB000BD0000000C014000080040DF
:1016F00021B1028842F08002028004E002884FF6A5
:101700007F731A4002807047CA430282704721B13A
:10171000028842F00102028004E002884FF6FE7364
:101720001A40028070470146888E70470146088F34
:10173000704730B50246002000230024158A05EAD0
:101740000103958905EA010413B10CB1012000E001
:10175000002030BD70B505460C46244885420ED0A9
:10176000234885420BD0B5F1804F08D021488542EF
:1017700005D02148854202D02048854200D100E0B2
:1017800000BF208850B92389A28861882846FFF7C6
:10179000AFFDE188284600F09DF825E02088042868
:1017A0000AD12389A28861882846FFF7E1FDE188F4
:1017B000284600F098F817E0208808280AD12389E5
:1017C000A28861882846FFF71FFEE188284600F0BE
:1017D00097F809E02389A28861882846FFF75CFE14
:1017E000E188284600F095F870BD0000002C01400B
:1017F000003401400004004000080040000C00409C
:101800001AB183890B43838102E083898B438381EF
:101810007047000070B5002400220023058C4FF6AD
:10182000FE7635400584028C8388048B4FF68F75D5
:101830002C40B51E2C400D882C43751E2A400D8966
:101840002A434D882A43144DA8420BD0134DA84279
:1018500008D0134DA84205D0124DA84202D0124D17
:10186000A84213D14FF6F7752A404D892A434FF607
:10187000FB752A408D882A434FF6FF652B404FF6B3
:10188000FF552B408D892B43CD892B4383800483C7
:10189000CD888586028470BD002C01400034014053
:1018A0000040014000440140004801400A46002138
:1018B000018B4FF6F77319401143018370470A46B5
:1018C000002101894FF68F73194011430181704740
:1018D00081867047028B4FF6F3731A400283028BA6
:1018E0000A4302837047028B4FF2FF331A40028390
:1018F000028B4FF6FF7303EA01231A4302837047FA
:10190000828B4FF6F3731A408283828B0A43828361
:101910007047828B4FF2FF331A408283828B4FF6DF
:10192000FF7303EA01231A4382837047002202886F
:101930001D4B98420ED01D4B98420BD0B0F1804FFA
:1019400008D01B4B984205D01A4B984202D01A4B34
:10195000984204D14FF68F731A404B881A43174BA5
:10196000984207D0164B984204D04FF6FF431A40D6
:10197000CB881A4302808B8883850B8803850A4BAA
:1019800098420BD0094B984208D00E4B984205D094
:101990000D4B984202D00D4B984201D10B7A038631
:1019A0000123838270470000002C01400034014075
:1019B0000004004000080040000C004000100040FF
:1019C0000014004000400140004401400048014034
:1019D00010B540F225511D4800F0A2F8002833D080
:1019E0001A4800F059F91A4908700120194908707D
:1019F000174800780D2803D101201749087023E00B
:101A0000134800780A2810D11348007868B10020E4
:101A10001249134A12788854012012490870002094
:101A20000F4908700C4908700EE00D4800781F2817
:101A30000ADA074800780949094A127888540848A0
:101A40000078401C0649087010BD000000380140B5
:101A50001F0000201E000020260000204000002063
:101A60001C0000201D00002010B586B00446012196
:101A700044F20400FFF7DCF94FF40070ADF81400F5
:101A800003208DF8160018208DF8170005A91C48B2
:101A9000FEF74CFF4FF48060ADF8140004208DF881
:101AA000170005A91648FEF741FF25208DF8000014
:101AB00001208DF801008DF802008DF803006846C2
:101AC000FFF73EF901940020ADF80800ADF80A00D8
:101AD000ADF80C00ADF810000C20ADF80E0001A917
:101AE000084800F06DF8012240F22551054800F049
:101AF00041F80121034800F007F806B010BD0000CE
:101B0000000801400038014021B1828942F40052AE
:101B1000828104E082894DF6FF731A40828170470A
:101B200070B50246002400230025002040F66A1606
:101B3000B14200D100BFC1F3421501F01F030126DD
:101B400006FA03F3012D02D19689334006E0022DF7
:101B500002D1168A334001E0968A33400C120126E6
:101B600006FA04F41688344013B10CB1012000E0E9
:101B7000002070BDF0B5034600240026002500209B
:101B800040F66A17B94200D100BF1846C1F34214AB
:101B900001F01F06012707FA06F5012C01D10C30D0
:101BA00004E0022C01D1103000E014301AB10768B3
:101BB0002F43076002E00768AF430760F0BD0000F5
:101BC0002DE9F04786B005460E460024A24600BF28
:101BD000A1460027B08900B100BF2F462C8A4CF6E1
:101BE000FF700440F08804432C82AC894EF6F31059
:101BF0000440B08831890843718908430443AC81AB
:101C0000AC8A4FF6FF400440B0890443AC8201A87F
:101C1000FFF77CF91F48874202D1DDF810A001E0F0
:101C2000DDF80CA0A88900F4004040B10AEBCA001E
:101C300000EB0A1031684900B0FBF1F807E00AEB4D
:101C4000CA0000EB0A1031688900B0FBF1F864208B
:101C5000B8FBF0F004012009642101FB1089A88978
:101C600000F4004040B1322000EBC900B0FBF1F0BD
:101C700000F00700044308E0322000EB0910642163
:101C8000B0FBF1F000F00F0004432C8106B0BDE87A
:101C9000F08700000038014001468888C0F3080042
:101CA0007047000010B50446FEF7B2FF00200B4954
:101CB00008600B49C1F8A80101200A4908602146C3
:101CC0000948FEF71FFF0120044908600020086052
:101CD0004FF6FF710448FEF715FF10BD84812142C5
:101CE00000802342A48123420020014010B5044615
:101CF000FEF78EFF00200D4908600D49C1F8A801CC
:101D00000C49086021460C48FEF7FCFE01200B49F7
:101D1000C1F884010A20FEF7B1FA002003490860E7
:101D20004FF6FF710448FEF7EDFE10BD848121429D
:101D300000802342A48123420020014000802142F0
:101D400000BF7047FFF784F84FF4E130FFF78CFED7
:101D5000FEF7E2FF03232B48027801210846FEF735
:101D60009DFAFFF72FF8274802784FF4E151C82079
:101D7000FFF7EEFBFFF752FCFEF7F0FE41E02248D2
:101D800000782249087000201F4908701F48007819
:101D9000042819D11B480078401C642801DD642008
:101DA00002E018480078401C1649087003230846D2
:101DB000027801210846FEF771FA124801784FF0C7
:101DC0008040FFF785FD1CE0104800780C2818D1F2
:101DD0000C480078401E002801D5002002E0094888
:101DE0000078401E07490870032308460278012145
:101DF0000846FEF753FA034801784FF08040FFF79A
:101E000067FDBCE7160000203C0000201700002002
:101E1000301E000800000020400000006C01000897
:101E2000701E0008400000204807000088010008DC
:101E30000000000001020304010203040607080970
:101E40000204060800001E00000000000000000060
:101E50000000000000000000000000000000000082
:101E60000000000000000000000000000000000072
:0400000508000131BD
:00000001FF
