:020000040800F2
:1000000058080020CD010008D5010008D7010008DC
:10001000D9010008DB010008DD0100080000000034
:10002000000000000000000000000000DF010008E8
:10003000E101000800000000E3010008E5010008FC
:10004000E7010008E7010008E7010008F1120008D5
:10005000E7010008E701000801030008E7010008C4
:10006000E7010008E701000835030008E701000880
:10007000E7010008E7010008E7010008E7010008C0
:10008000E7010008E7010008E7010008E7010008B0
:10009000E7010008E7010008E70100083104000853
:1000A000E7010008E7010008E7010008E701000890
:1000B00009150008E701000829150008E7010008F4
:1000C000E7010008E7010008E7010008E701000870
:1000D000E7010008B1150008E7010008E701000882
:1000E000E7010008A9120008E7010008E70100087D
:1000F000E7010008E7010008E7010008E701000840
:10010000E7010008E7010008E7010008E70100082F
:10011000E7010008E7010008E7010008E70100081F
:10012000E7010008E7010008E7010008E70100080F
:1001300000F002F800F03AF80AA090E8000C8244BF
:100140008344AAF10107DA4501D100F02FF8AFF29C
:10015000090EBAE80F0013F0010F18BFFB1A43F0A5
:1001600001031847AC1E0000CC1E0000103A24BF4B
:1001700078C878C1FAD8520724BF30C830C144BF0C
:1001800004680C607047000000230024002500264E
:10019000103A28BF78C1FBD8520728BF30C148BFEA
:1001A0000B6070471FB51FBD10B510BD00F065F89E
:1001B0001146FFF7F7FF01F0FDFB00F083F803B4F1
:1001C000FFF7F2FF03BC01F0F3FB00000948804792
:1001D00009480047FEE7FEE7FEE7FEE7FEE7FEE729
:1001E000FEE7FEE7FEE7FEE704480549054A064B41
:1001F00070470000A91400083101000858020020CF
:10020000580800205804002058040020704710B5FA
:10021000203AC0F00B80B1E81850203AA0E81850FE
:10022000B1E81850A0E81850BFF4F5AF5FEA027CBF
:1002300024BFB1E81850A0E8185044BF18C918C02E
:10024000BDE810405FEA827C24BF51F8043B40F8CF
:10025000043B08BF7047D20728BF31F8023B48BFB4
:1002600011F8012B28BF20F8023B48BF00F8012BF2
:1002700070477047704770477047754600F02CF81C
:10028000AE4605006946534620F00700854618B083
:1002900020B5FFF7A9FFBDE820404FF000064FF062
:1002A00000074FF000084FF0000B21F00701AC46AB
:1002B000ACE8C009ACE8C009ACE8C009ACE8C009CA
:1002C0008D46704710B50446AFF300802046BDE868
:1002D0001040FFF774BF000000487047F401002091
:1002E000002109E0002201E0531C9AB241F63B7361
:1002F0009A42F9DB4A1C91B28142F3DB704700005D
:1003000010B5012000F01AFA80B14FF400510848EE
:1003100000F03BFBC0F10100C4B222464FF4005193
:10032000034800F041FB012000F002FA10BD00007C
:100330000010014038B5002500241020ADF8000061
:1003400014208DF8030003208DF80200694636481A
:1003500000F08CFA0F20ADF8000048208DF8030063
:1003600003208DF8020069462F4800F07FFA4FF60F
:10037000EF712D4800F016FB0A20FFF7B1FF2A4865
:1003800000F0FFFA00F00F000F282CD0264800F0F4
:10039000F8FA00F00F0504E00A20FFF7A1FF601C47
:1003A000C4B2214800F0EDFA00F00F000F2801D090
:1003B000322CF1DD072D11D00B2D0BD00D2D05D0DA
:1003C0000E2D0FD10120194908700BE005201749A7
:1003D000087007E009201549087003E00D20134953
:1003E000087000BF00BF0F20ADF8000014208DF88A
:1003F000030003208DF8020069460B4800F036FA2E
:10040000F020ADF8000048208DF80300694606484A
:1004100000F02CFA4FF6F071034800F0C3FA1020F8
:1004200000F086F938BD00000010014040000020B7
:1004300038B5202000F082F9002878D02020ADF8CF
:10044000000014208DF8030003208DF80200694697
:10045000B54800F00BFA0F20ADF8000048208DF8E9
:10046000030003208DF802006946AF4800F0FEF952
:100470004FF6DF71AC4800F095FA0A20FFF730FF25
:10048000A94800F07EFA00F00F000F282FD00025B9
:100490000024A54800F075FA00F00F0504E00A20DA
:1004A000FFF71EFF601CC4B29F4800F06AFA00F01C
:1004B0000F000F2801D0322CF1DD072D11D00B2DAC
:1004C0000BD00D2D05D00E2D0FD1022097490870AD
:1004D0000BE006209549087007E00A209349087050
:1004E00003E00E209149087000BF00BF00BF0F203D
:1004F000ADF8000014208DF8030003208DF80200F1
:100500006946894800F0B2F9F020ADF800004820B3
:100510008DF803006946844800F0A8F94FF6F071A1
:10052000814800F03FFA202000F002F900BF40208F
:1005300000F004F9002878D04020ADF80000142025
:100540008DF8030003208DF802006946764800F01C
:100550008DF90F20ADF8000048208DF8030003202E
:100560008DF802006946704800F080F94FF6BF71BF
:100570006D4800F017FA0A20FFF7B2FE6A4800F053
:1005800000FA00F00F000F282FD000250024664845
:1005900000F0F7F900F00F0504E00A20FFF7A0FED5
:1005A000601CC4B2604800F0ECF900F00F000F28A6
:1005B00001D0322CF1DD072D11D00B2D0BD00D2DDC
:1005C00005D00E2D0FD10320584908700BE00720ED
:1005D0005649087007E00B205449087003E00F20CB
:1005E0005249087000BF00BF00BF0F20ADF80000E7
:1005F00014208DF8030003208DF8020069464A4854
:1006000000F034F9F020ADF8000048208DF8030028
:100610006946454800F02AF94FF6F071424800F06B
:10062000C1F9402000F084F800BF802000F086F877
:10063000002878D08020ADF8000014208DF8030049
:1006400003208DF802006946374800F00FF90F20AB
:10065000ADF8000048208DF8030003208DF802005B
:100660006946314800F002F94FF67F712E4800F0DC
:1006700099F90A20FFF734FE2B4800F082F900F0C8
:100680000F000F282FD000250024274800F079F90B
:1006900000F00F0504E00A20FFF722FE601CC4B240
:1006A000214800F06EF900F00F000F2801D0322C25
:1006B000F1DD072D11D00B2D0BD00D2D05D00E2DFA
:1006C0000FD10420194908700BE008201749087061
:1006D00007E00C201549087003E01020134908704A
:1006E00000BF00BF00BF0F20ADF8000014208DF840
:1006F000030003208DF8020069460B4800F0B6F8AD
:10070000F020ADF8000048208DF803006946064847
:1007100000F0ACF84FF6F071034800F043F9802088
:1007200000F006F800BF38BD001001404000002076
:100730000149086070470000140401400146002090
:100740000022074B1B6803EA0102054B14331B68A8
:100750000B4013B10AB1012000E0002070470000F7
:1007600000040140002123498279002A3AD00A4638
:10077000126803689A430B461A600A1D12680368E0
:100780009A430B1D1A60027911440A6803681A43E0
:100790000A60184A0832126803689A43154B0833F6
:1007A0001A601A1D126803689A43124B0C331A60C0
:1007B0004279102A0ED11A1F126803681A430D4B92
:1007C00008331A601A1D126803681A43094B0C3368
:1007D0001A600DE00749427911440A6803681A4318
:1007E0000A6005E0027911440A6803689A430A60C6
:1007F00070470000000401400549096821F010011C
:10080000034A1160114609680143116070470000F6
:100810000020024001460020034A106800F0380022
:1008200008431060704700000020024030B50022ED
:100830008B071C0F0F2303FA04F20B4B8C1053F899
:1008400024309343084C8D1044F8253023468C10F7
:1008500053F824308C07240F00FA04F42343024C8D
:100860008D1044F8253030BD080001402DE9F041DD
:10087000024600250026002000230024002791F8CE
:1008800003C00CF00F0591F803C00CF0100CBCF184
:10089000000F03D091F802C04CEA050591F800C0A2
:1008A000BCF1000F31D0146800202BE04FF0010C98
:1008B0000CFA00F3B1F800C00CEA03069E4220D106
:1008C00083004FF00F0C0CFA03F7BC4305FA03FC4E
:1008D0004CEA040491F803C0BCF1280F06D14FF094
:1008E000010C0CFA00FCC2F814C00AE091F803C035
:1008F000BCF1480F05D14FF0010C0CFA00FCC2F816
:1009000010C0401C0828D1D31460B1F800C0BCF15D
:10091000FF0F34DD546800202EE000F1080C4FF08A
:10092000010808FA0CF3B1F800C00CEA03069E4275
:1009300021D183004FF00F0C0CFA03F7BC4305FAEA
:1009400003FC4CEA040491F803C0BCF1280F05D164
:1009500000F1080C08FA0CF8C2F8148091F803C0F2
:10096000BCF1480F07D100F1080C4FF0010808FA5C
:100970000CF8C2F81080401C0828CED35460BDE8A3
:10098000F0810146886880B2704702460020D36833
:100990000B400BB1012000E000207047416170471F
:1009A00001617047C16070470AB1016100E04161B7
:1009B000704700001FB500F043F80020ADF80400B8
:1009C0004BF6FF70ADF80600C020ADF808004FF4FC
:1009D0008060ADF80A000001ADF80C0005480090F9
:1009E0006946054800F05EF80121034800F01BF855
:1009F0001FBD0000400D03000054004070B50246CA
:100A00000024002500230020958A138B1B0445EA4F
:100A1000030626F07F4404EA01068E4201D101203C
:100A200000E0002070BD21B1028842F00102028086
:100A300004E002884FF6FE731A40028070470000FF
:100A400008B501211C2000F0ABFA0121480500F097
:100A500097FAC020ADF800001C208DF80300032099
:100A60008DF8020069460248FFF700FF08BD00004C
:100A7000000C014021B1028842F48072028004E03F
:100A800002884FF6FF631A400280704721B1028846
:100A900042F40072028004E002884FF6FF531A40CD
:100AA000028070472DE9F04385B004460D460026CC
:100AB000B1460427DFF8CC80A6884FF6C070064008
:100AC000684600F0DBFADDF808802F48B8FBF0F04C
:100AD0001FFA80F946EA0906A68020884FF6FE71C3
:100AE0000840208000262949286888420CD82868B8
:100AF0004000B8FBF0F087B2042F00DA04273E4331
:100B000009F10100208427E0E8884BF6FF71884254
:100B100006D1286800EB4000B8FBF0F087B209E08E
:100B2000286800EBC00101EB0010B8FBF0F087B2C1
:100B300047F48047C7F30B0008B947F0010747F4B3
:100B4000004006434FF4967009FB00F04FF47A71B1
:100B500090FBF1F0401C2084A683208840F0010027
:100B6000208026884FF6F5300640A888698908431A
:100B700006432680A88929890843208105B0BDE85D
:100B8000F083000000127A0040420F00A0860100AE
:100B900070B504460E46154601211948FFF76AFF55
:100BA00000BF18491648FFF729FF0028F9D0002296
:100BB0002146134800F072F800BF13491048FFF7B0
:100BC0001DFF0028F9D031460D4800F070F800BF35
:100BD0000D49891C0A48FFF711FF0028F8D0294663
:100BE000074800F064F800BF0749891C0448FFF774
:100BF00005FF0028F8D001210148FFF747FF70BD2D
:100C00000054004001000300820007002DE9F0417C
:100C100005460F4614461E4601211D48FFF72AFFD0
:100C200000BF1C491A48FFF7E9FE0028F9D000224E
:100C30002946174800F032F800BF17491448FFF75B
:100C4000DDFE0028F9D03946114800F030F800BF29
:100C50001149891C0E48FFF7D1FE0028F8D00CE09E
:100C600021780B4800F023F8641C00BF0A49891C56
:100C70000748FFF7C3FE0028F8D0301EA6F1010197
:100C80008EB2EDD101210248FFF700FFBDE8F081EF
:100C900000540040010003008200070012B141F03F
:100CA000010102E04FF6FE73194001827047018294
:100CB000704708B54FF4A06000F0B2F80A208DF834
:100CC000000001208DF8010000208DF802000120B5
:100CD0008DF80300684600F06BF817208DF80000CF
:100CE00001208DF8010000208DF8020001208DF810
:100CF0000300684600F05CF808BD00000EB5012155
:100D0000112000F04DF90F20ADF8080014208DF8E7
:100D10000B0003208DF80A0002A92448FFF7A6FD66
:100D200000212248FFF73EFEF020ADF80800032026
:100D30008DF80A0048208DF80B0002A91B48FFF728
:100D400095FD4FF6F0711948FFF72CFE04210220A3
:100D5000FFF76CFD05210220FFF768FD0621022048
:100D6000FFF764FD07210220FFF760FD10200090CF
:100D700000208DF804000C208DF8050001208DF86E
:100D800006006846FFF7EEFCE020009000208DF89A
:100D900004000C208DF8050001208DF8060068463F
:100DA000FFF7E0FCFFF785FF0EBD000000100140DB
:100DB00070B5002100230F22C47804B3154C2468B9
:100DC00004F4E064C4F5E064210AC1F10403CA40FC
:100DD000447804FA03F184781440214309010E4C4D
:100DE0000678A155047804F01F050124AC4005786D
:100DF0006D11AD0005F1E025C5F8004109E004786A
:100E000004F01F050124AC40044D0678761145F826
:100E1000264070BD0CED00E000E400E080E100E061
:100E200002490143024A1160704700000000FA05C0
:100E30000CED00E010B5FFF7BDFD00F075F800F017
:100E400051F800F07FF810BD2DE9F04705460C463B
:100E500016464FF0000AA01CC4B2D1463AE005F194
:100E6000B000C2B200217820FFF792FE2746E017BB
:100E700004EB107000111030C2B200217820FFF78F
:100E800087FEE01704EB10700011A4EB0010C2B253
:100E900000217820FFF77CFE4FF0000811E00AEBFC
:100EA0000610A0F500700E490A5C40217820FFF77B
:100EB0006FFE0AF1010000F0FF0A08F1010000F0E6
:100EC000FF08B8F1080FEADB681CC5B209F10100A0
:100ED00000F0FF09B9F1020FC1DBBDE8F0870000A7
:100EE000101A000870B5B0241BE0224600217820BB
:100EF000FFF74EFE102200217820FFF749FE002266
:100F000011467820FFF744FE002506E0002240212C
:100F10007820FFF73DFE681CC5B2842DF6DB601C0F
:100F2000C4B2B82CE1DB70BD08B505A00068009024
:100F300003236A4600217820FFF768FE08BD000001
:100F4000AE8D100000B587B01C2206A16846FFF7E1
:100F50005EF91C236A4600217820FFF757FE07B090
:100F600000BD0000AE0010D580A83FD300B0408D7A
:100F700014A1C8DA1281FFD9F1DB302000A4A6AF9A
:100F800029B1064AD2690243044BDA6104E0034AFC
:100F9000D2698243014BDA617047000000100240C1
:100FA00029B1064A92690243044B9A6104E0034A5C
:100FB00092698243014B9A61704700000010024021
:100FC00010B500F035F84FF4803000F0F3F800F081
:100FD0004FF90446012C24D14FF4E011000400F035
:100FE0002DF9002000F0DAF8A00200F009F9002045
:100FF00000F012F90220FFF70DFC1020FFF7FCFBB8
:10100000012000F015F900BF392000F0A1F80028F8
:10101000FAD0022000F020F900BF00F0B7F808284D
:10102000FBD1012144F27D00FFF7BAFF10BD0000A3
:101030000F48006840F001000D490860084640680C
:101040000C4908400A494860084600680A490840B7
:10105000074908600846006820F4802008600846B8
:10106000406820F4FE0048604FF41F00886070471D
:10107000001002400000FFF8FFFFF6FE30B500212F
:101080000022002400232D4D6D6805F00C0121B1D4
:10109000042905D0082923D105E0294D056022E067
:1010A000274D05601FE0254D6D6805F47012234D36
:1010B0006D6805F48034022505EB92421CB9214D80
:1010C000554305600BE01D4D6D6805F400351DB1FD
:1010D0001C4D5543056002E0194D5543056002E083
:1010E000174D056000BF00BF144D6D6805F0F0019D
:1010F0000909154D6B5C0568DD4045600F4D6D6855
:1011000005F4E061090A104D6B5C4568DD408560BF
:101110000A4D6D6805F46051C90A0B4D6B5C45685A
:10112000DD40C560054D6D6805F44041890B074DF4
:101130006B5CC568B5FBF3F5056130BD001002407E
:1011400000127A0000093D0000000020100000207D
:1011500010B501460022002300204A11012A02D1C5
:10116000094C236806E0022A02D1074C236A01E0F9
:10117000054C636A01F01F02012494401C400CB12D
:10118000012000E0002010BD00100240024840682D
:1011900000F00C00704700000010024001460020E3
:1011A000034A506820F0F000084350607047000088
:1011B000001002401149096821F480310F4A116082
:1011C0001146096821F480211160B0F5803F03D0F9
:1011D000B0F5802F0ED106E00849096841F480314E
:1011E000064A116007E00549096841F4A021034A55
:1011F000116000E000BF00BF704700000010024017
:1012000001460020034A506820F4E0600843506023
:10121000704700000010024001460020034A506859
:1012200020F4605040EAC100506070470010024056
:101230000149086670470000000042420246002053
:10124000044B586820F47C1042EA01031843014B18
:10125000586070470010024001460020034A506861
:1012600020F0030008435060704700000010024067
:1012700038B5002000900024002500BF3120FFF782
:1012800067FF05460098401C00900098B0F5A06FDD
:1012900001D0002DF2D03120FFF75AFF08B1012410
:1012A00000E00024204638BD10B5022000F00EF802
:1012B000022000F003F800F025F810BD024909886B
:1012C0008143014A118070470428004001460020F4
:1012D000064A12880A40D0B2044A121F12880A40F5
:1012E00012B108B1012000E000207047042800403E
:1012F00010B50120FFF7EAFF0120FFF7DFFF00F044
:1013000001F810BD00BF0348008800F0200000284D
:10131000F9D070470428004021B1028842F0400211
:10132000028004E002884FF6BF731A4002807047C3
:101330000246002013890B400BB1012000E0002081
:1013400070470146888970478181704710B5002237
:10135000028802F441520B884C8823438C88234333
:10136000CC8823430C8923434C8923438C89234312
:10137000CC8923431A430280838B4FF2FF742340AE
:1013800083830B8A038210BD10B5044600BF02217F
:101390000A48FFF7CDFF0028F9D021460748FFF79C
:1013A000D3FF00BF01210548FFF7C2FF0028F9D095
:1013B0000248FFF7C6FFC0B210BD00000038004071
:1013C00010B500F001F810BD0CB5002001900090A0
:1013D0003348006840F480303149086000BF30482D
:1013E000006800F4003000900198401C01900098C3
:1013F00018B90198B0F5A06FF1D12948006800F440
:10140000003010B10120009001E000200090009811
:10141000012843D12348006840F0100021490860AA
:101420000846006820F0030008600846006840F0A5
:10143000020008601A484068194948600846406838
:1014400048600846406840F480604860084640684C
:1014500020F47C1048600846406840F4E81048607A
:101460000846006840F08070086000BF0C480068C3
:1014700000F000700028F9D00948406820F003000F
:10148000074948600846406840F00200486000BFD5
:101490000348406800F00C000828F9D10CBD00009A
:1014A000001002400020024010B51348006840F0D0
:1014B00001001149086008464068104908400E497B
:1014C0004860084600680E4908400B490860084615
:1014D000006820F4802008600846406820F4FE0080
:1014E00048604FF41F008860FFF76AFF4FF000600C
:1014F0000449086010BD0000001002400000FFF821
:10150000FFFFF6FE08ED00E010B50121880700F0AE
:101510003EF830B10120034908700121800700F036
:101520002DF810BD2C00002010B502210F4800F04E
:101530002EF840B10D4800F024F80D490860022152
:101540000A4800F01BF80421084800F020F860B1B8
:10155000064800F019F8074908600846006806497F
:1015600008600421014800F009F810BD000800409F
:1015700034000020380000203C000020CA430282D2
:1015800070470146888E70470146088F704730B516
:101590000246002000230024158A05EA01039589EC
:1015A00005EA010413B10CB1012000E0002030BDB8
:1015B00010B540F225511D4800F0A2F8002833D0A4
:1015C0001A4800F059F91A490870012019490870A1
:1015D000174800780D2803D101201749087023E02F
:1015E000134800780A2810D11348007868B1002009
:1015F0001249134A127888540120124908700020B9
:101600000F4908700C4908700EE00D4800781F283B
:101610000ADA074800780949094A127888540848C4
:101620000078401C0649087010BD000000380140D9
:101630001F0000201E000020280000204400002081
:101640001C0000201D00002010B586B004460121BA
:1016500044F20400FFF7A4FC4FF40070ADF814004E
:1016600003208DF8160018208DF8170005A91C48D6
:10167000FFF7FCF84FF48060ADF8140004208DF8FB
:10168000170005A91648FFF7F1F825208DF800008E
:1016900001208DF801008DF802008DF803006846E6
:1016A000FFF786FB01940020ADF80800ADF80A00B2
:1016B000ADF80C00ADF810000C20ADF80E0001A93B
:1016C000084800F06DF8012240F22551054800F06D
:1016D00041F80121034800F007F806B010BD0000F2
:1016E000000801400038014021B1828942F40052D3
:1016F000828104E082894DF6FF731A40828170472F
:1017000070B50246002400230025002040F66A162A
:10171000B14200D100BFC1F3421501F01F03012601
:1017200006FA03F3012D02D19689334006E0022D1B
:1017300002D1168A334001E0968A33400C1201260A
:1017400006FA04F41688344013B10CB1012000E00D
:10175000002070BDF0B503460024002600250020BF
:1017600040F66A17B94200D100BF1846C1F34214CF
:1017700001F01F06012707FA06F5012C01D10C30F4
:1017800004E0022C01D1103000E014301AB10768D7
:101790002F43076002E00768AF430760F0BD000019
:1017A0002DE9F04786B005460E460024A24600BF4C
:1017B000A1460027B08900B100BF2F462C8A4CF605
:1017C000FF700440F08804432C82AC894EF6F3107D
:1017D0000440B08831890843718908430443AC81CF
:1017E000AC8A4FF6FF400440B0890443AC8201A8A4
:1017F000FFF744FC1F48874202D1DDF810A001E04A
:10180000DDF80CA0A88900F4004040B10AEBCA0042
:1018100000EB0A1031684900B0FBF1F807E00AEB71
:10182000CA0000EB0A1031688900B0FBF1F86420AF
:10183000B8FBF0F004012009642101FB1089A8899C
:1018400000F4004040B1322000EBC900B0FBF1F0E1
:1018500000F00700044308E0322000EB0910642187
:10186000B0FBF1F000F00F0004432C8106B0BDE89E
:10187000F08700000038014001468888C0F3080066
:101880007047000010B500F03DF800F00DF8044678
:1018900024F07F400349884201D1002010BD01207F
:1018A000FCE700001840EF0038B500244FF48051E9
:1018B0001348FFF773F89F20FFF766FDA520FFF799
:1018C00063FD8DF80000A520FFF75EFD8DF8010097
:1018D000A520FFF759FD8DF802004FF4805108480C
:1018E000FFF75EF89DF8000000049DF8011040EA43
:1018F00001209DF8021040EA0104204638BD000096
:10190000000C014000B587B001210820FFF748FB1B
:1019100001218803FFF734FB4FF46040ADF8180055
:1019200018208DF81B0003208DF81A0006A91E4808
:10193000FEF79CFF4FF48050ADF8180010208DF892
:101940001B0003208DF81A0006A91748FEF78EFF2A
:101950004FF480511448FFF723F80020ADF804003D
:101960004FF48270ADF806000020ADF808000220A8
:10197000ADF80A000120ADF80C004002ADF80E00F1
:101980000820ADF810000020ADF812000720ADF8D7
:10199000140001A90548FFF7D9FC01210348FFF70E
:1019A000BBFC07B000BD0000000C01400038004047
:1019B00000BF7047FFF704FBFFF73CFA4FF4E1303C
:1019C000FFF742FEFFF75EFFFFF798F9FFF76CFFA6
:1019D00004460AA0C1B208220020FFF735FAE1B29E
:1019E00008220020FFF730FA06E007480078074990
:1019F0000870002004490870F7E700004A45444594
:101A0000432049443A2000004000002017000020F5
:101A100000000000000000000000000000000000C6
:101A2000000038FCFC3800000000000D0D00000034
:101A3000000E1E00001E0E0000000000000000004E
:101A400020F8F820F8F82000020F0F020F0F020014
:101A5000387C444747CC98000306041C1C0703004D
:101A600030300080C06030000C060301000C0C0018
:101A700080D87CE4BCD84000070F0808070F080096
:101A800000101E0E0000000000000000000000001A
:101A90000000F0F80C040000000003070C08000030
:101AA0000000040CF8F000000000080C0703000020
:101AB00080A0E0C0C0E0A08000020301010302009A
:101AC000008080E0E0808000000000030300000050
:101AD00000000000000000000000101E0E000000CA
:101AE0008080808080808000000000000000000076
:101AF00000000000000000000000000C0C000000CE
:101B000000000080C06030000C06030100000000EF
:101B1000F8FC04C424FCF800070F0908080F0700AC
:101B2000001018FCFC0000000008080F0F08080057
:101B3000080C84C4643C18000E0F0908080C0C0043
:101B4000080C444444FCB800040C0808080F0700C3
:101B5000C0E0B098FCFC8000000000080F0F0800F7
:101B60007C7C4444C4C48400040C0808080F0700AB
:101B7000F0F84C4444C08000070F0808080F070025
:101B80000C0C0484C47C3C0000000F0F000000001B
:101B9000B8FC444444FCB800070F0808080F0700CD
:101BA000387C444444FCF800000808080C07030093
:101BB00000000030300000000000000606000000B9
:101BC00000000030300000000000080E0600000099
:101BD0000080C0603018080000000103060C0800F7
:101BE0004040404040404000020202020202020027
:101BF0000008183060C0800000080C0603010000D7
:101C0000181C04C4E43C18000000000D0D00000086
:101C1000F0F808C8C8F8F000070F080B0B0B01001C
:101C2000E0F0988C98F0E0000F0F0000000F0F001C
:101C300004FCFC4444FCB800080F0F08080F070020
:101C4000F0F80C04040C180003070C08080C06003C
:101C500004FCFC040CF8F000080F0F080C0703004C
:101C600004FCFC44E40C1C00080F0F08080C0E00D8
:101C700004FCFC44E40C1C00080F0F0800000000EA
:101C8000F0F80C84848C980003070C0808070F00F8
:101C9000FCFC404040FCFC000F0F0000000F0F0058
:101CA000000004FCFC0400000000080F0F08000006
:101CB00000000004FCFC0400070F08080F070000E8
:101CC00004FCFCC0F03C0C00080F0F00010F0E00DC
:101CD00004FCFC0400000000080F0F08080C0E00B4
:101CE000FCFC387038FCFC000F0F0000000F0F00E8
:101CF000FCFC3870E0FCFC000F0F0000000F0F0030
:101D0000F0F80C040CF8F00003070C080C070300B3
:101D100004FCFC44447C3800080F0F08000000005D
:101D2000F8FC040404FCF800070F080E3C3F2700F1
:101D300004FCFC44C4FC3800080F0F00000F0F0027
:101D4000183C6444C49C1800060E0808080F0700DD
:101D5000001C0CFCFC0C1C000000080F0F0800000D
:101D6000FCFC000000FCFC00070F0808080F07003F
:101D7000FCFC000000FCFC000103060C0603010053
:101D8000FCFC008000FCFC00030F0E030E0F0300A0
:101D90000C3CF0C0F03C0C000C0F0300030F0C00D7
:101DA000003C7CC0C07C3C000000080F0F08000015
:101DB0001C0C84C4643C1C000E0F0908080C0E00A7
:101DC0000000FCFC0404000000000F0F08080000E5
:101DD0003870E0C0800000000000000103070E0022
:101DE00000000404FCFC0000000008080F0F0000C5
:101DF000080C0603060C08000000000000000000AC
:101E000000000000000000002020202020202020D2
:101E100000000307040000000000000000000000B4
:101E200000A0A0A0E0C00000070F0808070F0800EE
:101E300004FCFC2060C08000080F0708080F0700A2
:101E4000C0E0202020604000070F0808080C0400B4
:101E500080C06024FCFC0000070F0808070F080082
:101E6000C0E0A0A0A0E0C000070F0808080C040014
:101E700040F8FC440C180000080F0F080000000098
:101E8000C0E02020C0E02000276F48487F3F0000CE
:101E900004FCFC4020E0C000080F0F00000F0F0002
:101EA000000020ECEC0000000000080F0F0800000C
:101EB0000000000020ECEC0000307040407F3F004C
:101EC00004FCFC80C0602000080F0F01030E0C0012
:101ED000000004FCFC0000000000080F0F080000D8
:101EE000E0E060C060E0C0000F0F000F000F0F00C7
:101EF00020E0C02020E0C000000F0F00000F0F0006
:101F0000C0E0202020E0C000070F0808080F0700ED
:101F100020E0C02020E0C000407F7F48080F07007D
:101F2000C0E02020C0E02000070F08487F7F40006D
:101F300020E0C0602060C000080F0F080000000013
:101F400040E0A02020604000040C09090B0E0400B2
:101F50002020F8FC202000000000070F080C0400DF
:101F6000E0E00000E0E00000070F0808070F0800AD
:101F700000E0E00000E0E0000003070C0C070300B5
:101F8000E0E0000000E0E000070F0C070C0F070086
:101F90002060C080C0602000080C0703070C080008
:101FA000E0E0000000E0E000474F4848683F1F00C5
:101FB000606020A0E06020000C0E0B09080C0C00F3
:101FC000004040F8BC040400000000070F080800AF
:101FD000000000BCBC0000000000000F0F0000006B
:101FE000000404BCF84040000008080F070000008F
:101FF000080C040C080C04000000000000000000A5
:1020000080C0603060C08000070704040407070038
:102010003020000800000020440000006C0100088F
:102020007420000844000020140800008801000803
:10203000000000000102030401020304060708096E
:102040000204060800001E0000000000000000005E
:102050000000000000000000000000000000000080
:102060000000000000000000000000000000000070
:04207000000000006C
:0400000508000131BD
:00000001FF
