:020000040800F2
:1000000078060020D5010008DD010008DF010008A6
:10001000E1010008E3010008E5010008000000001C
:10002000000000000000000000000000E7010008E0
:10003000E901000800000000EB010008ED010008E4
:10004000EF010008EF010008EF010008EF010008D0
:10005000EF010008EF010008EF010008EF010008C0
:10006000EF010008EF010008EF010008EF010008B0
:10007000EF010008EF010008EF010008EF010008A0
:10008000EF010008EF010008EF010008EF01000890
:10009000EF010008EF010008EF010008EF01000880
:1000A000EF010008EF010008EF010008EF01000870
:1000B000EF010008EF010008EF010008EF01000860
:1000C000EF010008EF010008EF010008EF01000850
:1000D000EF010008EF010008EF010008EF01000840
:1000E000EF010008EF010008EF010008EF01000830
:1000F000EF010008EF010008EF010008EF01000820
:10010000EF010008EF010008EF010008EF0100080F
:10011000EF010008EF010008EF010008EF010008FF
:10012000EF010008EF010008EF010008EF010008EF
:1001300000F002F800F03FF80AA090E8000C8244BA
:100140008344AAF10107DA4501D100F034F8AFF297
:10015000090EBAE80F0013F0010F18BFFB1A43F0A5
:1001600001031847E413000004140000103A24BFF0
:1001700078C878C1FAD8520724BF30C830C144BF0C
:1001800004680C607047000000230024002500264E
:10019000103A28BF78C1FBD8520728BF30C148BFEA
:1001A0000B607047642900F07180002070471FB514
:1001B0001FBD10B510BD00F0ECF91146FFF7F7FFB9
:1001C00000F092FF00F00AFA03B4FFF7F2FF03BC5D
:1001D00000F012FA0948804709480047FEE7FEE7A9
:1001E000FEE7FEE7FEE7FEE7FEE7FEE7FEE7FEE7E7
:1001F00004480549054A064B70470000FD0C0008FD
:1002000031010008780000207806002078020020E4
:10021000780200200FB41CB5074B06AA7B44694640
:100220000090059800F09DF90020694600F0ACF9B7
:100230001CBC5DF814FB00006903000070B50446A7
:1002400085690068C10601D5302600E02026C00778
:1002500007D070BDD4E9012130469047206A401C88
:1002600020626D1EF6D570BD70B5044685690078B4
:10027000C00707D170BDD4E9012120209047206A32
:10028000401C20626D1EF6D570BD00002DE9F041C6
:100290000646002410687529314616A510D0AFF324
:1002A0000080002802DA404213A507E031688A077F
:1002B00001D512A502E0490704D511A5012401E0EA
:1002C000AFF3008000210A2206F1240709E0B0FB09
:1002D000F2FCB0FBF2F302FB1C00303078541846FD
:1002E000491C0028F3D123462A463046BDE8F04198
:1002F00000F0D9B8000000002D0000002B00000025
:10030000200000002DE9F05F894604464FF0000A06
:10031000DFF824B1FB44C0F820A02046E1688847FC
:1003200000287DD0252806D0D4E901219047206AF5
:10033000401C2062F1E700255F462046E1688847BF
:100340002028064607DB312E05D2B81910F8200CFC
:1003500008B10543F1E7A80701D525F00405C4F865
:100360001CA00027C4F818A02A2E09D0304600F09F
:1003700085FE38B304EB8708303EC8F8186019E0F2
:1003800059F8041B204604EB87029161E168884715
:10039000012F064618D1E069002820DA25F0200553
:1003A0001DE0D8F8180000EB800006EB4000303864
:1003B000C8F818002046E1688847064600F05EFE4F
:1003C0000028EED1012F0AD02E2E08D12046E16858
:1003D00088477F1C0646022F45F02005C4DBA06934
:1003E000002803DA404245F00105A061E80701D08A
:1003F00025F01005A6B1A6F14100192802D8203633
:1004000045F400654A463146204625604D46FFF7D3
:10041000C9FE60B1012807D0ED1D25F0070000E0FE
:1004200007E000F1080978E705F1040975E73046AF
:100430007AE7206ABDE8F09F1C12000010B5203A50
:10044000C0F00B80B1E81850203AA0E81850B1E88D
:100450001850A0E81850BFF4F5AF5FEA027C24BF43
:10046000B1E81850A0E8185044BF18C918C0BDE83A
:1004700010405FEA827C24BF51F8043B40F8043B03
:1004800008BF7047D20728BF31F8023B48BF11F8B8
:10049000012B28BF20F8023B48BF00F8012B704712
:1004A0007047704770472DE9F0470D4699469246D0
:1004B000044600F124080168880604D5E06921F0AB
:1004C0001001216000E00120A84201DD471B00E08F
:1004D0000027A1697A1902EB0900081AA0612078A7
:1004E000C00602D42046FFF7A9FE002608E0D4E9A2
:1004F00001211AF806009047206A401C761C2062F1
:100500004E45F4DB2078C0060AD52046FFF796FE5C
:1005100006E0D4E9012130209047206A401C206287
:10052000381EA7F10107F4DC07E0D4E9012118F82F
:1005300005009047206A401C2062281EA5F1010595
:10054000F3DC2046FFF790FE2078000602D502205B
:10055000BDE8F0870120FBE701694A1C02610878C9
:10056000704700B58FB0CDE90131002105910549F3
:100570007944CDE9031011466846FFF7C3FE0FB07A
:1005800000BD0000E5FFFFFF0A6802F8010B0A60EA
:100590007047754600F02CF8AE4605006946534694
:1005A00020F00700854618B020B5FFF721FEBDE812
:1005B00020404FF000064FF000074FF000084FF0CA
:1005C000000B21F00701AC46ACE8C009ACE8C0095B
:1005D000ACE8C009ACE8C0098D46704710B50446C8
:1005E000AFF300802046BDE81040FFF7EDBD0000EE
:1005F000004870471400002001491820ABBEFEE7F8
:1006000026000200704700002DE9F84306460C461C
:1006100015461F464FF0000814E0012E02D144F0A9
:10062000800401E044F0C004611EC8B200F0FCFC8C
:10063000287800F0D5FC6D1C601CC4B208F10100E4
:1006400000F0FF08781E4045E7DA10208DF803001F
:10065000FF20ADF8000003208DF802006946024833
:1006600000F092F9BDE8F883002001402DE9FE4337
:1006700080460D4614461F460A20B4FBF0F100FBED
:1006800011408DF804006420B4FBF0F100FB114030
:100690000A21B0FBF1F08DF805004FF47A70B4FB3D
:1006A000F0F100FB11406421B0FBF1F0C0B28DF815
:1006B000060042F21070B4FBF0F100FB11404FF461
:1006C0007A71B0FBF1F0C0B28DF807002C48B4FB92
:1006D000F0F100FB114042F21071B0FBF1F0C0B23A
:1006E0008DF808002748B4FBF0F100FB11402449C5
:1006F000B0FBF1F0C0B28DF809002348B4FBF0F173
:1007000000FB11401F49B0FBF1F0C0B28DF80A00A8
:100710001E48B4FBF0F100FB11401B49B0FBF1F0A7
:10072000C0B28DF80B00B8F1010F02D145F0800581
:1007300001E045F0C00500260FE0691EC8B200F0D8
:1007400073FC791E891B01AA515C3031C8B200F0DC
:1007500047FC681CC5B2701CC6B2781EB042ECDA09
:1007600010208DF80300FF20ADF8000003208DF865
:1007700002006946064800F007F9BDE8FE83000064
:10078000A086010040420F008096980000E1F50528
:10079000002001402DE9FF4104460D4616461F4644
:1007A000DDF828803B46324606A101A8CDF800803E
:1007B000FFF730FD082301AA29462046FFF724FF52
:1007C000BDE8FF81253032643A253032643A253065
:1007D0003264000008B50121402000F00BFA6020CF
:1007E000ADF8000048208DF803006946064800F087
:1007F000CBF81020ADF8000048208DF803006946C2
:10080000014800F0C1F808BD001801402DE9F04191
:10081000002058490870002500264021564800F065
:100820003EF938B12021544800F039F910B10020C8
:10083000524908704021504800F031F9002832D167
:100840004E48007878BB20214B4800F028F9074635
:1008500047B9012447480078401C4649087043F6D0
:10086000982507E0022443480078401C414908705D
:1008700043F698250020424908800AE04048008855
:10088000401C3F49088001203C4908700A2000F0C4
:100890001BFC4021384800F002F920B93848008894
:1008A000B0F5167FEADB1AE04021334800F0F7F894
:1008B000012812D100BF40212F4800F0F0F8002895
:1008C000F9D140212C4800F0EAF830B929480078E5
:1008D000401C2849087043F69825681E85B2012CF3
:1008E00001D1012DE0DC1AE04021234800F0D7F8C7
:1008F000012812D100BF40211F4800F0D0F8012884
:10090000F9D140211C4800F0CAF830B919480078E4
:10091000401C1849087043F69825681E85B2022CC1
:1009200001D1012DE0DC1021134800F0B8F8C0B966
:1009300012480078A8B90F2000F0B7FB10210E482C
:1009400000F0ADF868B9032404E0701C86B20A20F8
:1009500000F0ABFB1021084800F0A1F808B9642EA4
:10096000F3DB642E03DB01200649087000262046D5
:10097000BDE8F0810E0000200018014010000020AA
:10098000120000200F0000202DE9F0410246002552
:100990000026002000230024002791F803C00CF05B
:1009A0000F0591F803C00CF0100CBCF1000F03D040
:1009B00091F802C04CEA050591F800C0BCF1000FA7
:1009C00031D0146800202BE04FF0010C0CFA00F33A
:1009D000B1F800C00CEA03069E4220D183004FF01C
:1009E0000F0C0CFA03F7BC4305FA03FC4CEA0404B1
:1009F00091F803C0BCF1280F06D14FF0010C0CFA9E
:100A000000FCC2F814C00AE091F803C0BCF1480F22
:100A100005D14FF0010C0CFA00FCC2F810C0401CCC
:100A20000828D1D31460B1F800C0BCF1FF0F34DD49
:100A3000546800202EE000F1080C4FF0010808FA7D
:100A40000CF3B1F800C00CEA03069E4221D18300EA
:100A50004FF00F0C0CFA03F7BC4305FA03FC4CEA09
:100A6000040491F803C0BCF1280F05D100F1080C73
:100A700008FA0CF8C2F8148091F803C0BCF1480FD2
:100A800007D100F1080C4FF0010808FA0CF8C2F881
:100A90001080401C0828CED35460BDE8F081024687
:100AA000002093680B400BB1012000E0002070474C
:100AB00001617047C16070470AB1016100E04161A6
:100AC0007047000038B548208DF80300FF20ADF8CE
:100AD000000069461648FFF757FFFF211448FFF74B
:100AE000E7FF01201349086000201349C1F8A40161
:100AF00001201249086000BF0120104908608021D0
:100B00000B48FFF7CCFF044600200D49C1F88401D3
:100B1000002CF1D114208DF80300FF20ADF8000067
:100B200003208DF8020069460148FFF72DFF38BD0C
:100B300000200140A8812342008023428481214279
:100B40000080214208B501214FF4C47000F052F832
:100B50004FF40070ADF8000010208DF80300032062
:100B60008DF8020069461648FFF70EFF4FF48060CB
:100B7000ADF8000010208DF8030003208DF802006E
:100B800069460F48FFF700FF10208DF80300022090
:100B9000ADF8000003208DF8020069460948FFF710
:100BA000F3FE14208DF80300FF20ADF800000320B1
:100BB0008DF8020069460448FFF7E6FE08BD000014
:100BC000001C0140000C01400020014010B5FFF75F
:100BD000B9FF382000F028FA082000F025FA01209B
:100BE00000F022FA062000F01FFA0C2000F01CFA98
:100BF00010BD000029B1064A92690243044B9A6174
:100C000004E0034A92698243014B9A6170470000F5
:100C10000010024010B500F001F810BD0CB5002026
:100C2000019000903348006840F4803031490860FA
:100C300000BF3048006800F4003000900198401C6C
:100C40000190009818B90198B0F5A06FF1D129482A
:100C5000006800F4003010B10120009001E0002095
:100C600000900098012843D12348006840F010000C
:100C7000214908600846006820F003000860084623
:100C8000006840F0020008601A484068194948604E
:100C90000846406848600846406840F48060486004
:100CA0000846406820F47C1048600846406840F4DC
:100CB000E81048600846006840F08070086000BF97
:100CC0000C48006800F000700028F9D0094840681E
:100CD00020F00300074948600846406840F00200E1
:100CE000486000BF0348406800F00C000828F9D1B4
:100CF0000CBD0000001002400020024010B5134857
:100D0000006840F001001149086008464068104939
:100D100008400E494860084600680E4908400B49E3
:100D200008600846006820F4802008600846406893
:100D300020F4FE0048604FF41F008860FFF76AFF50
:100D40004FF000600449086010BD00000010024030
:100D50000000FFF8FFFFF6FE08ED00E02DE9F0418E
:100D600088B007460D4614469846142246A101A8AD
:100D7000FFF764FB0A20B4FBF0F100FB11408DF893
:100D800018006420B4FBF0F100FB11400A21B0FB15
:100D9000F1F08DF819004FF47A70B4FBF0F100FB1C
:100DA00011406421B0FBF1F0C0B28DF81A0042F29C
:100DB0001070B4FBF0F100FB11404FF47A71B0FBFE
:100DC000F1F0C0B28DF81B003448B4FBF0F100FB29
:100DD000114042F21071B0FBF1F0C0B28DF81C006E
:100DE0002F48B4FBF0F100FB11402C49B0FBF1F0AF
:100DF000C0B28DF81D002B48B4FBF0F100FB114090
:100E00002749B0FBF1F0C0B28DF81E002648B4FBB4
:100E1000F0F100FB11402349B0FBF1F0C0B28DF8B6
:100E20001F0000F0C5F8402000F09EF800F084F8A4
:100E300000F0BEF807F1BF01C8B200F095F8002637
:100E40001AE0B8F1010F0DD1681EB0420AD1A91BFA
:100E5000491E06AA515C01AA515C41F0800000F0D5
:100E600083F807E0A91B491E06AA515C01AA505C41
:100E700000F07AF8701CC6B2AE42E2DB00F05CF81B
:100E800008B0BDE8F08100003F065B4F666D7D074E
:100E90007F6F777C395E797176000000A086010053
:100EA00040420F008096980000E1F5052DE9F041E1
:100EB00000F07EF84026304600F056F800F03CF88E
:100EC00000F076F8C027384600F04EF8002504E020
:100ED000FF2000F049F8681CC5B2122DF8DB00F0C5
:100EE0002BF84FF4FA7000F0E0F800F061F84026BB
:100EF000304600F039F800F01FF800F059F8C0272C
:100F0000384600F031F8002504E0002000F02CF80D
:100F1000681CC5B2122DF8DB00F00EF800F048F89E
:100F20008C24204600F020F800F006F8012000F0A4
:100F3000ACF8BDE8F081000010B50022802109481E
:100F4000FFF7BAFD002240210648FFF7B5FD012258
:100F500080210448FFF7B0FD012240210148FFF73E
:100F6000ABFD10BD0020014070B50446002519E01E
:100F700004F0010028B1012240210C48FFF79CFD3C
:100F800004E0002240210948FFF796FD012280215C
:100F90000648FFF791FD002280210448FFF78CFDF1
:100FA00064106D1C082DE3DB70BD000000200140C3
:100FB00010B5012240210948FFF77EFD0122802162
:100FC0000648FFF779FD002240210448FFF774FD31
:100FD000002280210148FFF76FFD10BD0020014075
:100FE00010B50446FFF76EFD00200B4908600B4961
:100FF000C1F8A80101200A49086021460948FFF705
:1010000059FD012004490860002008604FF6FF7177
:101010000448FFF74FFD10BD848121420080234228
:10102000A48123420020014010B50446FFF74AFD89
:1010300000200D4908600D49C1F8A8010C4908605D
:1010400021460C48FFF736FD01200B49C1F8840109
:101050000A2000F02AF80020034908604FF6FF71CB
:101060000448FFF727FD10BD848121420080234200
:10107000A4812342002001400080214230380A2808
:1010800001D201207047002070470146002009E08E
:10109000002203E0431C98B2531CDAB25F2AF9DB4A
:1010A000421C90B28842F3DB7047002109E0002225
:1010B00001E0531C9AB241F63B739A42F9DB4A1C99
:1010C00091B28142F3DB70470146002009E0002223
:1010D00001E0531CDAB2052AFBDB421C90B2421C31
:1010E00090B28842F3DB704708B5FFF72BFDFFF79E
:1010F0006DFD1023F6A201210846FFF785FA1023A3
:10110000F8A201210220FFF77FFAFFF763FB042317
:10111000F9A209210220FFF777FAFFF7C7FE0123A2
:10112000F948027803211846FFF718FECFE1FFF7D0
:101130006DFBF64908700223084602780E21184616
:10114000FFF794FAF24800780090F2480378F248EA
:10115000027801210220FFF71DFBF04800780028EB
:1011600038D1EF480088401CED49088008460088C7
:1011700014282FDBE6480078401CE5490870084633
:1011800000780090E3480378E348027801210220C8
:10119000FFF700FB0020E2490880DD4800783C288A
:1011A00018D10020DA490870DA480078401CD94983
:1011B0000870084600783C280CD100200870D648FA
:1011C0000078401CD449087008460078182801D1DE
:1011D00000200870CD480078032805D10120CF49B0
:1011E00008700020C94908707AE0CE4800880128BC
:1011F00006D10223CCA207211846FFF705FA16E014
:10120000C848008844F62061884207D10223C048BC
:10121000027807211846FFF729FA08E0C14800883C
:101220004EF66021884202D10020BE490880BD48A8
:101230000088401CBB490880FFF7E8FAB3490870F2
:10124000BB480078012807D10020B4490870AF4995
:101250000870B749087047E0AC480078022814D1FC
:10126000AB480078401CAA490870084600783B2823
:1012700001DD002008700020A44908700223A44862
:10128000027807211846FFF7F1F9A04800780128F5
:1012900014D19F480078401E9D4908700846007888
:1012A0003B2801DD3B200870022399480278072182
:1012B0001846FFF7DBF9002094490870934800783E
:1012C00003280DD102239248027807211846FFF720
:1012D000CDF902209149087000208C49087003E084
:1012E0008E480078012880D000BF72E08D480088C9
:1012F000012806D102238CA204211846FFF784F9A5
:1013000016E08848008844F62061884207D102230D
:101310008048027804211846FFF7A8F908E08148C0
:1013200000884EF66021884202D100207D49088065
:101330007C480088401C7B490880FFF767FA7349A6
:1013400008707B480078012807D100207349087095
:101350006E490870764908703FE06C4800780228B2
:1013600014D16C480078401C6A490870084600781F
:101370003B2801DD0020087000206449087002232A
:101380006448027804211846FFF770F95F48007836
:10139000012814D15F480078401E5E490870084655
:1013A00000783B2801DD00200870002057490870B4
:1013B00002235848027804211846FFF757F953488A
:1013C0000078032805D15549087000204F4908705E
:1013D00003E052480078022888D000BF72E05148EC
:1013E0000088012806D102234FA201211846FFF7E9
:1013F0000BF916E04B48008844F62061884207D17B
:1014000002234548027801211846FFF72FF908E02A
:10141000444800884EF66021884202D100204149AC
:10142000088040480088401C3E490880FFF7EEF9DC
:10143000364908703E480078012807D10020374916
:101440000870324908703A4908703FE02F48007828
:10145000022814D130480078401C2F4908700846F3
:101460000078172801DD0020087000202749087047
:1014700002232948027801211846FFF7F7F823488C
:101480000078012814D124480078401E22490870B1
:1014900008460078172801DD1720087000201B4936
:1014A000087002231C48027801211846FFF7DEF875
:1014B00016480078032805D1002018490870134900
:1014C000087003E015480078032888D000BF2EE696
:1014D000323032342D31322D3135205765642E2093
:1014E00020000000686F75723A6D696E3A7365632B
:1014F000202020202020000020202020202020202C
:1015000020202020202000000C0000200A000020C5
:101510000200002001000020000000200600002042
:1015200004000020080000202020202000000000EF
:101530000F0000200400000800000000000000026E
:1015400000010000100000006815000800000020E5
:10155000140000006C0100087C1500081400002035
:101560006406000088010008000000000000000080
:0C1570000000000000000000010000006E
:0400000508000131BD
:00000001FF
