:020000040800F2
:1000000060070020E9010008F1010008F301000881
:10001000F5010008F7010008F901000800000000E0
:10002000000000000000000000000000FB010008CC
:10003000FD01000800000000FF01000801020008A7
:10004000030200080302000803020008591E00080A
:100050000302000803020008AD0E000803020008B6
:100060000302000803020008E10E00080302000872
:10007000030200080302000803020008030200084C
:10008000030200080302000803020008030200083C
:10009000030200080302000803020008DD0F000845
:1000A000030200080302000803020008030200081C
:1000B000030200080302000803020008030200080C
:1000C00003020008030200080302000803020008FC
:1000D000030200083D210008030200080302000893
:1000E00003020008FD1B00080302000803020008C9
:1000F00003020008030200080302000803020008CC
:1001000003020008030200080302000803020008BB
:1001100003020008030200080302000803020008AB
:10012000030200080302000803020008030200089B
:1001300000F002F800F048F80AA090E8000C8244B1
:100140008344AAF10107DA4501D100F03DF8AFF28E
:10015000090EBAE80F0013F0010F18BFFB1A43F0A5
:1001600001031847382D0000582D0000103A24BF15
:1001700078C878C1FAD8520724BF30C830C144BF0C
:1001800004680C607047000000230024002500264E
:10019000103A28BF78C1FBD8520728BF30C148BFEA
:1001A0000B607047642900F08B80002070471FB5FA
:1001B00000F012FD04000020002102F043FE401C6C
:1001C00060601FBD10B510BD00F0D8FC1146FFF7F0
:1001D000EEFF02F07DF900F003FD03B4FFF7F2FF3C
:1001E00003BC02F064F90000094880470948004751
:1001F000FEE7FEE7FEE7FEE7FEE7FEE7FEE7FEE7D7
:10020000FEE7FEE704480549054A064B7047000033
:10021000DD20000831010008600100206007002097
:100220006003002060030020704700000FB4044901
:1002300010B503AA029800F083FA10BC5DF814FB15
:10024000200000200FB41CB5084B06AA7B44694669
:100250000090059800F05BFA04460020694600F023
:1002600069FA20461CBC5DF814FB0000E5040000A0
:1002700070B5044685690068C10601D5302600E0E6
:100280002026C00707D070BDD4E901213046904731
:10029000206A401C20626D1EF6D570BD70B5044604
:1002A00085690078C00707D170BDD4E901212020FD
:1002B0009047206A401C20626D1EF6D570BD00007C
:1002C0002DE9F0410646002410687529314616A52F
:1002D00010D0AFF30080002802DA404213A507E0F7
:1002E00031688A0701D512A502E0490704D511A596
:1002F000012401E0AFF3008000210A2206F1240767
:1003000009E0B0FBF2FCB0FBF2F302FB1C00303062
:1003100078541846491C0028F3D123462A46304613
:10032000BDE8F04100F094B9000000002D0000008D
:100330002B000000200000002DE9F05F89460446F4
:100340004FF0000ADFF874B1FB44C0F820A020464B
:10035000E1688847002874D0252806D0D4E9012117
:100360009047206A401C2062F1E700265F46204645
:10037000E16888472028054607DB312D05D278192A
:1003800010F8200C08B10643F1E7B00701D526F0BC
:100390000406C4F81CA00027C4F818A02A2D09D010
:1003A000284602F07DF838B304EB8708303DC8F8E2
:1003B000185019E059F8041B204604EB870291619C
:1003C000E1688847012F054618D1E069002820DA46
:1003D00026F020061DE0D8F8180000EB800005EBA1
:1003E00040003038C8F818002046E16888470546C4
:1003F00002F056F80028EED1012F0AD02E2D08D198
:100400002046E16888477F1C0546022F46F02006FB
:10041000C4DBA069002803DA404246F00106A0616F
:10042000F00701D026F010066C2D0BD0682D09D0F6
:100430004C2D39D06A2D35D0742D35D07A2D33D04E
:1004400016E038E0E1682F4620468847B842054666
:1004500009D16C2F26D04FF48060E1680643204616
:100460008847054604E06C2F1AD04FF4807006438D
:100470000DB3A5F14100192802D8203546F40066D5
:100480004A462946204626604E46FFF78BFE80B13D
:1004900001280BD0F61D26F0070000F1080956E7E9
:1004A0004020E4E78020D8E70020D6E706F10409E1
:1004B0004DE7284652E7206ABDE8F09F3C2B00003C
:1004C0000FB400B58DB010A9099000910B904FF0BA
:1004D000FF300A9000200C900648784406900648A9
:1004E00078446A4607900F9909A800F04FF90DB0BB
:1004F0005DF814FBCF020000E70200002DE9FF5F6A
:100500001D464FF0FF3B91464FF000085F46D5E98E
:100510000146A96901987F1C8847296A8246884755
:100520000028F6D1BAF1FF3F0CD0002E24F4C064AD
:1005300019DD600614D5BAF12B0F09D0BAF12D0FD1
:100540000ED103E0584604B0BDE8F09F44F4806447
:10055000A96901987F1C8847761E8246002E02DD1D
:10056000BAF1300F03D0B9F1000F26D032E0A969FB
:10057000761E01987F1C44F400748847002E824642
:1005800005DDBAF1780F06D0BAF1580F03D0B9F1F2
:10059000000F10D01EE0B9F1000F02D0B9F1100F1A
:1005A00018D1A969761E01987F1C24F4007488472D
:1005B0008246102002E0082000E00A20814609E07F
:1005C000A96908FB0908761E01987F1C44F4007491
:1005D00088478246002E05DD4946504600F0C2F8A5
:1005E0000028EDDAE96901988847A00502D46FF088
:1005F0000100A8E7E00725D1600613D5600502D504
:10060000C8F1000000E0404629680A1D2A60096818
:10061000220501D5087015E0220701D5088011E0F8
:1006200008600FE02868011D29600068210502D5D7
:1006300080F8008006E0210702D5A0F8008001E0E4
:10064000C0F8008038467EE77047704770477047B3
:100650002DE9F0470D4699469246044600F12408DC
:100660000168880604D5E06921F01001216000E0EE
:100670000120A84201DD471B00E00027A1697A198B
:1006800002EB0900081AA0612078C00602D42046B7
:10069000FFF7EEFD002608E0D4E901211AF8060074
:1006A0009047206A401C761C20624E45F4DB20787F
:1006B000C0060AD52046FFF7DBFD06E0D4E901219C
:1006C00030209047206A401C2062381EA7F10107A5
:1006D000F4DC07E0D4E9012118F805009047206A0E
:1006E000401C2062281EA5F10105F3DC2046FFF71F
:1006F000D5FD2078000602D50220BDE8F087012054
:10070000FBE7000001694A1C02610878704700B5E8
:100710008FB0CDE901310021059105497944CDE93A
:10072000031011466846FFF707FE0FB000BD00003A
:10073000E5FFFFFF0A6802F8010B0A60704700003E
:10074000074B70B50D467B44FFF7E1FF0446284692
:1007500000F010FA10B14FF0FF3070BD204670BDB0
:100760006B1D00003A2800D2303820F02002412AC8
:1007700001D3A2F13700884201D34FF0FF30704718
:10078000026811441378016018467047D16005492A
:100790007944516104497944116200211161114683
:1007A00000F02EB8EDFFFFFF53000000426842B199
:1007B000016811F8013B23B1521EC0E9001218462E
:1007C00070470121C160881E704742685AB1C368F2
:1007D000016843B983688B4205D0491E521CC0E9A9
:1007E0000012002070474FF0FF30704710B50446EC
:1007F00000F0EAF90068005D00F0010010BD0000A3
:100800002DE9F34F4FF0000A0C4656468DB00120FB
:100810000C9001F10C000B9062690B98012190473C
:10082000051E2DD0252D2CD0216A8847C0B16269C4
:100830000B9801219047216A88470028F7D1626907
:10084000411E0B98904700E0761CA1690D988847DF
:10085000216A88470028F7D1E1690D988847DBE7CE
:10086000A1690D988847A842074601D1761CD3E7B5
:10087000E1690D9888477F1C02D1BAF1000F6FD053
:100880006CE162690B9800273D46394690472A285B
:1008900004D162690B98012190470125DFF8D082CD
:1008A00062690B9801219047A0F130010A290AD210
:1008B0004745E5DC07EB870100EB4107303FDFD41C
:1008C00045F01005ECE7E90601D46FF000476C280D
:1008D0000AD04C2814D0682815D06A280DD0742866
:1008E0001CD07A281AD01DE062690B98012190472C
:1008F0006C2802D045F0040514E045F002050DE037
:1009000045F020050AE062690B98012190476828AC
:1009100002D045F0080505E045F4006562690B98D2
:1009200001219047C4E9015765283DD019DC5828BA
:100930007AD00CDC452837D004DC252826D0412885
:100940009ED131E046282FD0472899D12CE05B2852
:1009500077D0612828D063287CD0642823D15AE03E
:10096000F7E06F2848D008DC66281DD067281BD028
:10097000692821D06E2816D127E0702845D0732829
:1009800068D0752847D078280DD14DE0A1690D9821
:100990008847252805463FF469AFE1690D988847E7
:1009A0006D1C3FF46AAFD9E00D9923466A466FF09B
:1009B0000100AFF30080C6E045F0400023464FF051
:1009C00000026060A80736D43EE0E8077FF447AF36
:1009D0002068011D21600068290501D506701BE70C
:1009E000290701D5068017E7A90703D5F117C0E944
:1009F000006111E706600FE745F0400023464FF025
:100A000008026060A80716D41EE040F60E0125EA31
:100A10000100606016E045F0400023464FF00A02F6
:100A20006060A80707D40FE045F040006060A807A9
:100A300008D5234610220D996FF00100AFF3008016
:100A400081E007E0102223460D996FF00100FFF7C7
:100A500055FD78E04FF0000963284F46C8464B46E5
:100A6000CB4602D05B2807D039E02079C00601D4FC
:100A70000120A060012732E06269D4F80CB00B9825
:100A8000012190475E2807D14FF00109494662696C
:100A9000D4F80CB00B989047216939B900210A4667
:100AA00003AB43F82120491C0829FADBD8B321699C
:100AB00049B308F1010862690B98012190475D284C
:100AC000F4D1B9F1000F09D0002003A951F820207A
:100AD000D24341F82020401C0828F7DB03AB2069F3
:100AE000002820794FEA40701ED05B462246CDF8A0
:100AF0000080CDE901970D9900286FF0010020DA00
:100B0000AFF300801FE0C11703AA00EBD1614B11C6
:100B100021F01F0102EB8302411A13680120884073
:100B200003431360C7E719E00D99224600286FF0D0
:100B30000100009702DAAFF3008004E0AFF3008019
:100B400001E0AFF3008000280ADA401C06D10C98BF
:100B500020B14FF0FF300FB0BDE8F08F5046FAE7FC
:100B6000E90701D10AF1010A064400200C9053E67E
:100B7000CCCCCC0C007B00F080007047754600F0B8
:100B800039F8AE4605006946534620F00700854611
:100B900018B020B5FFF736FBBDE820404FF0000647
:100BA0004FF000074FF000084FF0000B21F0070155
:100BB000AC46ACE8C009ACE8C009ACE8C009ACE898
:100BC000C0098D467047000010B500F005F8001D03
:100BD00010BD00BF71220000004870471C010020BA
:100BE00010B50446AFF300802046BDE81040FFF783
:100BF000F4BA000000487047FC0000204FF0013CB0
:100C000050F8042B51F8043B9A4221D1A2EB0C037B
:100C1000934313EACC1317D150F8042B51F8043B3B
:100C20009A4215D1A2EB0C03934313EACC130BD1D8
:100C300050F8042B51F8043B9A4209D1A2EB0C0363
:100C4000934313EACC13DBD04FF00000704700BF92
:100C5000D01A01BAB1FA81F101F0180122FA01F0BB
:100C6000CB40C1F12001DBB2C0B2C01A2CFA01F3B3
:100C7000D11A914311EAC311E6D1704710B5012092
:100C800000F010FE002000F00DFE10BD08B501467A
:100C900000200090034800900098084400900098BD
:100CA000008808BD006C004008B500220092044A8C
:100CB0000092009A02440092009A116008BD000060
:100CC000006C0040002109E0002201E0531C9AB2B0
:100CD00041F63B739A42F9DB4A1C91B28142F3DB45
:100CE000704700002DE9F84306460C4615461F469E
:100CF0004FF0000814E0012E02D144F0800401E01E
:100D000044F0C004611EC8B201F0A0FB287801F0D5
:100D100079FB6D1C601CC4B208F1010000F0FF08F3
:100D2000781E4045E7DA10208DF80300FF20ADF86B
:100D3000000003208DF802006946024800F06CFBB9
:100D4000BDE8F883002001402DE9FE4380460E46B1
:100D500014461F460A20B4FBF0F100FB11408DF849
:100D600004006420B4FBF0F100FB11400A21B0FB49
:100D7000F1F08DF805004FF47A70B4FBF0F100FB50
:100D800011406421B0FBF1F0C0B28DF8060042F2D0
:100D90001070B4FBF0F100FB11404FF47A71B0FB1E
:100DA000F1F0C0B28DF807002B48B4FBF0F100FB66
:100DB000114042F21071B0FBF1F0C0B28DF80800A2
:100DC0002648B4FBF0F100FB11402349B0FBF1F0E1
:100DD000C0B28DF809002248B4FBF0F100FB1140CD
:100DE0001E49B0FBF1F0C0B28DF80A001D48B4FBFB
:100DF000F0F100FB11401A49B0FBF1F0C0B28DF8E0
:100E00000B00B8F1010F02D146F0800601E046F078
:100E1000C00600250EE07119491EC8B201F016FB8C
:100E2000791E491B01AA515C3031C8B201F0EAFABF
:100E3000681CC5B2BD42EEDB10208DF80300FF2018
:100E4000ADF8000003208DF802006946064800F066
:100E5000E3FABDE8FE830000A086010040420F00D7
:100E60008096980000E1F505002001402DE9FF4142
:100E700004460D4616461F46DDF828803B4632469E
:100E800006A101A8CDF80080FFF7DCF9082301AA2C
:100E900029462046FFF726FFBDE8FF812530326452
:100EA0003A253032643A25303264000010B5012012
:100EB00000F01AFA80B14FF40051084800F044FBEA
:100EC000C0F10100C4B222464FF40051034800F0C3
:100ED00048FB012000F002FA10BD000000100140A4
:100EE00038B5002500241020ADF8000014208DF83E
:100EF000030003208DF802006946364800F08CFAA2
:100F00000F20ADF8000048208DF8030003208DF875
:100F1000020069462F4800F07FFA4FF6EF712D4826
:100F200000F01DFB0A20FFF7CDFE2A4800F0FFFA73
:100F300000F00F000F282CD0264800F0F8FA00F03F
:100F40000F0504E00A20FFF7BDFE601CC4B2214873
:100F500000F0EDFA00F00F000F2801D0322CF1DD87
:100F6000072D11D00B2D0BD00D2D05D00E2D0FD12F
:100F70000120194908700BE005201749087007E0A7
:100F800009201549087003E00D201349087000BFBF
:100F900000BF0F20ADF8000014208DF803000320DF
:100FA0008DF8020069460B4800F036FAF020ADF8E3
:100FB000000048208DF803006946064800F02CFA2E
:100FC0004FF6F071034800F0CAFA102000F086F9DD
:100FD00038BD0000001001401800002038B5202066
:100FE00000F082F9002878D02020ADF8000014200D
:100FF0008DF8030003208DF802006946B54800F023
:101000000BFA0F20ADF8000048208DF803000320F4
:101010008DF802006946AF4800F0FEF94FF6DF7127
:10102000AC4800F09CFA0A20FFF74CFEA94800F0FB
:101030007EFA00F00F000F282FD000250024A548CD
:1010400000F075FA00F00F0504E00A20FFF73AFE01
:10105000601CC4B29F4800F06AFA00F00F000F282D
:1010600001D0322CF1DD072D11D00B2D0BD00D2D21
:1010700005D00E2D0FD10220974908700BE00620F5
:101080009549087007E00A209349087003E00E2094
:101090009149087000BF00BF00BF0F20ADF80000ED
:1010A00014208DF8030003208DF80200694689485A
:1010B00000F0B2F9F020ADF8000048208DF80300F0
:1010C0006946844800F0A8F94FF6F071814800F0B5
:1010D00046FA202000F002F900BF402000F004F999
:1010E000002878D04020ADF8000014208DF80300CF
:1010F00003208DF802006946764800F08DF90F2034
:10110000ADF8000048208DF8030003208DF80200A0
:101110006946704800F080F94FF6BF716D4800F0E5
:101120001EFA0A20FFF7CEFD6A4800F000FA00F030
:101130000F000F282FD000250024664800F0F7F993
:1011400000F00F0504E00A20FFF7BCFD601CC4B2EC
:10115000604800F0ECF900F00F000F2801D0322CAD
:10116000F1DD072D11D00B2D0BD00D2D05D00E2D3F
:101170000FD10320584908700BE00720564908702A
:1011800007E00B205449087003E00F205249087013
:1011900000BF00BF00BF0F20ADF8000014208DF885
:1011A000030003208DF8020069464A4800F034F934
:1011B000F020ADF8000048208DF80300694645484E
:1011C00000F02AF94FF6F071424800F0C8F94020CB
:1011D00000F084F800BF802000F086F8002878D066
:1011E0008020ADF8000014208DF8030003208DF856
:1011F00002006946374800F00FF90F20ADF80000F3
:1012000048208DF8030003208DF80200694631481C
:1012100000F002F94FF67F712E4800F0A0F90A2085
:10122000FFF750FD2B4800F082F900F00F000F2867
:101230002FD000250024274800F079F900F00F0591
:1012400004E00A20FFF73EFD601CC4B2214800F014
:101250006EF900F00F000F2801D0322CF1DD072DC0
:1012600011D00B2D0BD00D2D05D00E2D0FD104203C
:10127000194908700BE008201749087007E00C2096
:101280001549087003E010201349087000BF00BF23
:1012900000BF0F20ADF8000014208DF803000320DC
:1012A0008DF8020069460B4800F0B6F8F020ADF862
:1012B000000048208DF803006946064800F0ACF8AD
:1012C0004FF6F071034800F04AF9802000F006F86C
:1012D00000BF38BD0010014018000020014908601F
:1012E0007047000014040140014600200022074B13
:1012F0001B6803EA0102054B14331B680B4013B152
:101300000AB1012000E00020704700000004014005
:10131000002123498279002A3AD00A4612680368DC
:101320009A430B461A600A1D126803689A430B1D04
:101330001A60027911440A6803681A430A60184A5D
:101340000832126803689A43154B08331A601A1D55
:10135000126803689A43124B0C331A604279102AC0
:101360000ED11A1F126803681A430D4B08331A6016
:101370001A1D126803681A43094B0C331A600DE0FA
:101380000749427911440A6803681A430A6005E074
:10139000027911440A6803689A430A6070470000A2
:1013A000000401400549096821F01001034A116059
:1013B0001146096801431160704700000020024097
:1013C00001460020034A106800F03800084310600E
:1013D000704700000020024030B500228B071C0F30
:1013E0000F2303FA04F20B4B8C1053F82430934371
:1013F000084C8D1044F8253023468C1053F82430C7
:101400008C07240F00FA04F42343024C8D1044F897
:10141000253030BD080001402DE9F041024600258D
:101420000026002000230024002791F803C00CF0C0
:101430000F0591F803C00CF0100CBCF1000F03D0A5
:1014400091F802C04CEA050591F800C0BCF1000F0C
:1014500031D0146800202BE04FF0010C0CFA00F39F
:10146000B1F800C00CEA03069E4220D183004FF081
:101470000F0C0CFA03F7BC4305FA03FC4CEA040416
:1014800091F803C0BCF1280F06D14FF0010C0CFA03
:1014900000FCC2F814C00AE091F803C0BCF1480F88
:1014A00005D14FF0010C0CFA00FCC2F810C0401C32
:1014B0000828D1D31460B1F800C0BCF1FF0F34DDAF
:1014C000546800202EE000F1080C4FF0010808FAE3
:1014D0000CF3B1F800C00CEA03069E4221D1830050
:1014E0004FF00F0C0CFA03F7BC4305FA03FC4CEA6F
:1014F000040491F803C0BCF1280F05D100F1080CD9
:1015000008FA0CF8C2F8148091F803C0BCF1480F37
:1015100007D100F1080C4FF0010808FA0CF8C2F8E6
:101520001080401C0828CED35460BDE8F0810146ED
:10153000886880B270470246002093680B400BB168
:10154000012000E00020704702460020D3680B40D5
:101550000BB1012000E00020704701617047C160BD
:1015600070470AB1016100E0416170470146CA1746
:1015700001EB92729210A1EB820292B9642091FB6E
:10158000F0F200FB121050B94FF4C87091FBF0F26A
:1015900000FB121008B9012070470020FCE7012071
:1015A000FAE70020F8E708B54FF4A06000F04AF928
:1015B0000A208DF8000001208DF8010000208DF830
:1015C000020001208DF80300684600F003F917209F
:1015D0008DF8000001208DF8010000208DF8020038
:1015E00001208DF80300684600F0F4F808BD000003
:1015F0000EB50121112000F045F90F20ADF80800CB
:1016000014208DF80B0003208DF80A0002A924484D
:10161000FFF702FF00212248FFF7A1FFF020ADF8FD
:10162000080003208DF80A0048208DF80B0002A95D
:101630001B48FFF7F1FE4FF6F0711948FFF78FFFD7
:1016400004210220FFF7C8FE05210220FFF7C4FE97
:1016500006210220FFF7C0FE07210220FFF7BCFE93
:101660001020009000208DF804000C208DF805005B
:1016700001208DF806006846FFF74AFEE020009042
:1016800000208DF804000C208DF8050001208DF855
:1016900006006846FFF73CFEFFF785FF0EBD000021
:1016A0000010014038B548208DF80300FF20ADF848
:1016B000000069461648FFF7AFFEFF211448FFF708
:1016C0004CFF01201349086000201349C1F8A40110
:1016D00001201249086000BF0120104908608021E4
:1016E0000B48FFF728FF044600200D49C1F884018C
:1016F000002CF1D114208DF80300FF20ADF800007C
:1017000003208DF8020069460148FFF785FE38BDC9
:1017100000200140A881234200802342848121428D
:101720000080214208B501214FF4C47000F0AAF8EE
:101730004FF40070ADF8000010208DF80300032076
:101740008DF8020069461648FFF766FE4FF4806088
:10175000ADF8000010208DF8030003208DF8020082
:1017600069460F48FFF758FE10208DF8030002204D
:10177000ADF8000003208DF8020069460948FFF724
:101780004BFE14208DF80300FF20ADF8000003206D
:101790008DF8020069460448FFF73EFE08BD0000D0
:1017A000001C0140000C01400020014010B5FFF773
:1017B000B9FF382000F04AFE082000F047FE012063
:1017C00000F044FE062000F041FE0C2000F03EFE3A
:1017D00010BD000070B5002100230F22C47804B3AF
:1017E000154C246804F4E064C4F5E064210AC1F1F6
:1017F0000403CA40447804FA03F184781440214376
:1018000009010E4C0678A155047804F01F05012447
:10181000AC4005786D11AD0005F1E025C5F800413B
:1018200009E0047804F01F050124AC40044D06785B
:10183000761145F8264070BD0CED00E000E400E0B4
:1018400080E100E002490143024A11607047000054
:101850000000FA050CED00E0014908627047000045
:1018600000000E4229B1064AD2690243044BDA61F4
:1018700004E0034AD2698243014BDA6170470000F9
:101880000010024029B1064A92690243044B9A6152
:1018900004E0034A92698243014B9A617047000059
:1018A00000100240014908607047000040044242B5
:1018B0000348406A40F08070014948627047000068
:1018C0000010024010B500F035F84FF4803000F001
:1018D000F3F800F077F90446012C24D14FF4E0111D
:1018E000000400F047F9002000F0DAF8A00200F050
:1018F00023F9002000F02CF90220FFF761FD1020F1
:10190000FFF750FD012000F02FF900BF392000F053
:10191000A1F80028FAD0022000F048F900BF00F03A
:10192000B7F80828FBD1012144F27D00FFF7AAFF98
:1019300010BD00000F48006840F001000D4908602C
:10194000084640680C4908400A4948600846006853
:101950000A490840074908600846006820F48020CA
:1019600008600846406820F4FE0048604FF41F00FD
:1019700088607047001002400000FFF8FFFFF6FE8D
:1019800030B500210022002400232D4D6D6805F0A4
:101990000C0121B1042905D0082923D105E0294DE6
:1019A000056022E0274D05601FE0254D6D6805F4B8
:1019B0007012234D6D6805F48034022505EB9242C8
:1019C0001CB9214D554305600BE01D4D6D6805F4B4
:1019D00000351DB11C4D5543056002E0194D5543BE
:1019E000056002E0174D056000BF00BF144D6D6833
:1019F00005F0F0010909154D6B5C0568DD40456097
:101A00000F4D6D6805F4E061090A104D6B5C456887
:101A1000DD4085600A4D6D6805F46051C90A0B4DC3
:101A20006B5C4568DD40C560054D6D6805F440415F
:101A3000890B074D6B5CC568B5FBF3F5056130BDDF
:101A40000010024000127A0000093D000000002052
:101A50001000002010B501460022002300204A118A
:101A6000012A02D1094C236806E0022A02D1074C60
:101A7000236A01E0054C636A01F01F0201249440CF
:101A80001C400CB1012000E0002010BD00100240FD
:101A90000248406800F00C0070470000001002404F
:101AA00001460020034A506820F0F00008435060CF
:101AB00070470000001002401149096821F480318C
:101AC0000F4A11601146096821F480211160B0F5B8
:101AD000803F03D0B0F5802F0ED106E00849096899
:101AE00041F48031064A116007E00549096841F474
:101AF000A021034A116000E000BF00BF7047000052
:101B00000010024000210B4A11700A4A203A82F864
:101B10002010012802D0042808D103E00121054A41
:101B2000117004E00521034A117000E000BF00BFFE
:101B3000704700002010024001460020034A506810
:101B400020F4E0600843506070470000001002403D
:101B500001460020034A506820F4605040EAC1006A
:101B6000506070470010024001490866704700004D
:101B70000000424202460020044B586820F47C10CA
:101B800042EA01031843014B5860704700100240BD
:101B900001490860704700003C0442420249096A5A
:101BA0000143014A116270470010024001460020C3
:101BB000034A506820F0030008435060704700005B
:101BC0000010024038B5002000900024002500BF1E
:101BD0003120FFF73FFF05460098401C0090009819
:101BE000B0F5A06F01D0002DF2D03120FFF732FF09
:101BF00008B1012400E00024204638BD10B50220C1
:101C000000F0DCF8022000F003F800F0D7F910BD76
:101C1000024909888143014A118070470428004025
:101C200010B50420FFF732F84AF6AA21884207D0FF
:101C300000F01CF94AF6AA210420FFF735F80DE060
:101C40007B20FFF707FF10B97A20FFF703FFFFF7AC
:101C50002FFE0120FFF79CFF00F0BAF910BD000035
:101C60000348008840F010000149088070470000D8
:101C700004280040034800884FF6EF7108400149EE
:101C8000088070470428004070B500260024002515
:101C900000F08AF806463A48B6FBF0F43948008866
:101CA000A0423DD037490C8040F2B27510E0284682
:101CB000FFF75CFC40B1B4F5B77F02D3A4F5B7746D
:101CC00004E0681C85B206E0A4F26D14681C85B2BD
:101CD000B4F5B67FEBD800BF2B480580002516E091
:101CE00029480088FFF742FC30B1012D04D11D2C9A
:101CF00001D31D3C09E00CE02448405DA04203D81C
:101D00002248405D241A00E003E0681C85B21C2CC8
:101D1000E6D200BF681C1E490870601C1D4908708F
:101D20001748B6FBF0F100FB11644FF46160B4FB9F
:101D3000F0F0194908704FF46160B4FBF0F100FB5A
:101D400011403C21B0FBF1F0144908704FF4616080
:101D5000B4FBF0F100FB11403C21B0FBF1F201FBC0
:101D600012000F4908700B480278094801780648AC
:101D7000008800F035F80B490870002070BD0000A5
:101D80008051010030000020280000207C2E000837
:101D90002A0000202B0000202C0000202D00002015
:101DA0002E0000202F000020002103480188001F82
:101DB000008841EA004070471C280040014600208E
:101DC000064A12880A40D0B2044A121F12880A40FA
:101DD00012B108B1012000E0002070470428004043
:101DE000F0B503460C461546642093FBF0F0C6B2EE
:101DF000642093FBF0F700FB1730C1B2132E02DD15
:101E000001F16400C1B20846CF1701EB977701EBEF
:101E1000A707BAB2072092FBF0F700FB172082B2A7
:101E20005719601EDFF82CC01CF80000384482B23D
:101E3000CF1701EB9777BF10A1EB87071FB9032CD2
:101E400001DA501E82B2072092FBF0F700FB172048
:101E5000C0B2F0BD702E000810B50120FFF7AEFF34
:101E60000120FFF7D5FE00F0A9F810BD10B5012143
:101E70004FF0C050FFF7F6FC0120FFF7EDFCFEF736
:101E8000FDFE4FF48070FFF789FE0120FFF73AFE58
:101E900000BF4120FFF7DEFD0028FAD00120FFF748
:101EA00077FE00F095F800F089F847F6FF7000F033
:101EB00075F800F083F810BD2DE9F05F06460F4677
:101EC00090469946DDE90AAB0024B6F5FA6F03DBCC
:101ED00040F63300864202DD0120BDE8F09F40F26B
:101EE000B2750AE02846FFF741FB10B120480444D0
:101EF00001E020480444681C85B2B542F2DB781E3C
:101F0000C7B2002510E01C48405D40F2A3214843C1
:101F100004EBC0143046FFF729FB18B1012D01D1A5
:101F200016480444681C85B2BD42ECDBA8F10100F0
:101F300040F2A321484304EBC014C9EB4910C0EBA5
:101F4000092004EB0014CAEB0A1004EB80045C4483
:101F500001214FF0C050FFF785FC0120FFF77CFC0A
:101F6000204600F00DF800F029F80020B5E7000049
:101F70000085E2018033E1017C2E000880510100E0
:101F800000B50246FFF76CFE100C03490880091DDE
:101F90000A80FFF76FFE00BD1828004000B502461A
:101FA000FFF75EFEC2F3034003490880091D0A8063
:101FB000FFF760FE00BD00000828004000BF034896
:101FC000008800F020000028F9D070470428004065
:101FD000074800884FF6F77108400549088000BFA0
:101FE0000348008800F008000028F9D0704700007E
:101FF0000428004010B500F001F810BD0CB5002019
:10200000019000903348006840F480303149086006
:1020100000BF3048006800F4003000900198401C78
:102020000190009818B90198B0F5A06FF1D1294836
:10203000006800F4003010B10120009001E00020A1
:1020400000900098012843D12348006840F0100018
:10205000214908600846006820F00300086008462F
:10206000006840F0020008601A484068194948605A
:102070000846406848600846406840F48060486010
:102080000846406820F47C1048600846406840F4E8
:10209000E81048600846006840F08070086000BFA3
:1020A0000C48006800F000700028F9D0094840682A
:1020B00020F00300074948600846406840F00200ED
:1020C000486000BF0348406800F00C000828F9D1C0
:1020D0000CBD0000001002400020024010B5134863
:1020E000006840F001001149086008464068104946
:1020F00008400E494860084600680E4908400B49F0
:1021000008600846006820F480200860084640689F
:1021100020F4FE0048604FF41F008860FFF76AFF5C
:102120004FF000600449086010BD0000001002403C
:102130000000FFF8FFFFF6FE08ED00E010B540F2EA
:1021400025511B4800F09CF800B3194800F054F9E1
:1021500018490870084600780D2803D10120164957
:10216000087023E0134800780A2810D1124800783C
:1021700068B100201149124A12788854012011498F
:10218000087000200E4908700B4908700EE00C48DA
:1021900000781F280ADA074801780848084A1278A8
:1021A000815407480078401C0549087010BD0000A4
:1021B000003801401E0000202600002034000020CE
:1021C0001C0000201D00002010B586B0044601212F
:1021D00044F20400FFF756FB4FF40070ADF8140012
:1021E00003208DF8160018208DF8170005A91C484B
:1021F000FFF712F94FF48060ADF8140004208DF859
:10220000170005A91648FFF707F925208DF80000EB
:1022100001208DF801008DF802008DF8030068465A
:10222000FFF7D8FA01940020ADF80800ADF80A00D5
:10223000ADF80C00ADF810000C20ADF80E0001A9AF
:10224000084800F06DF8012240F22551054800F0E1
:1022500041F80121034800F007F806B010BD000066
:10226000000801400038014021B1828942F4005247
:10227000828104E082894DF6FF731A4082817047A3
:1022800070B50246002400230025002040F66A169F
:10229000B14200D100BFC1F3421501F01F03012676
:1022A00006FA03F3012D02D19689334006E0022D90
:1022B00002D1168A334001E0968A33400C1201267F
:1022C00006FA04F41688344013B10CB1012000E082
:1022D000002070BDF0B50346002400260025002034
:1022E00040F66A17B94200D100BF1846C1F3421444
:1022F00001F01F06012707FA06F5012C01D10C3069
:1023000004E0022C01D1103000E014301AB107684B
:102310002F43076002E00768AF430760F0BD00008D
:102320002DE9F04786B005460E460024A24600BFC0
:10233000A1460027B08900B100BF2F462C8A4CF679
:10234000FF700440F08804432C82AC894EF6F310F1
:102350000440B08831890843718908430443AC8143
:10236000AC8A4FF6FF400440B0890443AC8201A818
:10237000FFF706FB1F48874202D1DDF810A001E0FD
:10238000DDF80CA0A88900F4004040B10AEBCA00B7
:1023900000EB0A1031684900B0FBF1F807E00AEBE6
:1023A000CA0000EB0A1031688900B0FBF1F8642024
:1023B000B8FBF0F004012009642101FB1089A88911
:1023C00000F4004040B1322000EBC900B0FBF1F056
:1023D00000F00700044308E0322000EB09106421FC
:1023E000B0FBF1F000F00F0004432C8106B0BDE813
:1023F000F08700000038014001468888C0F30800DB
:102400007047000010B50446FFF74CF900200B4957
:1024100008600B49C1F8A80101200A49086021465B
:102420000948FFF79CF80120044908600020086073
:102430004FF6FF710448FFF792F810BD84812142E6
:1024400000802342A48123420020014010B50446AD
:10245000FFF728F900200D4908600D49C1F8A801CF
:102460000C49086021460C48FFF779F801200B4918
:10247000C1F884010A20FEF725FC0020034908600A
:102480004FF6FF710448FFF76AF810BD84812142BE
:1024900000802342A4812342002001400080214289
:1024A00030380A2801D2012070470020704700BF51
:1024B0007047000000BF054A128802F04002002A5F
:1024C000F9D0C2B2014B1B1D1A8070470038014081
:1024D0001FB5FFF7F7F9FFF7A3FBFFF767F90A232B
:1024E000F8A201210846FEF7FDFB0823F8A203210C
:1024F0000220FEF7F7FBFFF77BF84FF41650FFF7CB
:1025000063FEF8E3F548007801285ED10020F34926
:102510000870F348007830281DD1F1484078312800
:1025200019D1EF488078B0B9EE480178EE480078CC
:10253000EE4A1278CDE900200291ED480378ED488B
:102540000278ED480188EDA0FDF770FE0020E44917
:10255000087048708870E248007830280ED1E04852
:10256000407832280AD1DE48807838B9EFA0FDF7EC
:102570005DFE0020DA49087048708870D8480078FD
:10258000542822D1D748D849D84AD94BCDE900326E
:10259000CDE90210D74BD84AEDA1D148401CFDF738
:1025A0008FFFD0480078D0490978CDE90010CF4896
:1025B0000378CF480278CF480178CF480088FFF7EA
:1025C0007BFC10B9EAA0FDF731FEEF480078002847
:1025D00067D1FFF759FB0423C74802880121084649
:1025E000FEF7B2FB0223C348027806210120FEF762
:1025F000ABFB0223BE48027809210120FEF7A4FBB1
:102600000223BA48027803211846FEF79DFB0223F5
:10261000B548027806211846FEF796FB0223B1481A
:10262000027809211846FEF78FFBD8480078072862
:1026300036D2DFE800F0040B121920272E001023F9
:10264000D3A20C210120FEF74DFB29E01023D2A2DA
:102650000C210120FEF746FB22E01023D0A20C2122
:102660000120FEF73FFB1BE01023CFA20C2101202D
:10267000FEF738FB14E01023CDA20C210120FEF759
:1026800031FB0DE01023CCA20C210120FEF72AFB28
:1026900006E01023CAA20C210120FEF723FB00BF95
:1026A00000BFC94800780D2805D10120B64908703F
:1026B0000020C54908707AE0C34800780D2805D18C
:1026C0000020B1490870C049087074E0BF48008814
:1026D000012807D102238348027809211846FEF712
:1026E00033FB15E0B948008847F23051884206D1E3
:1026F0000223B7A209211846FEF7F4FA08E0B3480E
:1027000000884EF66021884202D10020AF4908803F
:10271000AE480088401CAD490880AB4800780428CA
:1027200012D170480078401C6E4908700020A649FC
:1027300008706C48007800906B4803786B4802780A
:1027400003210220FEF792FB9F4800780C2812D14B
:1027500064480078401E6349087000209A49087058
:102760006048007800906048037860480278032150
:102770000220FEF77BFB9448007808280DD1022345
:102780005848027809211846FEF7DEFA02207E49F1
:10279000087000208C4908700DE08B4800781028E4
:1027A00005D10020784908708749087003E0764811
:1027B0000078012880D000BF0CE1834800780D2804
:1027C00005D10020704908707F49087007E17F48F3
:1027D0000088012807D102234348027806211846C1
:1027E000FEF7B2FA15E07948008847F23051884286
:1027F00006D1022376A206211846FEF773FA08E0F6
:10280000724800884EF66021884202D100206F494C
:1028100008806E480088401C6C4908806A4800782F
:10282000042812D130480078401C2F49087000203D
:10283000654908702B48007800902B4803782B4896
:10284000027803210220FEF711FB5F4800780C2874
:1028500012D125480078401E2349087000205A49AB
:1028600008702048007800901F4803781F480278BD
:1028700003210220FEF7FAFA5348007808280DD108
:1028800002231948027806211846FEF75DFA032054
:102890003D49087000204C490870A0E04A48007883
:1028A00010280DD102231048027809211846FEF79E
:1028B0004BFA0120344908700020434908708EE02B
:1028C00088E00000323032352D30352D31350000B2
:1028D00031343A31333A3530000000001D00002019
:1028E000340000202E0000202D0000202C000020AD
:1028F0002B0000202A00002028000020637572723F
:10290000656E742074696D652069732025303464A8
:102910002D253032642D2530326420253032643A42
:10292000253032643A253032640D0A0073746172C6
:1029300074207365742074696D653A2054323032A6
:10294000352D352D31322031353A33353A32350097
:102950002568752D256868752D256868752025689A
:1029600068753A256868753A256868750000000042
:1029700074696D6520736574207375636573736620
:10298000756C6C7900000000140000202F000020FE
:1029900053756E2E200000004D6F6E2E200000003B
:1029A000547565732E0000005765642E20000000EA
:1029B000546875722E0000004672692E20000000D7
:1029C0005361742E20000000180000201600002023
:1029D00020200000FE48007802283FF4EEAE00BF41
:1029E00083E0FC4800780D2805D10020F8490870E4
:1029F000F84908707EE0F8480088012807D10223D2
:102A0000F648027803211846FEF79EF916E0F248D0
:102A1000008847F23051884207D10223AFF25002BA
:102A200003211846FEF75EF908E0EB4800884EF6F1
:102A30006021884202D10020E7490880E6480088EA
:102A4000401CE5490880E3480078042812D1E34897
:102A50000078401CE14908700020DE490870E04819
:102A600000780090DF480378DC48027803210220D8
:102A7000FEF7FCF9D74800780C2812D1D748007827
:102A8000401ED64908700020D2490870D44800780A
:102A90000090D4480378D148027803210220FEF741
:102AA000E5F9CC48007808280DD10223CB480278FC
:102AB00003211846FEF748F90420C5490870002094
:102AC000C449087016E0C348007810280DD10223CD
:102AD000C248027803211846FEF736F90220BC49A5
:102AE00008700020BB49087004E0B948007803284A
:102AF0003FF477AF00BF7BE0B64800780D2805D1E2
:102B00000020B3490870B349087076E0B2480088E5
:102B1000012807D10223B448027809210120FEF7D9
:102B200013F916E0AC48008847F23051884207D1CB
:102B30000223AFF2641209210120FEF7D3F808E066
:102B4000A54800884EF66021884202D10020A249A3
:102B50000880A1480088401C9F4908809D48007853
:102B600004280ED1A0480078401C9F49087000201E
:102B70009849087002239C48027809210120FEF739
:102B8000E3F8944800780C280ED197480078401E4E
:102B90009549087000208F490870022392480278F6
:102BA00009210120FEF7D0F88A48007808280DD1C5
:102BB00002238D48027809211846FEF7C5F8052042
:102BC0008349087000208349087016E08148007826
:102BD00010280DD102238448027809211846FEF7F7
:102BE000B3F803207A49087000207A49087004E09D
:102BF0007748007804283FF47FAF00BF7CE0754839
:102C000000780D2805D100207149087071490870BD
:102C100077E071480088012807D1022373480278C1
:102C200006210120FEF790F816E06B48008847F275
:102C30003051884207D10223AFF26C2206210120D5
:102C4000FEF750F808E0644800884EF6602188429C
:102C500002D10020604908805F480088401C5E491E
:102C600008805C48007804280ED160480078401C39
:102C70005E49087000205749087002235B480278BB
:102C800006210120FEF760F8524800780C280ED18A
:102C900056480078401E5549087000204D4908707C
:102CA00002235248027806210120FEF74DF84948D8
:102CB000007808280DD102234C4802780621012013
:102CC000FEF742F80620424908700020414908708A
:102CD00017E04048007810280ED1022343480278BC
:102CE00006210120FEF730F8042039490870002041
:102CF0003849087005E09DE03548007805283FF424
:102D00007EAF00BF90E0334800780D2805D1002049
:102D10002F4908702F4908708BE02F480088012840
:102D200007D104233248028801210846FEF70CF837
:102D300015E02948008847F23051884206D1042323
:102D40002CA201210846FDF7CDFF08E022480088AB
:102D50004EF66021884202D100201F4908801E489B
:102D60000088401C1C4908801A48007804280ED1AD
:102D70001F480088401C1E49088000201549087023
:102D800004231B48028801210846FDF7DDFF114896
:102D900000780C280ED116480088401E144908807F
:102DA00000200C49087004231148028801210846BC
:102DB000FDF7CAFF07480078082823D104230C48F0
:102DC000028801210846FDF7BFFF0020004915E0F9
:102DD0001400002018000020160000202C00002005
:102DE0002E0000202D0000202B0000202A000020B3
:102DF00028000020202020200000000008700E493C
:102E0000087016E00C48007810280DD104230B48F8
:102E1000028801210846FDF797FF05200849087040
:102E200000200549087004E00548007806283FF4B2
:102E30006AAF00BFFFF766BB180000202800002023
:102E40001400002010B500290AD00878002807D007
:102E500005487844FDF7D2FE002801D0002010BDBF
:102E60000248784410BD00006A00000062000000C3
:102E70000003030601040602050003051F1C1F1EB4
:102E80001F1E1F1F1E1F1E1F040000080000000041
:102E9000000000020001000010000000CC2F00081C
:102EA00000000020340000006C0100080030000821
:102EB000340000202C0700008801000810010000E9
:102EC00043000000F8FFFFFF00404040404040400A
:102ED00040404141414141404040404040404040ED
:102EE0004040404040404040400502020202020291
:102EF00002020202020202020220202020202020E0
:102F000020202002020202020202909090909090F3
:102F100010101010101010101010101010101010B1
:102F20001010101002020202020288888888888825
:102F30000808080808080808080808080808080811
:102F40000808080802020202400000000000000019
:102F50000000000000000000000000000000000071
:102F60000000000000000000000000000000000061
:102F70000000000000000000000000000000000051
:102F80000000000000000000000000000000000041
:102F90000000000000000000000000000000000031
:102FA0000000000000000000000000000000000021
:102FB0000000000000000000000000000000000011
:102FC0000000000000000000000000000000000001
:102FD00001020304010203040607080902040608AB
:102FE00000000000000000000000000000000000E1
:102FF00000000000000000000000000000000000D1
:0400000508000131BD
:00000001FF
