:020000040800F2
:10000000A0060020CD010008D5010008D701000896
:10001000D9010008DB010008DD0100080000000034
:10002000000000000000000000000000DF010008E8
:10003000E101000800000000E3010008E5010008FC
:10004000E7010008E7010008E7010008E7010008F0
:10005000E7010008E7010008E7010008E7010008E0
:10006000E7010008E7010008E7010008E7010008D0
:10007000E7010008E7010008E7010008E7010008C0
:10008000E7010008E7010008E7010008E7010008B0
:10009000E7010008E7010008E7010008E7010008A0
:1000A000E7010008E7010008E7010008E701000890
:1000B000E7010008E7010008E7010008E701000880
:1000C000E7010008E7010008E7010008E701000870
:1000D000E7010008E7010008E7010008E701000860
:1000E000E7010008E7010008E7010008E701000850
:1000F000E7010008E7010008E7010008E701000840
:10010000E7010008E7010008E7010008E70100082F
:10011000E7010008E7010008E7010008E70100081F
:10012000E7010008E7010008E7010008E70100080F
:1001300000F002F800F03AF80AA090E8000C8244BF
:100140008344AAF10107DA4501D100F02FF8AFF29C
:10015000090EBAE80F0013F0010F18BFFB1A43F0A5
:10016000010318476812000088120000103A24BFEB
:1001700078C878C1FAD8520724BF30C830C144BF0C
:1001800004680C607047000000230024002500264E
:10019000103A28BF78C1FBD8520728BF30C148BFEA
:1001A0000B6070471FB51FBD10B510BD00F031F8D2
:1001B0001146FFF7F7FF00F02FFE00F04FF803B4F1
:1001C000FFF7F2FF03BC00F057F800000948804732
:1001D00009480047FEE7FEE7FEE7FEE7FEE7FEE729
:1001E000FEE7FEE7FEE7FEE704480549054A064B41
:1001F00070470000810A000831010008A0000020BB
:10020000A0060020A0020020A00200207047704736
:100210007047754600F02CF8AE4605006946534617
:1002200020F00700854618B020B5FFF7DDFFBDE8D8
:1002300020404FF000064FF000074FF000084FF04D
:10024000000B21F00701AC46ACE8C009ACE8C009DE
:10025000ACE8C009ACE8C0098D46704710B504464B
:10026000AFF300802046BDE81040FFF7A8BF0000B4
:10027000004870473C00002001491820ABBEFEE753
:10028000260002007047000008B50121402000F060
:1002900069FA6020ADF8000048208DF80300694637
:1002A000064800F0C5F91020ADF8000048208DF890
:1002B00003006946014800F0BBF908BD0018014081
:1002C0002DE9F0410020594908700025002400263E
:1002D0004021574800F037FA38B12021544800F047
:1002E00032FA10B10020534908704021504800F004
:1002F0002AFA002833D14F48007800282FD1202136
:100300004B4800F020FA074647B9012547480078D6
:10031000401C4649087043F6982407E002254348EC
:100320000078401C4149087043F698240020424957
:1003300008800AE040480088401C3F4908800120AE
:100340003C4908700A2000F056FD4021384800F072
:10035000FAF920B938480088B0F5167FEADB1AE0D0
:100360004021334800F0EFF9012812D100BF4021AD
:100370002F4800F0E8F90028F9D140212C4800F07E
:10038000E2F930B929480078401C2849087043F642
:100390009824601E84B2012D01D1012CE0DC1AE00A
:1003A0004021234800F0CFF9012812D100BF40219D
:1003B0001F4800F0C8F90128F9D140211C4800F07D
:1003C000C2F930B919480078401C1849087043F642
:1003D0009824601E84B2022D01D1012CE0DC102192
:1003E000134800F0B0F9C0B912480078A8B90F203E
:1003F00000F0F2FC10210E4800F0A5F968B90325C1
:1004000004E0701C86B20A2000F0E6FC10210848C7
:1004100000F099F908B9642EF3DB642E03DB0120A8
:100420000649087000262846BDE8F0811800002023
:10043000001801401A0000201C00002019000020B4
:100440000149C860704700000020024030B50446F2
:1004500004254FF4302000F0C3F80546042D17D1D1
:100460000C48006940F002000A49086108464461EE
:10047000006940F0400008614FF4302000F0B0F80F
:1004800005460448006941F6FD71084001490861CC
:10049000284630BD0020024004200B49C96801F005
:1004A000010109B101200EE00749C96801F004010A
:1004B00009B1022007E00449C96801F0100109B13F
:1004C000032000E004207047002002400348006938
:1004D00040F08000014908617047000000200240A0
:1004E0000549096821F01001034A116011460968A5
:1004F00001431160704700000020024070B50446BF
:100500000D460426F00200F06BF80646042E11D1C9
:100510000948006940F00100074908612580F002A0
:1005200000F05EF806460448006941F6FE71084096
:1005300001490861304670BD0020024078B506468A
:100540000C46042500200090E80200F049F805461A
:10055000042D24D11348006940F0010011490861BD
:100560003480E80200F03CF80546042D10D1B01CA0
:100570000090200C00990880E80200F031F8054650
:100580000848006941F6FE7108400649086106E026
:100590000448006941F6FE71084002490861284696
:1005A00078BD000000200240014608887047000026
:1005B00001460020034A106800F03800084310602C
:1005C0007047000000200240024803494860034889
:1005D000486070472301674500200240AB89EFCD9A
:1005E00000B502460423FFF757FF034603E0FFF779
:1005F00053FF0346521E012B01D1002AF7D102B945
:100600000523184600BD70B504460D46FFF7DCFF14
:100610003520FFF715FF2046FFF718FF2946204633
:10062000FFF76CFF3520FFF70BFFFFF74FFF70BDA3
:100630002DE9F04102460025002600200023002479
:10064000002791F803C00CF00F0591F803C00CF0DF
:10065000100CBCF1000F03D091F802C04CEA050564
:1006600091F800C0BCF1000F31D0146800202BE0DD
:100670004FF0010C0CFA00F3B1F800C00CEA0306CD
:100680009E4220D183004FF00F0C0CFA03F7BC43BD
:1006900005FA03FC4CEA040491F803C0BCF1280FEE
:1006A00006D14FF0010C0CFA00FCC2F814C00AE0AD
:1006B00091F803C0BCF1480F05D14FF0010C0CFAC2
:1006C00000FCC2F810C0401C0828D1D31460B1F857
:1006D00000C0BCF1FF0F34DD546800202EE000F1B3
:1006E000080C4FF0010808FA0CF3B1F800C00CEA4E
:1006F00003069E4221D183004FF00F0C0CFA03F742
:10070000BC4305FA03FC4CEA040491F803C0BCF1B5
:10071000280F05D100F1080C08FA0CF8C2F8148073
:1007200091F803C0BCF1480F07D100F1080C4FF05D
:10073000010808FA0CF8C2F81080401C0828CED333
:100740005460BDE8F0810246002093680B400BB175
:10075000012000E0002070470AB1016100E0416122
:100760007047000029B1064A92690243044B9A611E
:1007700004E0034A92698243014B9A61704700008A
:100780000010024010B500F035F84FF4803000F052
:1007900089F800F0E5F80446012C24D14FF4E0116B
:1007A000000400F0C3F8002000F070F8A00200F090
:1007B0009FF8002000F0A8F80220FFF7F9FE1020B3
:1007C000FFF78EFE012000F0ABF800BF392000F0EB
:1007D00037F80028FAD0022000F0B6F800BF00F089
:1007E0004DF80828FBD1012144F27C00FFF7BAFF45
:1007F00010BD00000F48006840F001000D4908607E
:10080000084640680C4908400A49486008460068A4
:100810000A490840074908600846006820F480201B
:1008200008600846406820F4FE0048604FF41F004E
:1008300088607047001002400000FFF8FFFFF6FEDE
:1008400010B501460022002300204A11012A02D1DE
:10085000094C236806E0022A02D1074C236A01E012
:10086000054C636A01F01F02012494401C400CB146
:10087000012000E0002010BD001002400248406846
:1008800000F00C00704700000010024001460020FC
:10089000034A506820F0F0000843506070470000A1
:1008A000001002401149096821F480310F4A11609B
:1008B0001146096821F480211160B0F5803F03D012
:1008C000B0F5802F0ED106E00849096841F4803167
:1008D000064A116007E00549096841F4A021034A6E
:1008E000116000E000BF00BF704700000010024030
:1008F00001460020034A506820F4E060084350603D
:10090000704700000010024001460020034A506872
:1009100020F4605040EAC10050607047001002406F
:10092000014908667047000000004242024600206C
:10093000044B586820F47C1042EA01031843014B31
:10094000586070470010024001460020034A50687A
:1009500020F0030008435060704700000010024080
:1009600038B5002000900024002500BF3120FFF79B
:1009700067FF05460098401C00900098B0F5A06FF6
:1009800001D0002DF2D03120FFF75AFF08B1012429
:1009900000E00024204638BD10B500F001F810BD7D
:1009A0000CB50020019000903348006840F480307E
:1009B0003149086000BF3048006800F40030009002
:1009C0000198401C0190009818B90198B0F5A06FEB
:1009D000F1D12948006800F4003010B101200090E6
:1009E00001E0002000900098012843D123480068CE
:1009F00040F01000214908600846006820F003001C
:100A000008600846006840F0020008601A48406824
:100A1000194948600846406848600846406840F404
:100A2000806048600846406820F47C1048600846B2
:100A3000406840F4E81048600846006840F0807064
:100A4000086000BF0C48006800F000700028F9D072
:100A50000948406820F0030007494860084640689C
:100A600040F00200486000BF0348406800F00C00FE
:100A70000828F9D10CBD00000010024000200240FF
:100A800010B51348006840F001001149086008469D
:100A90004068104908400E494860084600680E4901
:100AA00008400B4908600846006820F48020086070
:100AB0000846406820F4FE0048604FF41F0088603C
:100AC000FFF76AFF4FF000600449086010BD0000A6
:100AD000001002400000FFF8FFFFF6FE08ED00E006
:100AE00070B500F051F94025284600F029F900F0D2
:100AF000DDF800F049F9C026304600F021F9002465
:100B000004E0002000F01CF9601CC4B2122CF8DBD9
:100B100000F0CCF870BD2DE9F04104460F461546B3
:100B20006019401E082801DDBDE8F08100F02CF9B5
:100B30004FF04008404600F003F900F0B7F800F02D
:100B400023F904F1BF01C8B200F0FAF8002604E06E
:100B5000B85D00F0F5F8701CC6B2AE42F8DB00F0EC
:100B6000A5F800BFE0E700002DE9F04704460D4678
:100B7000164600F009F94027384600F0E1F800F089
:100B800095F800F001F94FF0C008404600F0D8F8A1
:100B90000A2094FBF0F0214911F80090484600F03B
:100BA000CFF80A2094FBF0F100FB11401B4911F82B
:100BB0000090484600F0C4F8402000F0C1F80A2038
:100BC00095FBF0F0154911F80090484600F0B8F890
:100BD0000A2095FBF0F100FB1150104911F800902C
:100BE000484600F0ADF8402000F0AAF80A2096FB35
:100BF000F0F00A4911F80090484600F0A1F80A20E8
:100C000096FBF0F100FB1160044911F80090484692
:100C100000F096F800F04AF8BDE8F0871E000020CA
:100C20002DE9F04100F0B0F84026304600F088F899
:100C300000F03CF800F0A8F8C027384600F080F833
:100C4000002504E0FF2000F07BF8681CC5B2122DDF
:100C5000F8DB00F02BF84FF4FA7000F0BDF800F06C
:100C600093F84026304600F06BF800F01FF800F0D3
:100C70008BF8C027384600F063F8002504E0002018
:100C800000F05EF8681CC5B2122DF8DB00F00EF81B
:100C900000F07AF88C24204600F052F800F006F8B4
:100CA000012000F089F8BDE8F081000010B50022B5
:100CB00080210948FFF750FD002240210648FFF738
:100CC0004BFD012280210448FFF746FD012240210F
:100CD0000148FFF741FD10BD0020014008B501218A
:100CE0000802FFF73FFDC020ADF8000010208DF88E
:100CF000030003208DF8020069460948FFF798FCBD
:100D0000012240210648FFF727FD012280210448E7
:100D1000FFF722FD012000F04FF8FFF781FF08BD2B
:100D20000020014010B5044600F02EF8204600F0E7
:100D300007F8FFF7BBFF012000F03EF810BD0000F0
:100D400070B50446002519E004F0010028B1012225
:100D500040210C48FFF700FD04E000224021094833
:100D6000FFF7FAFC012280210648FFF7F5FC00227C
:100D700080210448FFF7F0FC64106D1C082DE3DBB4
:100D800070BD00000020014010B50122402109483B
:100D9000FFF7E2FC012280210648FFF7DDFC00227C
:100DA00040210448FFF7D8FC002280210148FFF7CA
:100DB000D3FC10BD002001400146002009E00022C4
:100DC00003E0431C98B2531CDAB25F2AF9DB421CE1
:100DD00090B28842F3DB7047002109E0002201E075
:100DE000531C9AB241F63B739A42F9DB4A1C91B20A
:100DF0008142F3DB70470146002009E0002201E058
:100E0000531CDAB2052AFBDB421C90B2421C90B2A2
:100E10008842F3DB70470000FFF7B4FCFFF734FAB9
:100E2000FFF75CFFFFF7FCFEFE480078FE49087004
:100E3000FC48001D0078FD490870FA480830007829
:100E4000FB490870FB48FFF7AFFBFB4908700C78C3
:100E5000E11704EB5171C910A4EBC1018831C8B28C
:100E6000FFF760FFA1E2FFF72BFAF4490870F4489E
:100E70000078002864D1F3480088401CF1490880BC
:100E80000846008849F64041884259DBE648007828
:100E9000401CE549087008460278E4480178E448B7
:100EA0000078FFF761FEE0480078E7490860DF4816
:100EB00000784860DE4800788860FFF785FB3520C1
:100EC000FFF7BEFAD748E149086008460068FFF717
:100ED000BDFA002410E0DD480068DD490860DA480A
:100EE00050F82410D9480068FFF728FBD74800685D
:100EF000001DD6490860641C032CECDBFFF7E6FA02
:100F00000020D0490880C84800783C2818DB002021
:100F1000C5490870C5480078401CC4490870084697
:100F200000783C280CD100200870C1480078401C93
:100F3000BF49087008460078182801D100200870C1
:100F4000BE480078032805D10120BD490870002063
:100F5000BA490870BF480078012807D10520B84970
:100F600008700020B5490870BA4908707DE0BA4899
:100F70000088012808D1AC480278AC480178AC4818
:100F80000078FFF7F1FD14E0B348008844F62061D3
:100F9000884205D10222B1490720FFF7BCFD08E0D5
:100FA000AD4800884EF66021884202D10020AA494F
:100FB0000880A9480088401CA7490880FFF780F9ED
:100FC0009E490870A3480078012807D100209C4959
:100FD00008709A4908709F4908704BE0974800785C
:100FE000022815D190480078401C8F4908700846A7
:100FF00000783B2801DD0020087000208F49087030
:10100000894802788948017889480078FFF7ACFD63
:101010008A480078012815D183480078401E82490B
:101020000870084600783B2801DD3B2008707E48A8
:1010300002787E4801787E480078FFF795FD002011
:101040007E4908707D48007803280ED176480278E2
:101050007648017876480078FFF786FD02207849C7
:10106000087000207549087004E075480078012870
:101070003FF47DAF00BF74E077480088012808D1B5
:10108000694802786948017869480078FFF76CFD83
:1010900014E07148008844F62061884205D102229C
:1010A0006E490420FFF737FD08E06B4800884EF6D4
:1010B0006021884202D10020674908806648008884
:1010C000401C65490880FFF7FBF85C4908706148DF
:1010D0000078012807D10020594908705749087045
:1010E0005C49087041E055480078022815D14F4806
:1010F0000078401C4D490870084600783B2801DD07
:101100000020087000204D49087047480278474881
:10111000017847480078FFF727FD48480078012804
:1011200015D142480078401E4049087008460078B2
:101130003B2801DD3B2008700020404908703A48F8
:1011400002783A4801783A480078FFF70DFD3B48AD
:101150000078032805D13A49087000203749087003
:1011600003E037480078022886D000BF94E03A4870
:101170000088012808D12C4802782C4801782C4896
:101180000078FFF7F1FC14E03348008844F6206152
:10119000884205D1022231490120FFF7BCFC08E05A
:1011A0002D4800884EF66021884202D100202A494D
:1011B000088029480088401C27490880FFF780F8EC
:1011C0001E49087023480078012807D100201C49D7
:1011D00008701A4908701F49087062E017480078C3
:1011E000022815D112480078401C114908700846A1
:1011F0000078172801DD0020087000200F490870D2
:10120000094802780948017809480078FFF7ACFCE2
:101210000A480078012834D105480078401E044966
:1012200008701DE000F807080500002004000020F9
:101230000300002000F007080C000020010000203F
:1012400002000020060000203000002010000020D6
:101250001400002019000020080000200A000020CF
:1012600008460078172801DD1720087000204F4934
:1012700008704F4802784F4801784F480078FFF7D0
:1012800073FC4A480078032806D105204B490870B2
:1012900000204649087004E04848007803283FF4DD
:1012A00066AF00BF7BE046480088012808D140486F
:1012B00002784048017840480078FFF755FC11E07B
:1012C0003F48008844F62061884202D1FFF708FCBD
:1012D00008E03B48008849F64041884202D100209E
:1012E0003749088036480088401C35490880FEF799
:1012F000E7FF2E4908700846007801281BD13148C5
:101300000078401C2F4908700020284908702D499A
:101310000C78E11704EB5171C910A4EBC1018831BD
:10132000C8B2FFF7FFFC2248027822480178224821
:101330000078FFF719FC1D480078022820D12148C9
:101340000078401E1F4908700846007808B9072039
:1013500008700020154908701A490C78E11704EB51
:101360005171C910A4EBC1018831C8B2FFF7DAFC92
:101370000F4802780F4801780F480078FFF7F4FB18
:101380000A48007803280AD10E4801780E48FFF772
:101390003AF90020094908700449087004E0074838
:1013A000007805283FF47FAF00BF5CE50100002016
:1013B000050000200400002003000020020000209F
:1013C000080000200C00002000F00708EC130008C3
:1013D00000000020300000006C0100081C14000810
:1013E00030000020700600008801000800000000A6
:1013F00000000000000000000500000000000000E8
:10140000000000000000010000003F065B4F666D19
:0C1410007D077F6F777C395E7971760074
:0400000508000131BD
:00000001FF
