:020000040800F2
:1000000060060020B1010008B9010008BB0100082A
:10001000BD010008BF010008C10100080000000088
:10002000000000000000000000000000C301000804
:10003000C501000800000000C7010008C901000850
:10004000CB010008CB010008CB010008CB01000860
:10005000CB010008CB010008CB010008CB01000850
:10006000CB010008CB010008CB010008CB01000840
:10007000CB010008CB010008CB010008CB01000830
:10008000CB010008CB010008CB010008CB01000820
:10009000CB010008CB010008CB010008CB01000810
:1000A000CB010008CB010008CB010008CB01000800
:1000B000CB010008CB010008CB010008CB010008F0
:1000C000CB010008CB010008CB010008CB010008E0
:1000D000CB010008CB010008CB010008CB010008D0
:1000E000CB010008CB010008CB010008CB010008C0
:1000F000CB010008CB010008CB010008CB010008B0
:10010000CB010008CB010008CB010008CB0100089F
:10011000CB010008CB010008CB010008CB0100088F
:10012000CB010008CB010008CB010008CB0100087F
:1001300000F002F800F02CF80AA090E8000C8244CD
:100140008344AAF10107DA4501D100F021F8AFF2AA
:10015000090EBAE80F0013F0010F18BFFB1A43F0A5
:1001600001031847EC120000FC12000000230024D9
:1001700000250026103A28BF78C1FBD8520728BFB7
:1001800030C148BF0B6070471FB51FBD10B510BD13
:1001900000F063F81146FFF7F7FF00F011FF00F0E1
:1001A00081F803B4FFF7F2FF03BC00F089F8000008
:1001B0000948804709480047FEE7FEE7FEE7FEE7FB
:1001C000FEE7FEE7FEE7FEE7FEE7FEE70448054937
:1001D000054A064B70470000250D00083101000854
:1001E0006000002060060020600200206002002005
:1001F00010B5203AC0F00B80B1E81850203AA0E8C2
:100200001850B1E81850A0E81850BFF4F5AF5FEAF5
:10021000027C24BFB1E81850A0E8185044BF18C9A8
:1002200018C0BDE810405FEA827C24BF51F8043B4F
:1002300040F8043B08BF7047D20728BF31F8023BA3
:1002400048BF11F8012B28BF20F8023B48BF00F837
:10025000012B7047704770477047754600F02CF8C7
:10026000AE4605006946534620F00700854618B0A3
:1002700020B5FFF7ABFFBDE820404FF000064FF080
:1002800000074FF000084FF0000B21F00701AC46CB
:10029000ACE8C009ACE8C009ACE8C009ACE8C009EA
:1002A0008D46704710B50446AFF300802046BDE888
:1002B0001040FFF776BF00000048704700000020A4
:1002C00001491820ABBEFEE726000200704700007F
:1002D000014908607047000000860D42014607E0B2
:1002E000722201E0531E9AB2002AFBDC4B1E99B227
:1002F0000029F5DC7047014608E041F63B7201E059
:10030000531E9AB2002AFBDC4B1E99B20029F4DC82
:10031000704700002DE9F04188B007460E461446AC
:100320009846142246A101A8FFF762FF0A20B4FBF9
:10033000F0F100FB11408DF818006420B4FBF0F1DF
:1003400000FB11400A21B0FBF1F08DF819004FF4C9
:100350007A70B4FBF0F100FB11406421B0FBF1F0C6
:10036000C0B28DF81A0042F21070B4FBF0F100FB3D
:1003700011404FF47A71B0FBF1F0C0B28DF81B0060
:100380003448B4FBF0F100FB114042F21071B0FBB5
:10039000F1F0C0B28DF81C002F48B4FBF0F100FB67
:1003A00011402C49B0FBF1F0C0B28DF81D002B4874
:1003B000B4FBF0F100FB11402749B0FBF1F0C0B2F3
:1003C0008DF81E002648B4FBF0F100FB11402349D4
:1003D000B0FBF1F0C0B28DF81F0000F043FD4420E7
:1003E00000F068FD00F052FD002524E000F03AFD29
:1003F00007F1BF012944C8B200F05CFDB8F1010F5C
:100400000DD1701EA8420AD1711B491E06AA515C6B
:1004100001AA515C41F0800000F04CFD07E0711B27
:10042000491E06AA515C01AA505C00F043FD00F091
:100430002DFD681CC5B2B542D8DB08B0BDE8F0811F
:100440003F065B4F666D7D077F6F777C395E797104
:1004500076000000A086010040420F0080969800C0
:1004600000E1F5052DE9F84306460C4615461F4602
:100470004FF0000814E0012E02D144F0800401E0A6
:1004800044F0C004611EC8B200F070FD287800F08E
:1004900041FD6D1C601CC4B208F1010000F0FF08B2
:1004A000781E4045E7DA10208DF80300FF20ADF8F4
:1004B000000003208DF802006946024800F098F819
:1004C000BDE8F883002001402DE9FE4380460D463B
:1004D00014461F460A20B4FBF0F100FB11408DF8D2
:1004E00004006420B4FBF0F100FB11400A21B0FBD2
:1004F000F1F08DF805004FF47A70B4FBF0F100FBD9
:1005000011406421B0FBF1F0C0B28DF8060042F258
:100510001070B4FBF0F100FB11404FF47A71B0FBA6
:10052000F1F0C0B28DF807002C48B4FBF0F100FBED
:10053000114042F21071B0FBF1F0C0B28DF808002A
:100540002748B4FBF0F100FB11402449B0FBF1F067
:10055000C0B28DF809002348B4FBF0F100FB114054
:100560001F49B0FBF1F0C0B28DF80A001E48B4FB81
:10057000F0F100FB11401B49B0FBF1F0C0B28DF867
:100580000B00B8F1010F02D145F0800501E045F004
:10059000C00500260FE0691EC8B200F0E7FC791E16
:1005A000891B01AA515C3031C8B200F0B3FC681C51
:1005B000C5B2701CC6B2781EB042ECDA10208DF8BD
:1005C0000300FF20ADF8000003208DF8020069460B
:1005D000064800F00DF8BDE8FE830000A08601008B
:1005E00040420F008096980000E1F5050020014090
:1005F0002DE9F041024600250026002000230024BA
:10060000002791F803C00CF00F0591F803C00CF01F
:10061000100CBCF1000F03D091F802C04CEA0505A4
:1006200091F800C0BCF1000F31D0146800202BE01D
:100630004FF0010C0CFA00F3B1F800C00CEA03060D
:100640009E4220D183004FF00F0C0CFA03F7BC43FD
:1006500005FA03FC4CEA040491F803C0BCF1280F2E
:1006600006D14FF0010C0CFA00FCC2F814C00AE0ED
:1006700091F803C0BCF1480F05D14FF0010C0CFA02
:1006800000FCC2F810C0401C0828D1D31460B1F897
:1006900000C0BCF1FF0F34DD546800202EE000F1F3
:1006A000080C4FF0010808FA0CF3B1F800C00CEA8E
:1006B00003069E4221D183004FF00F0C0CFA03F782
:1006C000BC4305FA03FC4CEA040491F803C0BCF1F6
:1006D000280F05D100F1080C08FA0CF8C2F81480B4
:1006E00091F803C0BCF1480F07D100F1080C4FF09E
:1006F000010808FA0CF8C2F81080401C0828CED374
:100700005460BDE8F0810000F0B50A4600230024E3
:100710000021002500F00046B6F1004F02D11D4E29
:10072000F16901E01B4E7168C0F3034583B200F428
:100730004016B6F5401F08D121F07061154E76685D
:1007400026F07066134F7E6012E000F48016B6F556
:10075000801F06D1032606FA05F4A14341F070611B
:1007600006E0460D360103FA06F6B14341F070612A
:1007700022B1460D360103FA06F6314300F0004679
:10078000B6F1004F02D1034EF16101E0014E7160FC
:10079000F0BD0000000001400146886880B270474B
:1007A0000246002093680B400BB1012000E00020BE
:1007B000704701617047C16070470AB1016100E094
:1007C0004161704770B5002600250024012000F02B
:1007D000E5F87148FFF7E0FFC0B2FE282DD00A20EF
:1007E000FFF77CFD6C48FFF7D7FFC0B2FE2824D08E
:1007F0006948FFF7D1FFC5B204E00A20FFF77BFD8F
:10080000601CC4B26448FFF7C7FFC0B2FE2801D025
:10081000C82CF2DD7E2D0BD0BE2D07D0DE2D03D0EF
:10082000EE2D07D1012607E0022605E0032603E0AE
:10083000042601E0162600BF00BF022000F0AEF83B
:100840005548FFF7A9FFC0B2FD282DD00A20FFF7B9
:1008500045FD5148FFF7A0FFC0B2FD2824D04E4807
:10086000FFF79AFFC5B204E00A20FFF744FD601CC1
:10087000C4B24948FFF790FFC0B2FD2801D0C82C90
:10088000F2DD7D2D0BD0BD2D07D0DD2D03D0ED2D5C
:1008900007D1052607E0062605E0072603E008261F
:1008A00001E0162600BF00BF042000F077F83A48A8
:1008B000FFF772FFC0B2FB282DD00A20FFF70EFD14
:1008C0003548FFF769FFC0B2FB2824D03248FFF754
:1008D00063FFC5B204E00A20FFF70DFD601CC4B23F
:1008E0002D48FFF759FFC0B2FB2801D0C82CF2DD1C
:1008F0007B2D0BD0BB2D07D0DB2D03D0EB2D07D1EB
:10090000092607E00A2605E00B2603E00C2601E095
:10091000162600BF00BF082000F040F81E48FFF771
:100920003BFFC0B2F7282DD00A20FFF7D7FC1A48AA
:10093000FFF732FFC0B2F72824D01748FFF72CFF8B
:10094000C5B204E00A20FFF7D6FC601CC4B212480E
:10095000FFF722FFC0B2F72801D0C82CF2DD772DB7
:100960000BD0B72D07D0D72D03D0E72D07D10D26FB
:1009700007E00E2605E00F2603E0102601E016260C
:1009800000BF00BFC82C01DB46F080060F2000F03E
:1009900005F8304670BD00000010014038B504462F
:1009A0000121102000F020F9ADF8004010208DF852
:1009B000030003208DF8020069460E48FFF718FE79
:1009C000002221460B48FFF7F8FEE043C0B2ADF825
:1009D000000048208DF8030003208DF802006946CE
:1009E0000448FFF705FEE043C1B20248FFF7E1FE0D
:1009F00038BD00000010014008B50121102000F0B2
:100A0000F3F88020ADF8000010208DF803000320DB
:100A10008DF8020069460D48FFF7EAFD00228021AB
:100A20000A48FFF7CAFE0F20ADF8000048208DF8F5
:100A3000030003208DF8020069460448FFF7D8FD43
:100A40000F210248FFF7B5FE08BD0000001001406D
:100A500038B548208DF80300FF20ADF80000694646
:100A60001648FFF7C5FDFF211448FFF7A2FE01203D
:100A70001349086000201349C1F8A401012012495C
:100A8000086000BF01201049086080210B48FFF773
:100A900087FE044600200D49C1F88401002CF1D1E5
:100AA00014208DF80300FF20ADF8000003208DF81E
:100AB000020069460148FFF79BFD38BD0020014058
:100AC000A881234200802342848121420080214268
:100AD00008B501214FF4C47000F086F84FF400709F
:100AE000ADF8000010208DF8030003208DF80200FF
:100AF00069461648FFF77CFD4FF48060ADF80000B2
:100B000010208DF8030003208DF8020069460F487D
:100B1000FFF76EFD10208DF803000220ADF80000F5
:100B200003208DF8020069460948FFF761FD142093
:100B30008DF80300FF20ADF8000003208DF80200BF
:100B400069460448FFF754FD08BD0000001C014041
:100B5000000C01400020014010B5FFF7B9FF38201C
:100B600000F004FA082000F001FA012000F0FEF97C
:100B7000062000F0FBF90C2000F0F8F910BD000091
:100B800008B50121152000F02FF8012000F026F80B
:100B9000002000F039F80020FFF79AFB01210C48F3
:100BA000FFF7B2FD4FF46040ADF8000003208DF870
:100BB000020010208DF8030069460648FFF718FD73
:100BC00069460548FFF714FD002000F007F808BD4E
:100BD0000004300000100140000801400149086293
:100BE0007047000000000E4229B1064A9269024394
:100BF000044B9A6104E0034A92698243014B9A6173
:100C0000704700000010024000210B4A11700A4A90
:100C1000203A82F82010012802D0042808D103E0ED
:100C20000121054A117004E00521034A117000E01A
:100C300000BF00BF704700002010024010B500F058
:100C400001F810BD0CB500200190009033480068F9
:100C500040F480303149086000BF3048006800F43B
:100C6000003000900198401C0190009818B901983C
:100C7000B0F5A06FF1D12948006800F4003010B140
:100C80000120009001E0002000900098012843D14D
:100C90002348006840F010002149086008460068B9
:100CA00020F0030008600846006840F00200086079
:100CB0001A48406819494860084640684860084634
:100CC000406840F4806048600846406820F47C102A
:100CD00048600846406840F4E810486008460068EC
:100CE00040F08070086000BF0C48006800F00070A1
:100CF0000028F9D00948406820F0030007494860FF
:100D00000846406840F00200486000BF0348406861
:100D100000F00C000828F9D10CBD000000100240C2
:100D20000020024010B51348006840F0010011494E
:100D3000086008464068104908400E494860084667
:100D400000680E4908400B4908600846006820F416
:100D5000802008600846406820F4FE0048604FF498
:100D60001F008860FFF76AFF4FF0006004490860C9
:100D700010BD0000001002400000FFF8FFFFF6FE6B
:100D800008ED00E010B5044600F06CF8442000F0D7
:100D900091F800F07BF800F065F804F1BF01C8B2EB
:100DA00000F088F8402000F085F800F06FF810BDE2
:100DB00038B5002401210802FFF716FFC020ADF866
:100DC000000010208DF8030003208DF80200694612
:100DD0001548FFF70DFC012240211348FFF7EDFCF9
:100DE000012280211048FFF7E8FC00F03BF840208A
:100DF00000F060F800F04AF800F034F8C02000F08D
:100E000059F800BF04E0002000F054F8601CC4B2A0
:100E1000102CF8DB00F03AF800F024F88B2000F0FA
:100E200049F800F033F838BD0020014010B5044601
:100E300000F018F8442000F03DF800F027F800F02A
:100E400011F804F1BF01C8B200F034F8382000F006
:100E500031F85E2000F02EF8402000F02BF800F072
:100E600015F810BD10B5012280210748FFF7A5FC39
:100E7000012240210448FFF7A0FC00224021024843
:100E8000FFF79BFC10BD00000020014010B50122BF
:100E900080210748FFF791FC002240210448FFF71A
:100EA0008CFC012240210248FFF787FC10BD0000A6
:100EB0000020014070B50446002500BF1AE0002262
:100EC00080211348FFF779FC04F0010028B10122CA
:100ED00040210F48FFF771FC04E0002240210C483C
:100EE000FFF76BFC6410012280210948FFF765FCC5
:100EF000681CC5B2082DE2DB002240210448FFF740
:100F00005CFC002280210248FFF757FC70BD000006
:100F10000020014010B50446FFF79AFD00200E495D
:100F200008600E49C1F8A80101200D49086021465A
:100F30000C48FFF740FC01200B49C1F884010A204E
:100F4000FFF7D9F90020044908604FF6FF71054802
:100F5000FFF731FC10BD0000848121420080234254
:100F6000A4812342002001400080214210B50446A4
:100F7000FFF76EFD00200D4908600D49C1F8A8017A
:100F80000C49086021460C48FFF715FC01200B496D
:100F9000C1F884010A20FFF7AEF900200349086078
:100FA0004FF6FF710448FFF706FC10BD8481214213
:100FB00000802342A481234200200140008021427E
:100FC00008B5002417253B2628274FF005090120E6
:100FD00000904FF0000A4FF000084FF0000BFFF7B1
:100FE000CFFDFFF7E5FEFFF707FDFFF7B5FD102387
:100FF000FCA201210846FFF735FA1023FEA20121C9
:101000000220FFF72FFA22E20AF101001FFA80FA0C
:101010000098012833D100232A460221FFF77AF9EC
:101020000320FFF7AFFE0023324602210420FFF722
:1010300071F90620FFF7A6FE00233A460221072099
:10104000FFF768F940F6C410824509DB781CC7B287
:101050004FF0000A03233A460A210220FFF734FA30
:101060003C2F0CDB0027701CC6B23C2E02DB002696
:10107000681CC5B2182D02DB002500260027FFF7EB
:10108000A1FB0446B8F1000F28D104F07F00082826
:1010900024D10020009017E04FF0010BFFF788FEED
:1010A0000120FFF7C3FE01234A4602210420FFF777
:1010B00031F900BF04F0800030B1D448FFF76CFB79
:1010C00000F0F000F028F5D104F0800030B1CF48F6
:1010D000FFF762FB00F0F000F028DDD1BBF1010F5B
:1010E00037D104F07F00042817D109F1010000F086
:1010F000FF09B9F1090F01DB4FF0010901234A464D
:1011000002210420FFF706F9FFF7ACFE09F1870181
:10111000C8B2FFF7CFFEFFF7B9FE04F07F000C283E
:1011200017D1A9F1010000F0FF09B9F1000F01DCAE
:101130004FF0080901234A4602210420FFF7EAF88C
:10114000FFF790FE09F18701C8B2FFF7B3FEFFF782
:101150009DFE082C4CD100200090BBF1010F03D064
:1011600008F1010000F0FF08B8F1040F01DB4FF0B7
:101170000108B8F1010F11D100232A4602210120F4
:10118000FFF7C8F80023324602210420FFF7C2F817
:1011900001233A4602210720FFF7BCF8B8F1020FFD
:1011A00011D100232A4602210120FFF7B3F80123C1
:1011B000324602210420FFF7ADF800233A4602210F
:1011C0000720FFF7A7F8B8F1030F11D101232A4632
:1011D00002211846FFF79EF8002332460221042020
:1011E000FFF798F800233A4602210720FFF792F80C
:1011F000B8F1010F4FD104F07F00042823D10DE096
:10120000781CC7B23C2F00DB002701233A4602219D
:101210000720FFF77FF83220FFF76DF804F0800019
:1012200030B17A48FFF7B8FA00F0F000F028E7D1C3
:10123000781CC7B23C2F00DB002701233A4602216D
:101240000720FFF767F804F07F000C2823D10DE09A
:10125000781EC7B2FA2F00DB3B2701233A46022152
:101260000720FFF757F83220FFF745F804F0800019
:1012700030B16648FFF790FA00F0F000F028E7D1AF
:10128000781EC7B2FA2F00DB3B2701233A46022122
:101290000720FFF73FF8B8F1020F4FD104F07F00AD
:1012A000042823D10DE0701CC6B23C2E00DB0026C2
:1012B0000123324602210420FFF72CF83220FFF7E9
:1012C0001AF804F0800030B15048FFF765FA00F0DA
:1012D000F000F028E7D1701CC6B23C2E00DB0026DF
:1012E0000123324602210420FFF714F804F07F00A6
:1012F0000C2823D10DE0701EC6B2FA2E00DB3B266F
:101300000123324602210420FFF704F83220FEF7C1
:10131000F2FF04F0800030B13C48FFF73DFA00F0E6
:10132000F000F028E7D1701EC6B2FA2E00DB3B2693
:101330000123324602210420FEF7ECFFB8F1030F2F
:101340004FD104F07F00042823D10DE0681CC5B202
:10135000182D00DB002501232A4602211846FEF73E
:10136000D9FF3220FEF7C7FF04F0800030B12748D4
:10137000FFF712FA00F0F000F028E7D1681CC5B2C0
:10138000182D00DB002501232A4602211846FEF70E
:10139000C1FF04F07F000C2823D10DE0681EC5B208
:1013A000FA2D00DB172501232A4602211846FEF7F5
:1013B000B1FF3220FEF79FFF04F0800030B11348E8
:1013C000FFF7EAF900F0F000F028E7D1681EC5B297
:1013D000FA2D00DB172501232A4602211846FEF7C5
:1013E00099FF15E04561737920426F617264205363
:1013F000544D333200000000456E636F6465723AED
:10140000203030202020202000000000001001406B
:101410000F2C1CD1012000904FF000084FF0000B62
:1014200000232A460221FEF775FF0320FFF7AAFCDE
:101430000023324602210420FEF76CFF0620FFF74E
:10144000A1FC00233A4602210720FEF763FFDBE5FB
:101450006014000800000020600600006C01000815
:0400000508000131BD
:00000001FF
