:020000040800F2
:1000000070060020D5010008DD010008DF010008AE
:10001000E1010008E3010008E5010008000000001C
:10002000000000000000000000000000E7010008E0
:10003000E901000800000000EB010008ED010008E4
:10004000EF010008EF010008EF010008EF010008D0
:10005000EF010008EF010008EF010008EF010008C0
:10006000EF010008EF010008EF010008EF010008B0
:10007000EF010008EF010008EF010008EF010008A0
:10008000EF010008EF010008EF010008EF01000890
:10009000EF010008EF010008EF010008EF01000880
:1000A000EF010008EF010008EF010008EF01000870
:1000B000EF010008EF010008EF010008EF01000860
:1000C000EF010008EF010008EF010008EF01000850
:1000D000EF010008EF010008EF010008EF01000840
:1000E000EF010008EF010008EF010008EF01000830
:1000F000EF010008EF010008EF010008EF01000820
:10010000EF010008EF010008EF010008EF0100080F
:10011000EF010008EF010008EF010008EF010008FF
:10012000EF010008EF010008EF010008EF010008EF
:1001300000F002F800F03FF80AA090E8000C8244BA
:100140008344AAF10107DA4501D100F034F8AFF297
:10015000090EBAE80F0013F0010F18BFFB1A43F0A5
:100160000103184794130000B4130000103A24BF91
:1001700078C878C1FAD8520724BF30C830C144BF0C
:1001800004680C607047000000230024002500264E
:10019000103A28BF78C1FBD8520728BF30C148BFEA
:1001A0000B607047642900F07180002070471FB514
:1001B0001FBD10B510BD00F0BAF91146FFF7F7FFEB
:1001C00000F062FF00F0D8F903B4FFF7F2FF03BCC0
:1001D00000F0E0F90948804709480047FEE7FEE7DC
:1001E000FEE7FEE7FEE7FEE7FEE7FEE7FEE7FEE7E7
:1001F00004480549054A064B704700007D0F00087A
:1002000031010008700000207006002070020020FC
:10021000700200200FB41CB5074B06AA7B44694648
:100220000090059800F06BF90020694600F07AF91B
:100230001CBC5DF814FB00000503000070B504460B
:1002400085690068C10601D5302600E02026C00778
:1002500007D070BDD4E9012130469047206A401C88
:1002600020626D1EF6D570BD70B5044685690078B4
:10027000C00707D170BDD4E9012120209047206A32
:10028000401C20626D1EF6D570BD00002DE9F041C6
:100290000646002410687529314616A510D0AFF324
:1002A0000080002802DA404213A507E031688A077F
:1002B00001D512A502E0490704D511A5012401E0EA
:1002C000AFF3008000210A2206F1240709E0B0FB09
:1002D000F2FCB0FBF2F302FB1C00303078541846FD
:1002E000491C0028F3D123462A463046BDE8F04198
:1002F00000F0A7B8000000002D0000002B00000057
:10030000200000002DE9F05F894604464FF0000A06
:10031000DFF824B1FB44C0F820A02046E1688847FC
:1003200000287DD0252806D0D4E901219047206AF5
:10033000401C2062F1E700255F462046E1688847BF
:100340002028064607DB312E05D2B81910F8200CFC
:1003500008B10543F1E7A80701D525F00405C4F865
:100360001CA00027C4F818A02A2E09D0304600F09F
:1003700083FE38B304EB8708303EC8F8186019E0F4
:1003800059F8041B204604EB87029161E168884715
:10039000012F064618D1E069002820DA25F0200553
:1003A0001DE0D8F8180000EB800006EB4000303864
:1003B000C8F818002046E1688847064600F05CFE51
:1003C0000028EED1012F0AD02E2E08D12046E16858
:1003D00088477F1C0646022F45F02005C4DBA06934
:1003E000002803DA404245F00105A061E80701D08A
:1003F00025F01005A6B1A6F14100192802D8203633
:1004000045F400654A463146204625604D46FFF7D3
:10041000C9FE60B1012807D0ED1D25F0070000E0FE
:1004200007E000F1080978E705F1040975E73046AF
:100430007AE7206ABDE8F09FCC1100007047704752
:1004400070472DE9F0470D4699469246044600F163
:1004500024080168880604D5E06921F010012160B4
:1004600000E00120A84201DD471B00E00027A16950
:100470007A1902EB0900081AA0612078C00602D49C
:100480002046FFF7DBFE002608E0D4E901211AF838
:1004900006009047206A401C761C20624E45F4DB23
:1004A0002078C0060AD52046FFF7C8FE06E0D4E94A
:1004B000012130209047206A401C2062381EA7F19D
:1004C0000107F4DC07E0D4E9012118F805009047A2
:1004D000206A401C2062281EA5F10105F3DC20469D
:1004E000FFF7C2FE2078000602D50220BDE8F087A3
:1004F0000120FBE701694A1C02610878704700B5DA
:100500008FB0CDE901310021059105497944CDE94C
:10051000031011466846FFF7F5FE0FB000BD00005E
:10052000E5FFFFFF0A6802F8010B0A607047754695
:1005300000F02CF8AE4605006946534620F007004F
:10054000854618B020B5FFF753FEBDE820404FF0B8
:1005500000064FF000074FF000084FF0000B21F0AD
:100560000701AC46ACE8C009ACE8C009ACE8C0097A
:10057000ACE8C0098D46704710B50446AFF3008063
:100580002046BDE81040FFF71FBE0000004870473E
:100590000C00002001491820ABBEFEE72600020037
:1005A000704700210022014608E041F63B7201E05D
:1005B000531E9AB2002AFBDC4B1E99B20029F4DCD0
:1005C000704700002DE9F84306460C4615461F46C5
:1005D0004FF0000814E0012E02D144F0800401E045
:1005E00044F0C004611EC8B200F01CFD287800F081
:1005F000F5FC6D1C601CC4B208F1010000F0FF089E
:10060000781E4045E7DA10208DF80300FF20ADF892
:10061000000003208DF802006946024800F0D2F87D
:10062000BDE8F883002001402DE9FE4380460D46D9
:1006300014461F460A20B4FBF0F100FB11408DF870
:1006400004006420B4FBF0F100FB11400A21B0FB70
:10065000F1F08DF805004FF47A70B4FBF0F100FB77
:1006600011406421B0FBF1F0C0B28DF8060042F2F7
:100670001070B4FBF0F100FB11404FF47A71B0FB45
:10068000F1F0C0B28DF807002C48B4FBF0F100FB8C
:10069000114042F21071B0FBF1F0C0B28DF80800C9
:1006A0002748B4FBF0F100FB11402449B0FBF1F006
:1006B000C0B28DF809002348B4FBF0F100FB1140F3
:1006C0001F49B0FBF1F0C0B28DF80A001E48B4FB20
:1006D000F0F100FB11401B49B0FBF1F0C0B28DF806
:1006E0000B00B8F1010F02D145F0800501E045F0A3
:1006F000C00500260FE0691EC8B200F093FC791E09
:10070000891B01AA515C3031C8B200F067FC681C3B
:10071000C5B2701CC6B2781EB042ECDA10208DF85B
:100720000300FF20ADF8000003208DF802006946A9
:10073000064800F047F8BDE8FE830000A0860100EF
:1007400040420F008096980000E1F505002001402E
:100750002DE9FF4104460D4616461F46DDF8288068
:100760003B46324606A101A8CDF80080FFF752FDB6
:10077000082301AA29462046FFF724FFBDE8FF8190
:10078000253032643A253032643A25303264000034
:100790000549096821F01001034A116011460968F2
:1007A0000143116070470000002002400146002014
:1007B000034A106800F038000843106070470000DA
:1007C000002002402DE9F0410246002500260020CD
:1007D00000230024002791F803C00CF00F0591F8C6
:1007E00003C00CF0100CBCF1000F03D091F802C054
:1007F0004CEA050591F800C0BCF1000F31D0146837
:1008000000202BE04FF0010C0CFA00F3B1F800C00F
:100810000CEA03069E4220D183004FF00F0C0CFA25
:1008200003F7BC4305FA03FC4CEA040491F803C047
:10083000BCF1280F06D14FF0010C0CFA00FCC2F8F5
:1008400014C00AE091F803C0BCF1480F05D14FF085
:10085000010C0CFA00FCC2F810C0401C0828D1D3CF
:100860001460B1F800C0BCF1FF0F34DD5468002003
:100870002EE000F1080C4FF0010808FA0CF3B1F873
:1008800000C00CEA03069E4221D183004FF00F0CFA
:100890000CFA03F7BC4305FA03FC4CEA040491F894
:1008A00003C0BCF1280F05D100F1080C08FA0CF8C0
:1008B000C2F8148091F803C0BCF1480F07D100F1D1
:1008C000080C4FF0010808FA0CF8C2F81080401C20
:1008D0000828CED35460BDE8F0810146886880B214
:1008E00070470246002093680B400BB1012000E0E6
:1008F000002070474161704701617047C1607047D7
:1009000008B50121102000F0ABF90F20ADF8000070
:1009100010208DF8030003208DF802006946074877
:10092000FFF750FFF020ADF8000048208DF80300DD
:1009300069460248FFF746FF08BD0000001001406D
:1009400070B5002400260F217848FFF7D5FF01215C
:100950007648FFF7CFFF7548FFF7BFFFC0B2FE280C
:100960002BD00A20FFF71DFE7048FFF7B6FFC0B27C
:10097000FE2822D06D48FFF7B0FFC5B204E00A2080
:10098000FFF70FFE601CC4B26848FFF7A6FFC0B2B5
:10099000FE2801D0322CF2DD7E2D0BD0BE2D07D0EB
:1009A000DE2D03D0EE2D07D1012605E0022603E05F
:1009B000032601E0042600BF00BF0F215B48FFF7BC
:1009C0009BFF02215948FFF795FF5848FFF785FF25
:1009D000C0B2FD282BD00A20FFF7E3FD5348FFF7F4
:1009E0007CFFC0B2FD2822D05048FFF776FFC5B289
:1009F00004E00A20FFF7D5FD601CC4B24B48FFF7A6
:100A00006CFFC0B2FD2801D0322CF2DD7D2D0BD061
:100A1000BD2D07D0DD2D03D0ED2D07D1052605E036
:100A2000062603E0072601E0082600BF00BF0F21CD
:100A30003E48FFF761FF04213C48FFF75BFF3B485E
:100A4000FFF74BFFC0B2FB282BD00A20FFF7A9FD10
:100A50003648FFF742FFC0B2FB2822D03348FFF7E9
:100A60003CFFC5B204E00A20FFF79BFD601CC4B246
:100A70002E48FFF732FFC0B2FB2801D0322CF2DD46
:100A80007B2D0BD0BB2D07D0DB2D03D0EB2D07D159
:100A9000092605E00A2603E00B2601E00C2600BF2C
:100AA00000BF0F212148FFF727FF08211F48FFF74C
:100AB00021FF1E48FFF711FFC0B2F7282BD00A20F4
:100AC000FFF76FFD1948FFF708FFC0B2F72822D0E3
:100AD0001648FFF702FFC5B204E00A20FFF761FDE8
:100AE000601CC4B21148FFF7F8FEC0B2F72801D06D
:100AF000322CF2DD772D0BD0B72D07D0D72D03D0B8
:100B0000E72D07D10D2605E00E2603E00F2601E0B4
:100B1000102600BF00BF322C01DD46F080060F21F9
:100B20000248FFF7E7FE304670BD000000100140AC
:100B300038B548208DF80300FF20ADF80000694665
:100B40001648FFF73FFEFF211448FFF7D5FE0120AE
:100B50001349086000201349C1F8A401012012497B
:100B6000086000BF01201049086080210B48FFF792
:100B7000B8FE044600200D49C1F88401002CF1D1D3
:100B800014208DF80300FF20ADF8000003208DF83D
:100B9000020069460148FFF715FE38BD00200140FC
:100BA000A881234200802342848121420080214287
:100BB00008B501214FF4C47000F052F84FF40070F2
:100BC000ADF8000010208DF8030003208DF802001E
:100BD00069461648FFF7F6FD4FF48060ADF8000057
:100BE00010208DF8030003208DF8020069460F489D
:100BF000FFF7E8FD10208DF803000220ADF800009B
:100C000003208DF8020069460948FFF7DBFD142038
:100C10008DF80300FF20ADF8000003208DF80200DE
:100C200069460448FFF7CEFD08BD0000001C0140E6
:100C3000000C01400020014010B5FFF7B9FF38203B
:100C400000F0F0F9082000F0EDF9012000F0EAF9D9
:100C5000062000F0E7F90C2000F0E4F910BD0000D8
:100C600029B1064A92690243044B9A6104E0034A9F
:100C700092698243014B9A61704700000010024064
:100C800010B500F035F84FF4803000F089F800F02E
:100C9000E5F80446012C24D14FF4E011000400F0E3
:100CA000C3F8002000F070F8A00200F09FF80020C8
:100CB00000F0A8F80220FFF779FD1020FFF768FD8B
:100CC000012000F0ABF800BF392000F037F8002811
:100CD000FAD0022000F0B6F800BF00F04DF8082866
:100CE000FBD1012144F27C00FFF7BAFF10BD0000E8
:100CF0000F48006840F001000D4908600846406850
:100D00000C4908400A494860084600680A490840FA
:100D1000074908600846006820F4802008600846FB
:100D2000406820F4FE0048604FF41F008860704760
:100D3000001002400000FFF8FFFFF6FE10B501466C
:100D40000022002300204A11012A02D1094C236805
:100D500006E0022A02D1074C236A01E0054C636ACF
:100D600001F01F02012494401C400CB1012000E05E
:100D7000002010BD001002400248406800F00C0046
:100D8000704700000010024001460020034A5068EE
:100D900020F0F0000843506070470000001002404F
:100DA0001149096821F480310F4A11601146096820
:100DB00021F480211160B0F5803F03D0B0F5802F81
:100DC0000ED106E00849096841F48031064A1160F5
:100DD00007E00549096841F4A021034A116000E0D9
:100DE00000BF00BF70470000001002400146002015
:100DF000034A506820F4E0600843506070470000E8
:100E00000010024001460020034A506820F4605060
:100E100040EAC10050607047001002400149086676
:100E2000704700000000424202460020044B586810
:100E300020F47C1042EA01031843014B58607047CC
:100E40000010024001460020034A506820F00300D1
:100E500008435060704700000010024038B5002081
:100E600000900024002500BF3120FFF767FF0546F2
:100E70000098401C00900098B0F5A06F01D0002DA4
:100E8000F2D03120FFF75AFF08B1012400E000241E
:100E9000204638BD10B500F001F810BD0CB500209B
:100EA000019000903348006840F480303149086078
:100EB00000BF3048006800F4003000900198401CEA
:100EC0000190009818B90198B0F5A06FF1D12948A8
:100ED000006800F4003010B10120009001E0002013
:100EE00000900098012843D12348006840F010008A
:100EF000214908600846006820F0030008600846A1
:100F0000006840F0020008601A48406819494860CB
:100F10000846406848600846406840F48060486081
:100F20000846406820F47C1048600846406840F459
:100F3000E81048600846006840F08070086000BF14
:100F40000C48006800F000700028F9D0094840689B
:100F500020F00300074948600846406840F002005E
:100F6000486000BF0348406800F00C000828F9D131
:100F70000CBD0000001002400020024010B51348D4
:100F8000006840F0010011490860084640681049B7
:100F900008400E494860084600680E4908400B4961
:100FA00008600846006820F4802008600846406811
:100FB00020F4FE0048604FF41F008860FFF76AFFCE
:100FC0004FF000600449086010BD000000100240AE
:100FD0000000FFF8FFFFF6FE08ED00E010B5044644
:100FE000FFF7A6FD00200B4908600B49C1F8A801D6
:100FF00001200A49086021460948FFF77FFC0120CB
:1010000004490860002008604FF6FF710448FFF7AC
:1010100075FC10BD8481214200802342A4812342BB
:101020000020014010B50446FFF782FD00200D4965
:1010300008600D49C1F8A8010C49086021460C4818
:10104000FFF75CFC01200B49C1F884010A20FFF77F
:10105000A8FA0020034908604FF6FF710448FFF723
:101060004DFC10BD8481214200802342A481234293
:10107000002001400080214230380A2801D201209E
:10108000704700207047000008B5FFF7F9FDFFF733
:101090008FFDFFF7D1FD1023EFA201210846FFF7D6
:1010A00091FA1023F1A201210220FFF78BFA1023FD
:1010B000F4A201210220FFF785FAFFF721FCCAE123
:1010C000FFF73EFCF5490870F54800780090F548B8
:1010D0000378F548027801210220FFF739FBF34835
:1010E0000078F8B9F2480088401CF14908800846A9
:1010F00000880A2816DB00200880E9480078401C98
:10110000E74908700A46E749E74800F0D5F9E4489E
:1011100000780090E3480378E34802780121022038
:10112000FFF716FBDD4800780D2805D10120DF49C7
:1011300008700020D94908708CE0DE48008801283A
:1011400006D10223CDA207211846FFF73BFA16E08D
:10115000D848008844F62061884207D10223D0484D
:10116000027807211846FFF75FFA08E0D1480088A7
:101170004EF66021884202D10020CE490880CD4839
:101180000088401CCB490880FFF7DAFBC349087090
:10119000084600780D280CD10223C14802780721A7
:1011A0001846FFF741FA0020C0490870BB49087093
:1011B00055E0BA48007804280ED1B9480078401CA0
:1011C000B74908700020B54908700223B448027876
:1011D00007211846FFF728FA0EE0B1480078401CB6
:1011E000AF49087002230846027807211846FFF726
:1011F0001BFA0020A9490870A848007800F0800078
:101200000028EAD1A54800780C280ED1A44800781F
:10121000401EA34908700223084602780721184699
:10122000FFF702FA00209D4908709C4800780828C2
:1012300006D102209D4908700020984908700EE0F0
:1012400096480078102805D10020984908709349E5
:10125000087004E09548007801283FF46EAF00BFA5
:1012600077E094480088012806D1022383A2042154
:101270001846FFF7A7F916E08E48008844F620616B
:10128000884207D102238748027804211846FFF7D5
:10129000CBF908E0874800884EF66021884202D1E9
:1012A00000208449088083480088401C81490880C8
:1012B000FFF746FB79490870084600780D280CD1E5
:1012C00002237848027804211846FFF7ADF9002080
:1012D00076490870714908703FE07048007804282A
:1012E0000ED170480078401C6E49087000206B4990
:1012F000087002236B48027804211846FFF794F91E
:10130000664800780C280ED166480078401E654972
:1013100008700020614908700223624802780421A5
:101320001846FFF781F95D480078082806D10320A8
:101330005E4908700020594908700EE0574800784F
:10134000102806D10120594908700020534908701F
:1013500003E056480078022883D000BF76E0554865
:101360000088012806D1022344A201211846FFF774
:1013700029F916E04F48008844F62061884207D1D9
:1013800002234948027801211846FFF74DF908E089
:10139000484800884EF66021884202D10020454925
:1013A000088044480088401C42490880FFF7C8FA7A
:1013B0003A490870084600780D280CD102233A48B3
:1013C000027801211846FFF72FF9002037490870ED
:1013D000324908703EE03148007804280ED1324886
:1013E0000078401C3049087000202C490870022306
:1013F0002D48027801211846FFF716F92748007892
:101400000C280ED128480078401E2749087000207B
:101410002249087002232448027801211846FFF768
:1014200003F91E480078082805D100201F490870DC
:101430001A4908700EE019480078102806D10220D9
:101440001A49087000201549087003E01748007811
:10145000032884D000BF33E6323032342D31322DB0
:101460003135205765642E2020000000686F7572AA
:101470003A6D696E3A736563202020202020202079
:1014800000000000202020202020202020202020DC
:101490002020202020202020000000000700002025
:1014A00002000020010000200000002006000020B3
:1014B000040000200800002013783C2B11DB0023DF
:1014C00013700B785B1C0B700B783C2B09DB002333
:1014D0000B7003785B1C03700378182B01DB00236F
:1014E00003707047040000080000000000000002C4
:1014F0000001000010000000181500080000002086
:101500000C0000006C010008241500080C000020ED
:1015100064060000880100080000000000000000D0
:0415200000000000C7
:0400000508000131BD
:00000001FF
