:020000040800F2
:1000000078060020D5010008DD010008DF010008A6
:10001000E1010008E3010008E5010008000000001C
:10002000000000000000000000000000E7010008E0
:10003000E901000800000000EB010008ED010008E4
:10004000EF010008EF010008EF0100081912000895
:10005000EF010008EF010008EF010008EF010008C0
:10006000EF010008EF010008EF010008EF010008B0
:10007000EF010008EF010008EF010008EF010008A0
:10008000EF010008EF010008EF010008EF01000890
:10009000EF010008EF010008EF010008EF01000880
:1000A000EF010008EF010008EF010008EF01000870
:1000B000EF010008EF010008EF010008EF01000860
:1000C000EF010008EF010008EF010008EF01000850
:1000D000EF010008EF010008EF010008EF01000840
:1000E000EF010008BD0F0008EF010008EF01000854
:1000F000EF010008EF010008EF010008EF01000820
:10010000EF010008EF010008EF010008EF0100080F
:10011000EF010008EF010008EF010008EF010008FF
:10012000EF010008EF010008EF010008EF010008EF
:1001300000F002F800F03FF80AA090E8000C8244BA
:100140008344AAF10107DA4501D100F034F8AFF297
:10015000090EBAE80F0013F0010F18BFFB1A43F0A5
:1001600001031847D01B0000F01B0000103A24BF09
:1001700078C878C1FAD8520724BF30C830C144BF0C
:1001800004680C607047000000230024002500264E
:10019000103A28BF78C1FBD8520728BF30C148BFEA
:1001A0000B607047642900F07180002070471FB514
:1001B0001FBD10B510BD00F0C0F91146FFF7F7FFE5
:1001C00001F080F900F0DEF903B4FFF7F2FF03BCA1
:1001D00000F0E2F90948804709480047FEE7FEE7DA
:1001E000FEE7FEE7FEE7FEE7FEE7FEE7FEE7FEE7E7
:1001F00004480549054A064B70470000B91300083A
:1002000031010008780000207806002078020020E4
:10021000780200200FB41CB5074B06AA7B44694640
:100220000090059800F06BF90020694600F07AF91B
:100230001CBC5DF814FB00000503000070B504460B
:1002400085690068C10601D5302600E02026C00778
:1002500007D070BDD4E9012130469047206A401C88
:1002600020626D1EF6D570BD70B5044685690078B4
:10027000C00707D170BDD4E9012120209047206A32
:10028000401C20626D1EF6D570BD00002DE9F041C6
:100290000646002410687529314616A510D0AFF324
:1002A0000080002802DA404213A507E031688A077F
:1002B00001D512A502E0490704D511A5012401E0EA
:1002C000AFF3008000210A2206F1240709E0B0FB09
:1002D000F2FCB0FBF2F302FB1C00303078541846FD
:1002E000491C0028F3D123462A463046BDE8F04198
:1002F00000F0A7B8000000002D0000002B00000057
:10030000200000002DE9F05F894604464FF0000A06
:10031000DFF824B1FB44C0F820A02046E1688847FC
:1003200000287DD0252806D0D4E901219047206AF5
:10033000401C2062F1E700255F462046E1688847BF
:100340002028064607DB312E05D2B81910F8200CFC
:1003500008B10543F1E7A80701D525F00405C4F865
:100360001CA00027C4F818A02A2E09D0304601F09E
:10037000A1F838B304EB8708303EC8F8186019E0DC
:1003800059F8041B204604EB87029161E168884715
:10039000012F064618D1E069002820DA25F0200553
:1003A0001DE0D8F8180000EB800006EB4000303864
:1003B000C8F818002046E1688847064601F07AF838
:1003C0000028EED1012F0AD02E2E08D12046E16858
:1003D00088477F1C0646022F45F02005C4DBA06934
:1003E000002803DA404245F00105A061E80701D08A
:1003F00025F01005A6B1A6F14100192802D8203633
:1004000045F400654A463146204625604D46FFF7D3
:10041000C9FE60B1012807D0ED1D25F0070000E0FE
:1004200007E000F1080978E705F1040975E73046AF
:100430007AE7206ABDE8F09F081A0000704770470D
:1004400070472DE9F0470D4699469246044600F163
:1004500024080168880604D5E06921F010012160B4
:1004600000E00120A84201DD471B00E00027A16950
:100470007A1902EB0900081AA0612078C00602D49C
:100480002046FFF7DBFE002608E0D4E901211AF838
:1004900006009047206A401C761C20624E45F4DB23
:1004A0002078C0060AD52046FFF7C8FE06E0D4E94A
:1004B000012130209047206A401C2062381EA7F19D
:1004C0000107F4DC07E0D4E9012118F805009047A2
:1004D000206A401C2062281EA5F10105F3DC20469D
:1004E000FFF7C2FE2078000602D50220BDE8F087A3
:1004F0000120FBE701694A1C02610878704700B5DA
:100500008FB0CDE901310021059105497944CDE94C
:10051000031011466846FFF7F5FE0FB000BD00005E
:10052000E5FFFFFF0A6802F8010B0A607047000050
:10053000004870471400002070477546FFF7F8FF29
:10054000AE4605006946534620F00700854618B0C0
:1005500020B5FFF74DFEBDE820404FF000064FF0FC
:1005600000074FF000084FF0000B21F00701AC46E8
:10057000ACE8C009ACE8C009ACE8C009ACE8C00907
:100580008D46704710B50446AFF300802046BDE8A5
:100590001040FFF719BE000001491820ABBEFEE76E
:1005A0002600020010B5012000F0C0FB002000F082
:1005B000BDFB10BD08B50146002000900348009027
:1005C0000098084400900098008808BD006C004026
:1005D00008B500220092044A0092009A0244009258
:1005E000009A116008BD0000006C0040002109E085
:1005F000002201E0531C9AB241F63B739A42F9DBA8
:100600004A1C91B28142F3DB704700002DE9F843A8
:1006100006460C4615461F464FF0000814E0012E12
:1006200002D144F0800401E044F0C004611EC8B26D
:1006300000F016FF287800F0EFFE6D1C601CC4B2BD
:1006400008F1010000F0FF08781E4045E7DA1020AD
:100650008DF80300FF20ADF8000003208DF80200A4
:100660006946024800F0D0F8BDE8F8830020014058
:100670002DE9FE4380460E4614461F460A20B4FB71
:10068000F0F100FB11408DF804006420B4FBF0F1A0
:1006900000FB11400A21B0FBF1F08DF805004FF48A
:1006A0007A70B4FBF0F100FB11406421B0FBF1F073
:1006B000C0B28DF8060042F21070B4FBF0F100FBFE
:1006C00011404FF47A71B0FBF1F0C0B28DF8070021
:1006D0002B48B4FBF0F100FB114042F21071B0FB6B
:1006E000F1F0C0B28DF808002648B4FBF0F100FB31
:1006F00011402349B0FBF1F0C0B28DF80900224847
:10070000B4FBF0F100FB11401E49B0FBF1F0C0B2A8
:100710008DF80A001D48B4FBF0F100FB11401A49A6
:10072000B0FBF1F0C0B28DF80B00B8F1010F02D1AF
:1007300046F0800601E046F0C00600250EE0711983
:10074000491EC8B200F08CFE791E491B01AA515CFB
:100750003031C8B200F060FE681CC5B2BD42EEDBAD
:1007600010208DF80300FF20ADF8000003208DF865
:1007700002006946064800F047F8BDE8FE83000025
:10078000A086010040420F008096980000E1F50528
:10079000002001402DE9FF4104460D4616461F4644
:1007A000DDF828803B46324606A101A8CDF800803E
:1007B000FFF730FD082301AA29462046FFF726FF50
:1007C000BDE8FF81253032643A253032643A253065
:1007D000326400000549096821F01001034A1160E4
:1007E0001146096801431160704700000020024073
:1007F00001460020034A106800F0380008431060EA
:1008000070470000002002402DE9F041024600251B
:100810000026002000230024002791F803C00CF0DC
:100820000F0591F803C00CF0100CBCF1000F03D0C1
:1008300091F802C04CEA050591F800C0BCF1000F28
:1008400031D0146800202BE04FF0010C0CFA00F3BB
:10085000B1F800C00CEA03069E4220D183004FF09D
:100860000F0C0CFA03F7BC4305FA03FC4CEA040432
:1008700091F803C0BCF1280F06D14FF0010C0CFA1F
:1008800000FCC2F814C00AE091F803C0BCF1480FA4
:1008900005D14FF0010C0CFA00FCC2F810C0401C4E
:1008A0000828D1D31460B1F800C0BCF1FF0F34DDCB
:1008B000546800202EE000F1080C4FF0010808FAFF
:1008C0000CF3B1F800C00CEA03069E4221D183006C
:1008D0004FF00F0C0CFA03F7BC4305FA03FC4CEA8B
:1008E000040491F803C0BCF1280F05D100F1080CF5
:1008F00008FA0CF8C2F8148091F803C0BCF1480F54
:1009000007D100F1080C4FF0010808FA0CF8C2F802
:100910001080401C0828CED35460BDE8F081014609
:10092000886880B270470246002093680B400BB184
:10093000012000E00020704741617047016170476D
:10094000C16070470146CA1701EB92729210A1EB89
:10095000820292B9642091FBF0F200FB121050B9B0
:100960004FF4C87091FBF0F200FB121008B901209F
:1009700070470020FCE70120FAE70020F8E70000BC
:1009800008B50121102000F0C1F90F20ADF80000DA
:1009900010208DF8030003208DF8020069460748F7
:1009A000FFF732FFF020ADF8000048208DF803007B
:1009B00069460248FFF728FF08BD0000001001400B
:1009C00070B5002400260F217848FFF7B7FF0121FA
:1009D0007648FFF7B1FF7548FFF7A1FFC0B2FE28C8
:1009E0002BD00A20FFF702FE7048FFF798FFC0B235
:1009F000FE2822D06D48FFF792FFC5B204E00A201E
:100A0000FFF7F4FD601CC4B26848FFF788FFC0B26E
:100A1000FE2801D0322CF2DD7E2D0BD0BE2D07D06A
:100A2000DE2D03D0EE2D07D1012605E0022603E0DE
:100A3000032601E0042600BF00BF0F215B48FFF73B
:100A40007DFF02215948FFF777FF5848FFF767FFFE
:100A5000C0B2FD282BD00A20FFF7C8FD5348FFF78E
:100A60005EFFC0B2FD2822D05048FFF758FFC5B244
:100A700004E00A20FFF7BAFD601CC4B24B48FFF740
:100A80004EFFC0B2FD2801D0322CF2DD7D2D0BD0FF
:100A9000BD2D07D0DD2D03D0ED2D07D1052605E0B6
:100AA000062603E0072601E0082600BF00BF0F214D
:100AB0003E48FFF743FF04213C48FFF73DFF3B481A
:100AC000FFF72DFFC0B2FB282BD00A20FFF78EFDC9
:100AD0003648FFF724FFC0B2FB2822D03348FFF787
:100AE0001EFFC5B204E00A20FFF780FD601CC4B2FF
:100AF0002E48FFF714FFC0B2FB2801D0322CF2DDE4
:100B00007B2D0BD0BB2D07D0DB2D03D0EB2D07D1D8
:100B1000092605E00A2603E00B2601E00C2600BFAB
:100B200000BF0F212148FFF709FF08211F48FFF7E9
:100B300003FF1E48FFF7F3FEC0B2F7282BD00A20B0
:100B4000FFF754FD1948FFF7EAFEC0B2F72822D09C
:100B50001648FFF7E4FEC5B204E00A20FFF746FDA1
:100B6000601CC4B21148FFF7DAFEC0B2F72801D00A
:100B7000322CF2DD772D0BD0B72D07D0D72D03D037
:100B8000E72D07D10D2605E00E2603E00F2601E034
:100B9000102600BF00BF322C01DD46F080060F2179
:100BA0000248FFF7C9FE304670BD0000001001404A
:100BB00038B548208DF80300FF20ADF800006946E5
:100BC0001648FFF721FEFF211448FFF7B7FE01206A
:100BD0001349086000201349C1F8A40101201249FB
:100BE000086000BF01201049086080210B48FFF712
:100BF0009AFE044600200D49C1F88401002CF1D171
:100C000014208DF80300FF20ADF8000003208DF8BC
:100C1000020069460148FFF7F7FD38BD002001409A
:100C2000A881234200802342848121420080214206
:100C300008B501214FF4C47000F068F84FF400705B
:100C4000ADF8000010208DF8030003208DF802009D
:100C500069461648FFF7D8FD4FF48060ADF80000F4
:100C600010208DF8030003208DF8020069460F481C
:100C7000FFF7CAFD10208DF803000220ADF8000038
:100C800003208DF8020069460948FFF7BDFD1420D6
:100C90008DF80300FF20ADF8000003208DF802005E
:100CA00069460448FFF7B0FD08BD0000001C014084
:100CB000000C01400020014010B5FFF7B9FF3820BB
:100CC00000F0CEFB082000F0CBFB012000F0C8FBB9
:100CD000062000F0C5FB0C2000F0C2FB10BD000098
:100CE000014908627047000000000E4229B1064A1F
:100CF000D2690243044BDA6104E0034AD2698243B9
:100D0000014BDA61704700000010024029B1064A29
:100D100092690243044B9A6104E0034A9269824358
:100D2000014B9A61704700000010024001490860C1
:100D300070470000400442420348406A40F080701F
:100D40000149486270470000001002400149C86430
:100D5000704700000000424210B500F035F84FF433
:100D6000803000F089F800F00DF90446012C24D100
:100D70004FF4E011000400F0DDF8002000F070F8FE
:100D8000A00200F0B9F8002000F0C2F80220FFF73E
:100D90002FFD1020FFF71EFD012000F0C5F800BF59
:100DA000392000F037F80028FAD0022000F0DEF8F1
:100DB00000BF00F04DF80828FBD1012144F27D006E
:100DC000FFF7A4FF10BD00000F48006840F00100CD
:100DD0000D490860084640680C4908400A494860C7
:100DE000084600680A490840074908600846006844
:100DF00020F4802008600846406820F4FE00486027
:100E00004FF41F0088607047001002400000FFF898
:100E1000FFFFF6FE10B501460022002300204A1114
:100E2000012A02D1094C236806E0022A02D1074CAC
:100E3000236A01E0054C636A01F01F02012494401B
:100E40001C400CB1012000E0002010BD0010024049
:100E50000248406800F00C0070470000001002409B
:100E600001460020034A506820F0F000084350601B
:100E700070470000001002401149096821F48031D8
:100E80000F4A11601146096821F480211160B0F504
:100E9000803F03D0B0F5802F0ED106E008490968E5
:100EA00041F48031064A116007E00549096841F4C0
:100EB000A021034A116000E000BF00BF704700009E
:100EC0000010024000210B4A11700A4A203A82F8B1
:100ED0002010012802D0042808D103E00121054A8E
:100EE000117004E00521034A117000E000BF00BF4B
:100EF000704700002010024001460020034A50685D
:100F000020F4E06008435060704700000010024089
:100F100001460020034A506820F4605040EAC100B6
:100F20005060704700100240014908667047000099
:100F30000000424202460020044B586820F47C1016
:100F400042EA01031843014B586070470010024009
:100F500001490860704700003C0442420249096AA6
:100F60000143014A1162704700100240014600200F
:100F7000034A506820F003000843506070470000A7
:100F80000010024038B5002000900024002500BF6A
:100F90003120FFF73FFF05460098401C0090009865
:100FA000B0F5A06F01D0002DF2D03120FFF732FF55
:100FB00008B1012400E00024204638BD10B502200D
:100FC00000F0DCF8022000F003F800F065F910BD35
:100FD000024909888143014A118070470428004072
:100FE00010B50420FFF7E6FA4AF6AA21884207D096
:100FF00000F01CF94AF6AA210420FFF7E9FA0DE0F7
:101000007B20FFF707FF10B97A20FFF703FFFFF7F8
:1010100093FE0120FFF79CFF00F048F910BD00008F
:101020000348008840F01000014908807047000024
:1010300004280040034800884FF6EF71084001493A
:10104000088070470428004070B500260024002561
:1010500000F08AF806463A48B6FBF0F439480088B2
:10106000A0423DD037490C8040F2B27510E02846CE
:10107000FFF768FC40B1B4F5B77F02D3A4F5B774AD
:1010800004E0681C85B206E0A4F26D14681C85B209
:10109000B4F5B67FEBD800BF2B480580002516E0DD
:1010A00029480088FFF74EFC30B1012D04D11D2CDA
:1010B00001D31D3C09E00CE02448405DA04203D868
:1010C0002248405D241A00E003E0681C85B21C2C15
:1010D000E6D200BF681C1E490870601C1D490870DC
:1010E0001748B6FBF0F100FB11644FF46160B4FBEC
:1010F000F0F0194908704FF46160B4FBF0F100FBA7
:1011000011403C21B0FBF1F0144908704FF46160CC
:10111000B4FBF0F100FB11403C21B0FBF1F201FB0C
:1011200012000F4908700B480278094801780648F8
:10113000008800F035F80B490870002070BD0000F1
:10114000805101001000002008000020141D00083C
:101150000A0000200B0000200C0000200D000020E1
:101160000E0000200F000020002103480188001F0E
:10117000008841EA004070471C28004001460020DA
:10118000064A12880A40D0B2044A121F12880A4046
:1011900012B108B1012000E000207047042800408F
:1011A000F0B503460C461546642093FBF0F0C6B23A
:1011B000642093FBF0F700FB1730C1B2132E02DD61
:1011C00001F16400C1B20846CF1701EB977701EB3C
:1011D000A707BAB2072092FBF0F700FB172082B2F4
:1011E0005719601EDFF82CC01CF80000384482B28A
:1011F000CF1701EB9777BF10A1EB87071FB9032C1F
:1012000001DA501E82B2072092FBF0F700FB172094
:10121000C0B2F0BD081D000810B50120FFF7AEFFF9
:101220000120FFF7D5FE00F037F810BD10B5012101
:101230004FF0C050FFF75AFD0120FFF751FDFFF7B7
:10124000B1F94FF48070FFF789FE0120FFF73AFEF5
:1012500000BF4120FFF7DEFD0028FAD00120FFF794
:1012600077FE00F023F800F017F847F6FF7000F063
:1012700003F800F011F810BD00B50246FFF7D0FEEC
:10128000C2F3034003490880091D0A80FFF7D2FE1C
:1012900000BD00000828004000BF0348008800F09F
:1012A00020000028F9D07047042800400748008833
:1012B0004FF6F77108400549088000BF03480088D1
:1012C00000F008000028F9D0704700000428004012
:1012D00010B500F001F810BD0CB500200190009091
:1012E0003348006840F480303149086000BF30481E
:1012F000006800F4003000900198401C01900098B4
:1013000018B90198B0F5A06FF1D12948006800F430
:10131000003010B10120009001E000200090009802
:10132000012843D12348006840F01000214908609B
:101330000846006820F0030008600846006840F096
:10134000020008601A484068194948600846406829
:1013500048600846406840F480604860084640683D
:1013600020F47C1048600846406840F4E81048606B
:101370000846006840F08070086000BF0C480068B4
:1013800000F000700028F9D00948406820F0030000
:10139000074948600846406840F00200486000BFC6
:1013A0000348406800F00C000828F9D10CBD00008B
:1013B000001002400020024010B51348006840F0C1
:1013C00001001149086008464068104908400E496C
:1013D0004860084600680E4908400B490860084606
:1013E000006820F4802008600846406820F4FE0071
:1013F00048604FF41F008860FFF76AFF4FF00060FD
:101400000449086010BD0000001002400000FFF811
:10141000FFFFF6FE08ED00E010B50446FFF7C8FB3D
:1014200000200B4908600B49C1F8A80101200A49B6
:10143000086021460948FFF783FA01200449086043
:10144000002008604FF6FF710448FFF779FA10BDDD
:101450008481214200802342A48123420020014054
:1014600010B50446FFF7A4FB00200D4908600D49A4
:10147000C1F8A8010C49086021460C48FFF760FA42
:1014800001200B49C1F884010A20FFF7AFF80020C2
:10149000034908604FF6FF710448FFF751FA10BD89
:1014A0008481214200802342A48123420020014004
:1014B0000080214230380A2801D2012070470020E4
:1014C0007047000008B5FFF747FC0120FFF73EFC1E
:1014D000FFF786FDFFF754FAFFF7EEFB1023FAA2A1
:1014E00001210846FFF792F81023FCA201210220F7
:1014F000FFF78CF8F7E3FE480078002867D1FFF784
:10150000A3FD0423FB48028801210846FFF7B0F839
:101510000223F948027806210120FFF7A9F80223E7
:10152000F648027809210120FFF7A2F80223F448C7
:10153000027803211846FFF79BF80223F14802784E
:1015400006211846FFF794F80223EF480278092194
:101550001846FFF78DF8ED480078072836D2DFE807
:1015600000F0040B121920272E001023E8A20C21F2
:101570000120FFF74BF829E01023E7A20C210120FE
:10158000FFF744F822E01023E5A20C210120FFF729
:101590003DF81BE01023E4A20C210120FFF736F8F0
:1015A00014E01023E2A20C210120FFF72FF80DE038
:1015B0001023E1A20C210120FFF728F806E01023F8
:1015C000DFA20C210120FFF721F800BF00BFFFF7C9
:1015D000F7F9DD490870084600780D2805D101208B
:1015E000C34908700020D84908707EE0FFF7E8F989
:1015F000D5490870084600780D2805D10020BC495F
:101600000870D149087075E0D0480088012807D1DA
:101610000223BD48027809211846FFF729F815E092
:10162000CA48008847F23051884206D10223C8A236
:1016300009211846FEF7EAFF08E0C44800884EF684
:101640006021884202D10020C0490880BF4800883C
:10165000401CBE490880BC480078042812D1AA4822
:101660000078401CA84908700020B7490870A648B7
:1016700000780090A3480378A14802780321022053
:10168000FFF788F8B04800780C2812D19E480078FF
:10169000401E9D4908700020AB4908709A480078A8
:1016A0000090984803789648027803210220FFF7BB
:1016B00071F8A548007808280DD1022392480278D5
:1016C00009211846FEF7D4FF02208949087000203E
:1016D0009D4908700EE09C480078102805D1002034
:1016E000834908709849087004E08148007801280F
:1016F0003FF47CAF00BF86E0FFF762F992490870C3
:10170000084600780D2805D10020794908708E49D7
:1017100008707DE08D480088012807D102237948B0
:10172000027806211846FEF7A3FF15E087480088D7
:1017300047F23051884206D1022385A2062118467D
:10174000FEF764FF08E0814800884EF66021884279
:1017500002D100207D4908807C480088401C7B49DC
:10176000088079480078042812D166480078401C27
:10177000644908700020744908706348007800903C
:10178000604803785E48027803210220FFF702F8E0
:101790006D4800780C2812D15A480078401E5949EB
:1017A0000870002068490870574800780090554834
:1017B00003785348027803210220FEF7EBFF6248CA
:1017C000007808280DD102234E48027806211846D9
:1017D000FEF74EFF03204649087000205A49087062
:1017E00016E05948007810280DD1022345480278A8
:1017F00009211846FEF73CFF01203D4908700020F2
:101800005149087004E03A48007802283FF474AF68
:1018100000BFCDE0FFF7D4F84B49087008460078C8
:101820000D2805D100203249087047490870C4E0EE
:1018300046480088012807D1022331480278032155
:101840001846FEF715FF15E04048008847F2305172
:10185000884206D102233EA203211846FEF7D6FE97
:1018600008E03A4800884EF66021884202D1002004
:101870003649088035480088401C34490880324881
:101880000078042812D11E480078401C1C490870BA
:1018900000202D4908701C480078009019480378F2
:1018A0001748027803210220FEF774FF26480078CB
:1018B0000C2859D112480078401E114908700020A8
:1018C00021490870104845E0323032332D31322D35
:1018D000303720546875722E000000002020303010
:1018E0003A30303A30302020202020200000000004
:1018F00001000020080000200A0000200B0000204A
:101900000C0000200D0000200E0000200F00002021
:1019100053756E2E200000004D6F6E2E20000000CB
:10192000547565732E0000005765642E200000007A
:10193000546875722E0000004672692E2000000067
:101940005361742E200000000000002002000020DF
:101950002020000000780090E3480378E3480278F4
:1019600003210220FEF716FFE148007808280DD178
:101970000223DE48027803211846FEF779FE042090
:10198000DC4908700020DA49087016E0D848007871
:1019900010280DD10223D548027803211846FEF7FE
:1019A00067FE0220D34908700020D149087004E086
:1019B000D048007803283FF42DAF00BF7FE0FEF74A
:1019C000FFFFCB490870084600780D2805D100209C
:1019D000C8490870C649087076E0C74800880128E1
:1019E00007D10223C548027809210120FEF740FEF5
:1019F00016E0C148008847F23051884207D10223DF
:101A0000AFF2B40209210120FEF700FE08E0BA4857
:101A100000884EF66021884202D10020B649088035
:101A2000B5480088401CB4490880B14800780428B3
:101A30000ED1B2480078401CB04908700020AC4973
:101A400008700223AD48027809210120FEF710FE3C
:101A5000A74800780C280ED1A8480078401EA74956
:101A600008700020A24908700223A44802780921C6
:101A70000120FEF7FDFD9E48007808280DD10223C5
:101A80009E48027809211846FEF7F2FD0520994983
:101A9000087000209649087016E0954800781028D4
:101AA0000DD102239548027809211846FEF7E0FD82
:101AB00003209049087000208D49087004E08D488B
:101AC000007804283FF47BAF00BF7FE0FEF778FF8B
:101AD00087490870084600780D2805D100208549FF
:101AE00008708349087076E083480088012807D190
:101AF00002238348027806210120FEF7B9FD16E093
:101B00007D48008847F23051884207D10223AFF266
:101B1000C01206210120FEF779FD08E07648008812
:101B20004EF66021884202D1002073490880724835
:101B30000088401C704908806D48007804280ED148
:101B40006F480078401C6E49087000206849087092
:101B500002236B48027806210120FEF789FD6448C4
:101B600000780C280ED166480078401E6449087041
:101B700000205F4908700223614802780621012095
:101B8000FEF776FD5A48007808280DD102235C48FC
:101B9000027806210120FEF76BFD062055490870EA
:101BA00000205349087016E05148007810280DD1E4
:101BB00002235348027806210120FEF759FD042034
:101BC0004C49087000204A49087004E049480078F0
:101BD00005283FF47BAF00BF7FE0FEF7F1FE4449EC
:101BE0000870084600780D2805D10020414908708A
:101BF0003F49087076E040480088012807D1042357
:101C00004048028801210846FEF732FD16E03A48B6
:101C1000008847F23051884207D10423AFF23832AE
:101C200001210846FEF7F2FC08E0334800884EF632
:101C30006021884202D100202F4908802E48008868
:101C4000401C2D4908802A48007804280ED12D48D0
:101C50000088401C2B490880002025490870042377
:101C60002848028801210846FEF702FD2048007836
:101C70000C280ED123480088401E224908800020ED
:101C80001B49087004231F48028801210846FEF7FB
:101C9000EFFC1748007808280CD104231948028863
:101CA00001210846FEF7E4FC0020124908701049A3
:101CB000087017E00E48007810280ED10423114850
:101CC000028801210846FEF7D3FC05200949087067
:101CD00000200749087005E005E00648007806285E
:101CE0003FF47BAF00BF06E40D0000200C00002095
:101CF0000000002001000020020000200B00002056
:101D00000A00002008000020000303060104060268
:101D1000050003051F1C1F1E1F1E1F1F1E1F1E1F49
:101D200004000008000000000000000200010000A4
:101D300010000000541D00080000002014000000E6
:101D40006C010008681D00081400002064060000F3
:101D500088010008000000000000000000000000F2
:081D600000000000000000007B
:0400000508000131BD
:00000001FF
